{
	"ballot_voting/ballotvoting.sol": {
		"Ballot": {
			"abi": [
				{
					"inputs": [
						{
							"internalType": "bytes32[]",
							"name": "proposalNames",
							"type": "bytes32[]"
						},
						{
							"internalType": "uint256",
							"name": "startTime",
							"type": "uint256"
						},
						{
							"internalType": "uint256",
							"name": "votingTime",
							"type": "uint256"
						}
					],
					"stateMutability": "nonpayable",
					"type": "constructor"
				},
				{
					"inputs": [
						{
							"internalType": "uint256",
							"name": "time",
							"type": "uint256"
						}
					],
					"name": "voteEnded",
					"type": "error"
				},
				{
					"inputs": [
						{
							"internalType": "uint256",
							"name": "time",
							"type": "uint256"
						}
					],
					"name": "voteNotStarted",
					"type": "error"
				},
				{
					"inputs": [],
					"name": "chairperson",
					"outputs": [
						{
							"internalType": "address",
							"name": "",
							"type": "address"
						}
					],
					"stateMutability": "view",
					"type": "function"
				},
				{
					"inputs": [
						{
							"internalType": "address",
							"name": "to",
							"type": "address"
						}
					],
					"name": "delegate",
					"outputs": [],
					"stateMutability": "nonpayable",
					"type": "function"
				},
				{
					"inputs": [],
					"name": "endTime",
					"outputs": [
						{
							"internalType": "uint256",
							"name": "",
							"type": "uint256"
						}
					],
					"stateMutability": "view",
					"type": "function"
				},
				{
					"inputs": [
						{
							"internalType": "address",
							"name": "voter",
							"type": "address"
						}
					],
					"name": "giveRightToVote",
					"outputs": [],
					"stateMutability": "nonpayable",
					"type": "function"
				},
				{
					"inputs": [
						{
							"internalType": "uint256",
							"name": "",
							"type": "uint256"
						}
					],
					"name": "proposals",
					"outputs": [
						{
							"internalType": "bytes32",
							"name": "name",
							"type": "bytes32"
						},
						{
							"internalType": "uint256",
							"name": "voteCount",
							"type": "uint256"
						}
					],
					"stateMutability": "view",
					"type": "function"
				},
				{
					"inputs": [],
					"name": "startTime",
					"outputs": [
						{
							"internalType": "uint256",
							"name": "",
							"type": "uint256"
						}
					],
					"stateMutability": "view",
					"type": "function"
				},
				{
					"inputs": [
						{
							"internalType": "uint256",
							"name": "proposal",
							"type": "uint256"
						}
					],
					"name": "vote",
					"outputs": [],
					"stateMutability": "nonpayable",
					"type": "function"
				},
				{
					"inputs": [
						{
							"internalType": "address",
							"name": "",
							"type": "address"
						}
					],
					"name": "voters",
					"outputs": [
						{
							"internalType": "uint256",
							"name": "weight",
							"type": "uint256"
						},
						{
							"internalType": "bool",
							"name": "voted",
							"type": "bool"
						},
						{
							"internalType": "address",
							"name": "delegate",
							"type": "address"
						},
						{
							"internalType": "uint256",
							"name": "vote",
							"type": "uint256"
						}
					],
					"stateMutability": "view",
					"type": "function"
				},
				{
					"inputs": [],
					"name": "winnerName",
					"outputs": [
						{
							"internalType": "bytes32",
							"name": "winnerName_",
							"type": "bytes32"
						}
					],
					"stateMutability": "view",
					"type": "function"
				},
				{
					"inputs": [],
					"name": "winningProposal",
					"outputs": [
						{
							"internalType": "uint256",
							"name": "winningProposal_",
							"type": "uint256"
						}
					],
					"stateMutability": "view",
					"type": "function"
				}
			],
			"devdoc": {
				"details": "Implements voting process along with vote delegation",
				"kind": "dev",
				"methods": {
					"constructor": {
						"details": "Create a new ballot to choose one of 'proposalNames'.",
						"params": {
							"proposalNames": "names of proposals"
						}
					},
					"delegate(address)": {
						"details": "Delegate your vote to the voter 'to'.",
						"params": {
							"to": "address to which vote is delegated"
						}
					},
					"giveRightToVote(address)": {
						"details": "Give 'voter' the right to vote on this ballot. May only be called by 'chairperson'.",
						"params": {
							"voter": "address of voter"
						}
					},
					"vote(uint256)": {
						"details": "Give your vote (including votes delegated to you) to proposal 'proposals[proposal].name'.",
						"params": {
							"proposal": "index of proposal in the proposals array"
						}
					},
					"winnerName()": {
						"details": "Calls winningProposal() function to get the index of the winner contained in the proposals array and then",
						"returns": {
							"winnerName_": "the name of the winner"
						}
					},
					"winningProposal()": {
						"details": "Computes the winning proposal taking all previous votes into account.",
						"returns": {
							"winningProposal_": "index of winning proposal in the proposals array"
						}
					}
				},
				"title": "Ballot",
				"version": 1
			},
			"evm": {
				"assembly": "    /* \"ballot_voting/ballotvoting.sol\":154:5955  contract Ballot {\r... */\n  mstore(0x40, 0x80)\n    /* \"ballot_voting/ballotvoting.sol\":1474:2078  constructor(bytes32[] memory proposalNames,\r... */\n  callvalue\n  dup1\n  iszero\n  tag_1\n  jumpi\n  0x00\n  dup1\n  revert\ntag_1:\n  pop\n  mload(0x40)\n  sub(codesize, bytecodeSize)\n  dup1\n  bytecodeSize\n  dup4\n  codecopy\n  dup2\n  dup2\n  add\n  0x40\n  mstore\n  dup2\n  add\n  swap1\n  tag_2\n  swap2\n  swap1\n  tag_3\n  jump\t// in\ntag_2:\n    /* \"ballot_voting/ballotvoting.sol\":1604:1614  msg.sender */\n  caller\n    /* \"ballot_voting/ballotvoting.sol\":1590:1601  chairperson */\n  0x02\n  0x00\n    /* \"ballot_voting/ballotvoting.sol\":1590:1614  chairperson = msg.sender */\n  0x0100\n  exp\n  dup2\n  sload\n  dup2\n  0xffffffffffffffffffffffffffffffffffffffff\n  mul\n  not\n  and\n  swap1\n  dup4\n  0xffffffffffffffffffffffffffffffffffffffff\n  and\n  mul\n  or\n  swap1\n  sstore\n  pop\n    /* \"ballot_voting/ballotvoting.sol\":1654:1655  1 */\n  0x01\n    /* \"ballot_voting/ballotvoting.sol\":1625:1631  voters */\n  0x03\n    /* \"ballot_voting/ballotvoting.sol\":1625:1644  voters[chairperson] */\n  0x00\n    /* \"ballot_voting/ballotvoting.sol\":1632:1643  chairperson */\n  0x02\n  0x00\n  swap1\n  sload\n  swap1\n  0x0100\n  exp\n  swap1\n  div\n  0xffffffffffffffffffffffffffffffffffffffff\n  and\n    /* \"ballot_voting/ballotvoting.sol\":1625:1644  voters[chairperson] */\n  0xffffffffffffffffffffffffffffffffffffffff\n  and\n  0xffffffffffffffffffffffffffffffffffffffff\n  and\n  dup2\n  mstore\n  0x20\n  add\n  swap1\n  dup2\n  mstore\n  0x20\n  add\n  0x00\n  keccak256\n    /* \"ballot_voting/ballotvoting.sol\":1625:1651  voters[chairperson].weight */\n  0x00\n  add\n    /* \"ballot_voting/ballotvoting.sol\":1625:1655  voters[chairperson].weight = 1 */\n  dup2\n  swap1\n  sstore\n  pop\n    /* \"ballot_voting/ballotvoting.sol\":1694:1704  votingTime */\n  dup1\n    /* \"ballot_voting/ballotvoting.sol\":1676:1691  block.timestamp */\n  timestamp\n    /* \"ballot_voting/ballotvoting.sol\":1676:1704  block.timestamp + votingTime */\n  tag_6\n  swap2\n  swap1\n  tag_7\n  jump\t// in\ntag_6:\n    /* \"ballot_voting/ballotvoting.sol\":1666:1673  endTime */\n  0x01\n    /* \"ballot_voting/ballotvoting.sol\":1666:1704  endTime = block.timestamp + votingTime */\n  dup2\n  swap1\n  sstore\n  pop\n    /* \"ballot_voting/ballotvoting.sol\":1722:1728  uint i */\n  0x00\n    /* \"ballot_voting/ballotvoting.sol\":1717:2071  for (uint i = 0; i < proposalNames.length; i++) {\r... */\ntag_8:\n    /* \"ballot_voting/ballotvoting.sol\":1738:1751  proposalNames */\n  dup4\n    /* \"ballot_voting/ballotvoting.sol\":1738:1758  proposalNames.length */\n  mload\n    /* \"ballot_voting/ballotvoting.sol\":1734:1735  i */\n  dup2\n    /* \"ballot_voting/ballotvoting.sol\":1734:1758  i < proposalNames.length */\n  lt\n    /* \"ballot_voting/ballotvoting.sol\":1717:2071  for (uint i = 0; i < proposalNames.length; i++) {\r... */\n  iszero\n  tag_9\n  jumpi\n    /* \"ballot_voting/ballotvoting.sol\":1946:1955  proposals */\n  0x04\n    /* \"ballot_voting/ballotvoting.sol\":1961:2058  Proposal({\r... */\n  mload(0x40)\n  dup1\n  0x40\n  add\n  0x40\n  mstore\n  dup1\n    /* \"ballot_voting/ballotvoting.sol\":1995:2008  proposalNames */\n  dup7\n    /* \"ballot_voting/ballotvoting.sol\":2009:2010  i */\n  dup5\n    /* \"ballot_voting/ballotvoting.sol\":1995:2011  proposalNames[i] */\n  dup2\n  mload\n  dup2\n  lt\n  tag_11\n  jumpi\n  tag_12\n  tag_13\n  jump\t// in\ntag_12:\ntag_11:\n  0x20\n  mul\n  0x20\n  add\n  add\n  mload\n    /* \"ballot_voting/ballotvoting.sol\":1961:2058  Proposal({\r... */\n  dup2\n  mstore\n  0x20\n  add\n    /* \"ballot_voting/ballotvoting.sol\":2041:2042  0 */\n  0x00\n    /* \"ballot_voting/ballotvoting.sol\":1961:2058  Proposal({\r... */\n  dup2\n  mstore\n  pop\n    /* \"ballot_voting/ballotvoting.sol\":1946:2059  proposals.push(Proposal({\r... */\n  swap1\n  dup1\n  0x01\n  dup2\n  sload\n  add\n  dup1\n  dup3\n  sstore\n  dup1\n  swap2\n  pop\n  pop\n  0x01\n  swap1\n  sub\n  swap1\n  0x00\n  mstore\n  keccak256(0x00, 0x20)\n  swap1\n  0x02\n  mul\n  add\n  0x00\n  swap1\n  swap2\n  swap1\n  swap2\n  swap1\n  swap2\n  pop\n  0x00\n  dup3\n  add\n  mload\n  dup2\n  0x00\n  add\n  sstore\n  0x20\n  dup3\n  add\n  mload\n  dup2\n  0x01\n  add\n  sstore\n  pop\n  pop\n    /* \"ballot_voting/ballotvoting.sol\":1760:1763  i++ */\n  dup1\n  dup1\n  tag_15\n  swap1\n  tag_16\n  jump\t// in\ntag_15:\n  swap2\n  pop\n  pop\n    /* \"ballot_voting/ballotvoting.sol\":1717:2071  for (uint i = 0; i < proposalNames.length; i++) {\r... */\n  jump(tag_8)\ntag_9:\n  pop\n    /* \"ballot_voting/ballotvoting.sol\":1474:2078  constructor(bytes32[] memory proposalNames,\r... */\n  pop\n  pop\n  pop\n    /* \"ballot_voting/ballotvoting.sol\":154:5955  contract Ballot {\r... */\n  jump(tag_17)\n    /* \"#utility.yul\":24:768   */\ntag_19:\n    /* \"#utility.yul\":131:136   */\n  0x00\n    /* \"#utility.yul\":156:237   */\n  tag_21\n    /* \"#utility.yul\":172:236   */\n  tag_22\n    /* \"#utility.yul\":229:235   */\n  dup5\n    /* \"#utility.yul\":172:236   */\n  tag_23\n  jump\t// in\ntag_22:\n    /* \"#utility.yul\":156:237   */\n  tag_24\n  jump\t// in\ntag_21:\n    /* \"#utility.yul\":147:237   */\n  swap1\n  pop\n    /* \"#utility.yul\":257:262   */\n  dup1\n    /* \"#utility.yul\":286:292   */\n  dup4\n    /* \"#utility.yul\":279:284   */\n  dup3\n    /* \"#utility.yul\":272:293   */\n  mstore\n    /* \"#utility.yul\":320:324   */\n  0x20\n    /* \"#utility.yul\":313:318   */\n  dup3\n    /* \"#utility.yul\":309:325   */\n  add\n    /* \"#utility.yul\":302:325   */\n  swap1\n  pop\n    /* \"#utility.yul\":346:352   */\n  dup3\n    /* \"#utility.yul\":396:399   */\n  dup6\n    /* \"#utility.yul\":388:392   */\n  0x20\n    /* \"#utility.yul\":380:386   */\n  dup7\n    /* \"#utility.yul\":376:393   */\n  mul\n    /* \"#utility.yul\":371:374   */\n  dup3\n    /* \"#utility.yul\":367:394   */\n  add\n    /* \"#utility.yul\":364:400   */\n  gt\n    /* \"#utility.yul\":361:504   */\n  iszero\n  tag_25\n  jumpi\n    /* \"#utility.yul\":415:494   */\n  tag_26\n  tag_27\n  jump\t// in\ntag_26:\n    /* \"#utility.yul\":361:504   */\ntag_25:\n    /* \"#utility.yul\":528:529   */\n  0x00\n    /* \"#utility.yul\":513:762   */\ntag_28:\n    /* \"#utility.yul\":538:544   */\n  dup6\n    /* \"#utility.yul\":535:536   */\n  dup2\n    /* \"#utility.yul\":532:545   */\n  lt\n    /* \"#utility.yul\":513:762   */\n  iszero\n  tag_30\n  jumpi\n    /* \"#utility.yul\":606:609   */\n  dup2\n    /* \"#utility.yul\":635:683   */\n  tag_31\n    /* \"#utility.yul\":679:682   */\n  dup9\n    /* \"#utility.yul\":667:677   */\n  dup3\n    /* \"#utility.yul\":635:683   */\n  tag_32\n  jump\t// in\ntag_31:\n    /* \"#utility.yul\":630:633   */\n  dup5\n    /* \"#utility.yul\":623:684   */\n  mstore\n    /* \"#utility.yul\":713:717   */\n  0x20\n    /* \"#utility.yul\":708:711   */\n  dup5\n    /* \"#utility.yul\":704:718   */\n  add\n    /* \"#utility.yul\":697:718   */\n  swap4\n  pop\n    /* \"#utility.yul\":747:751   */\n  0x20\n    /* \"#utility.yul\":742:745   */\n  dup4\n    /* \"#utility.yul\":738:752   */\n  add\n    /* \"#utility.yul\":731:752   */\n  swap3\n  pop\n    /* \"#utility.yul\":573:762   */\n  pop\n    /* \"#utility.yul\":560:561   */\n  0x01\n    /* \"#utility.yul\":557:558   */\n  dup2\n    /* \"#utility.yul\":553:562   */\n  add\n    /* \"#utility.yul\":548:562   */\n  swap1\n  pop\n    /* \"#utility.yul\":513:762   */\n  jump(tag_28)\ntag_30:\n    /* \"#utility.yul\":517:531   */\n  pop\n    /* \"#utility.yul\":137:768   */\n  pop\n  pop\n    /* \"#utility.yul\":24:768   */\n  swap4\n  swap3\n  pop\n  pop\n  pop\n  jump\t// out\n    /* \"#utility.yul\":791:1176   */\ntag_33:\n    /* \"#utility.yul\":873:878   */\n  0x00\n    /* \"#utility.yul\":922:925   */\n  dup3\n    /* \"#utility.yul\":915:919   */\n  0x1f\n    /* \"#utility.yul\":907:913   */\n  dup4\n    /* \"#utility.yul\":903:920   */\n  add\n    /* \"#utility.yul\":899:926   */\n  slt\n    /* \"#utility.yul\":889:1011   */\n  tag_35\n  jumpi\n    /* \"#utility.yul\":930:1009   */\n  tag_36\n  tag_37\n  jump\t// in\ntag_36:\n    /* \"#utility.yul\":889:1011   */\ntag_35:\n    /* \"#utility.yul\":1040:1046   */\n  dup2\n    /* \"#utility.yul\":1034:1047   */\n  mload\n    /* \"#utility.yul\":1065:1170   */\n  tag_38\n    /* \"#utility.yul\":1166:1169   */\n  dup5\n    /* \"#utility.yul\":1158:1164   */\n  dup3\n    /* \"#utility.yul\":1151:1155   */\n  0x20\n    /* \"#utility.yul\":1143:1149   */\n  dup7\n    /* \"#utility.yul\":1139:1156   */\n  add\n    /* \"#utility.yul\":1065:1170   */\n  tag_19\n  jump\t// in\ntag_38:\n    /* \"#utility.yul\":1056:1170   */\n  swap2\n  pop\n    /* \"#utility.yul\":879:1176   */\n  pop\n    /* \"#utility.yul\":791:1176   */\n  swap3\n  swap2\n  pop\n  pop\n  jump\t// out\n    /* \"#utility.yul\":1182:1325   */\ntag_32:\n    /* \"#utility.yul\":1239:1244   */\n  0x00\n    /* \"#utility.yul\":1270:1276   */\n  dup2\n    /* \"#utility.yul\":1264:1277   */\n  mload\n    /* \"#utility.yul\":1255:1277   */\n  swap1\n  pop\n    /* \"#utility.yul\":1286:1319   */\n  tag_40\n    /* \"#utility.yul\":1313:1318   */\n  dup2\n    /* \"#utility.yul\":1286:1319   */\n  tag_41\n  jump\t// in\ntag_40:\n    /* \"#utility.yul\":1182:1325   */\n  swap3\n  swap2\n  pop\n  pop\n  jump\t// out\n    /* \"#utility.yul\":1331:1474   */\ntag_42:\n    /* \"#utility.yul\":1388:1393   */\n  0x00\n    /* \"#utility.yul\":1419:1425   */\n  dup2\n    /* \"#utility.yul\":1413:1426   */\n  mload\n    /* \"#utility.yul\":1404:1426   */\n  swap1\n  pop\n    /* \"#utility.yul\":1435:1468   */\n  tag_44\n    /* \"#utility.yul\":1462:1467   */\n  dup2\n    /* \"#utility.yul\":1435:1468   */\n  tag_45\n  jump\t// in\ntag_44:\n    /* \"#utility.yul\":1331:1474   */\n  swap3\n  swap2\n  pop\n  pop\n  jump\t// out\n    /* \"#utility.yul\":1480:2346   */\ntag_3:\n    /* \"#utility.yul\":1593:1599   */\n  0x00\n    /* \"#utility.yul\":1601:1607   */\n  dup1\n    /* \"#utility.yul\":1609:1615   */\n  0x00\n    /* \"#utility.yul\":1658:1660   */\n  0x60\n    /* \"#utility.yul\":1646:1655   */\n  dup5\n    /* \"#utility.yul\":1637:1644   */\n  dup7\n    /* \"#utility.yul\":1633:1656   */\n  sub\n    /* \"#utility.yul\":1629:1661   */\n  slt\n    /* \"#utility.yul\":1626:1745   */\n  iszero\n  tag_47\n  jumpi\n    /* \"#utility.yul\":1664:1743   */\n  tag_48\n  tag_49\n  jump\t// in\ntag_48:\n    /* \"#utility.yul\":1626:1745   */\ntag_47:\n    /* \"#utility.yul\":1805:1806   */\n  0x00\n    /* \"#utility.yul\":1794:1803   */\n  dup5\n    /* \"#utility.yul\":1790:1807   */\n  add\n    /* \"#utility.yul\":1784:1808   */\n  mload\n    /* \"#utility.yul\":1835:1853   */\n  0xffffffffffffffff\n    /* \"#utility.yul\":1827:1833   */\n  dup2\n    /* \"#utility.yul\":1824:1854   */\n  gt\n    /* \"#utility.yul\":1821:1938   */\n  iszero\n  tag_50\n  jumpi\n    /* \"#utility.yul\":1857:1936   */\n  tag_51\n  tag_52\n  jump\t// in\ntag_51:\n    /* \"#utility.yul\":1821:1938   */\ntag_50:\n    /* \"#utility.yul\":1962:2051   */\n  tag_53\n    /* \"#utility.yul\":2043:2050   */\n  dup7\n    /* \"#utility.yul\":2034:2040   */\n  dup3\n    /* \"#utility.yul\":2023:2032   */\n  dup8\n    /* \"#utility.yul\":2019:2041   */\n  add\n    /* \"#utility.yul\":1962:2051   */\n  tag_33\n  jump\t// in\ntag_53:\n    /* \"#utility.yul\":1952:2051   */\n  swap4\n  pop\n    /* \"#utility.yul\":1755:2061   */\n  pop\n    /* \"#utility.yul\":2100:2102   */\n  0x20\n    /* \"#utility.yul\":2126:2190   */\n  tag_54\n    /* \"#utility.yul\":2182:2189   */\n  dup7\n    /* \"#utility.yul\":2173:2179   */\n  dup3\n    /* \"#utility.yul\":2162:2171   */\n  dup8\n    /* \"#utility.yul\":2158:2180   */\n  add\n    /* \"#utility.yul\":2126:2190   */\n  tag_42\n  jump\t// in\ntag_54:\n    /* \"#utility.yul\":2116:2190   */\n  swap3\n  pop\n    /* \"#utility.yul\":2071:2200   */\n  pop\n    /* \"#utility.yul\":2239:2241   */\n  0x40\n    /* \"#utility.yul\":2265:2329   */\n  tag_55\n    /* \"#utility.yul\":2321:2328   */\n  dup7\n    /* \"#utility.yul\":2312:2318   */\n  dup3\n    /* \"#utility.yul\":2301:2310   */\n  dup8\n    /* \"#utility.yul\":2297:2319   */\n  add\n    /* \"#utility.yul\":2265:2329   */\n  tag_42\n  jump\t// in\ntag_55:\n    /* \"#utility.yul\":2255:2329   */\n  swap2\n  pop\n    /* \"#utility.yul\":2210:2339   */\n  pop\n    /* \"#utility.yul\":1480:2346   */\n  swap3\n  pop\n  swap3\n  pop\n  swap3\n  jump\t// out\n    /* \"#utility.yul\":2352:2481   */\ntag_24:\n    /* \"#utility.yul\":2386:2392   */\n  0x00\n    /* \"#utility.yul\":2413:2433   */\n  tag_57\n  tag_58\n  jump\t// in\ntag_57:\n    /* \"#utility.yul\":2403:2433   */\n  swap1\n  pop\n    /* \"#utility.yul\":2442:2475   */\n  tag_59\n    /* \"#utility.yul\":2470:2474   */\n  dup3\n    /* \"#utility.yul\":2462:2468   */\n  dup3\n    /* \"#utility.yul\":2442:2475   */\n  tag_60\n  jump\t// in\ntag_59:\n    /* \"#utility.yul\":2352:2481   */\n  swap2\n  swap1\n  pop\n  jump\t// out\n    /* \"#utility.yul\":2487:2562   */\ntag_58:\n    /* \"#utility.yul\":2520:2526   */\n  0x00\n    /* \"#utility.yul\":2553:2555   */\n  0x40\n    /* \"#utility.yul\":2547:2556   */\n  mload\n    /* \"#utility.yul\":2537:2556   */\n  swap1\n  pop\n    /* \"#utility.yul\":2487:2562   */\n  swap1\n  jump\t// out\n    /* \"#utility.yul\":2568:2879   */\ntag_23:\n    /* \"#utility.yul\":2645:2649   */\n  0x00\n    /* \"#utility.yul\":2735:2753   */\n  0xffffffffffffffff\n    /* \"#utility.yul\":2727:2733   */\n  dup3\n    /* \"#utility.yul\":2724:2754   */\n  gt\n    /* \"#utility.yul\":2721:2777   */\n  iszero\n  tag_63\n  jumpi\n    /* \"#utility.yul\":2757:2775   */\n  tag_64\n  tag_65\n  jump\t// in\ntag_64:\n    /* \"#utility.yul\":2721:2777   */\ntag_63:\n    /* \"#utility.yul\":2807:2811   */\n  0x20\n    /* \"#utility.yul\":2799:2805   */\n  dup3\n    /* \"#utility.yul\":2795:2812   */\n  mul\n    /* \"#utility.yul\":2787:2812   */\n  swap1\n  pop\n    /* \"#utility.yul\":2867:2871   */\n  0x20\n    /* \"#utility.yul\":2861:2865   */\n  dup2\n    /* \"#utility.yul\":2857:2872   */\n  add\n    /* \"#utility.yul\":2849:2872   */\n  swap1\n  pop\n    /* \"#utility.yul\":2568:2879   */\n  swap2\n  swap1\n  pop\n  jump\t// out\n    /* \"#utility.yul\":2885:3190   */\ntag_7:\n    /* \"#utility.yul\":2925:2928   */\n  0x00\n    /* \"#utility.yul\":2944:2964   */\n  tag_67\n    /* \"#utility.yul\":2962:2963   */\n  dup3\n    /* \"#utility.yul\":2944:2964   */\n  tag_68\n  jump\t// in\ntag_67:\n    /* \"#utility.yul\":2939:2964   */\n  swap2\n  pop\n    /* \"#utility.yul\":2978:2998   */\n  tag_69\n    /* \"#utility.yul\":2996:2997   */\n  dup4\n    /* \"#utility.yul\":2978:2998   */\n  tag_68\n  jump\t// in\ntag_69:\n    /* \"#utility.yul\":2973:2998   */\n  swap3\n  pop\n    /* \"#utility.yul\":3132:3133   */\n  dup3\n    /* \"#utility.yul\":3064:3130   */\n  0xffffffffffffffffffffffffffffffffffffffffffffffffffffffffffffffff\n    /* \"#utility.yul\":3060:3134   */\n  sub\n    /* \"#utility.yul\":3057:3058   */\n  dup3\n    /* \"#utility.yul\":3054:3135   */\n  gt\n    /* \"#utility.yul\":3051:3158   */\n  iszero\n  tag_70\n  jumpi\n    /* \"#utility.yul\":3138:3156   */\n  tag_71\n  tag_72\n  jump\t// in\ntag_71:\n    /* \"#utility.yul\":3051:3158   */\ntag_70:\n    /* \"#utility.yul\":3182:3183   */\n  dup3\n    /* \"#utility.yul\":3179:3180   */\n  dup3\n    /* \"#utility.yul\":3175:3184   */\n  add\n    /* \"#utility.yul\":3168:3184   */\n  swap1\n  pop\n    /* \"#utility.yul\":2885:3190   */\n  swap3\n  swap2\n  pop\n  pop\n  jump\t// out\n    /* \"#utility.yul\":3196:3273   */\ntag_73:\n    /* \"#utility.yul\":3233:3240   */\n  0x00\n    /* \"#utility.yul\":3262:3267   */\n  dup2\n    /* \"#utility.yul\":3251:3267   */\n  swap1\n  pop\n    /* \"#utility.yul\":3196:3273   */\n  swap2\n  swap1\n  pop\n  jump\t// out\n    /* \"#utility.yul\":3279:3356   */\ntag_68:\n    /* \"#utility.yul\":3316:3323   */\n  0x00\n    /* \"#utility.yul\":3345:3350   */\n  dup2\n    /* \"#utility.yul\":3334:3350   */\n  swap1\n  pop\n    /* \"#utility.yul\":3279:3356   */\n  swap2\n  swap1\n  pop\n  jump\t// out\n    /* \"#utility.yul\":3362:3643   */\ntag_60:\n    /* \"#utility.yul\":3445:3472   */\n  tag_77\n    /* \"#utility.yul\":3467:3471   */\n  dup3\n    /* \"#utility.yul\":3445:3472   */\n  tag_78\n  jump\t// in\ntag_77:\n    /* \"#utility.yul\":3437:3443   */\n  dup2\n    /* \"#utility.yul\":3433:3473   */\n  add\n    /* \"#utility.yul\":3575:3581   */\n  dup2\n    /* \"#utility.yul\":3563:3573   */\n  dup2\n    /* \"#utility.yul\":3560:3582   */\n  lt\n    /* \"#utility.yul\":3539:3557   */\n  0xffffffffffffffff\n    /* \"#utility.yul\":3527:3537   */\n  dup3\n    /* \"#utility.yul\":3524:3558   */\n  gt\n    /* \"#utility.yul\":3521:3583   */\n  or\n    /* \"#utility.yul\":3518:3606   */\n  iszero\n  tag_79\n  jumpi\n    /* \"#utility.yul\":3586:3604   */\n  tag_80\n  tag_65\n  jump\t// in\ntag_80:\n    /* \"#utility.yul\":3518:3606   */\ntag_79:\n    /* \"#utility.yul\":3626:3636   */\n  dup1\n    /* \"#utility.yul\":3622:3624   */\n  0x40\n    /* \"#utility.yul\":3615:3637   */\n  mstore\n    /* \"#utility.yul\":3405:3643   */\n  pop\n    /* \"#utility.yul\":3362:3643   */\n  pop\n  pop\n  jump\t// out\n    /* \"#utility.yul\":3649:3882   */\ntag_16:\n    /* \"#utility.yul\":3688:3691   */\n  0x00\n    /* \"#utility.yul\":3711:3735   */\n  tag_82\n    /* \"#utility.yul\":3729:3734   */\n  dup3\n    /* \"#utility.yul\":3711:3735   */\n  tag_68\n  jump\t// in\ntag_82:\n    /* \"#utility.yul\":3702:3735   */\n  swap2\n  pop\n    /* \"#utility.yul\":3757:3823   */\n  0xffffffffffffffffffffffffffffffffffffffffffffffffffffffffffffffff\n    /* \"#utility.yul\":3750:3755   */\n  dup3\n    /* \"#utility.yul\":3747:3824   */\n  eq\n    /* \"#utility.yul\":3744:3847   */\n  iszero\n  tag_83\n  jumpi\n    /* \"#utility.yul\":3827:3845   */\n  tag_84\n  tag_72\n  jump\t// in\ntag_84:\n    /* \"#utility.yul\":3744:3847   */\ntag_83:\n    /* \"#utility.yul\":3874:3875   */\n  0x01\n    /* \"#utility.yul\":3867:3872   */\n  dup3\n    /* \"#utility.yul\":3863:3876   */\n  add\n    /* \"#utility.yul\":3856:3876   */\n  swap1\n  pop\n    /* \"#utility.yul\":3649:3882   */\n  swap2\n  swap1\n  pop\n  jump\t// out\n    /* \"#utility.yul\":3888:4068   */\ntag_72:\n    /* \"#utility.yul\":3936:4013   */\n  0x4e487b7100000000000000000000000000000000000000000000000000000000\n    /* \"#utility.yul\":3933:3934   */\n  0x00\n    /* \"#utility.yul\":3926:4014   */\n  mstore\n    /* \"#utility.yul\":4033:4037   */\n  0x11\n    /* \"#utility.yul\":4030:4031   */\n  0x04\n    /* \"#utility.yul\":4023:4038   */\n  mstore\n    /* \"#utility.yul\":4057:4061   */\n  0x24\n    /* \"#utility.yul\":4054:4055   */\n  0x00\n    /* \"#utility.yul\":4047:4062   */\n  revert\n    /* \"#utility.yul\":4074:4254   */\ntag_13:\n    /* \"#utility.yul\":4122:4199   */\n  0x4e487b7100000000000000000000000000000000000000000000000000000000\n    /* \"#utility.yul\":4119:4120   */\n  0x00\n    /* \"#utility.yul\":4112:4200   */\n  mstore\n    /* \"#utility.yul\":4219:4223   */\n  0x32\n    /* \"#utility.yul\":4216:4217   */\n  0x04\n    /* \"#utility.yul\":4209:4224   */\n  mstore\n    /* \"#utility.yul\":4243:4247   */\n  0x24\n    /* \"#utility.yul\":4240:4241   */\n  0x00\n    /* \"#utility.yul\":4233:4248   */\n  revert\n    /* \"#utility.yul\":4260:4440   */\ntag_65:\n    /* \"#utility.yul\":4308:4385   */\n  0x4e487b7100000000000000000000000000000000000000000000000000000000\n    /* \"#utility.yul\":4305:4306   */\n  0x00\n    /* \"#utility.yul\":4298:4386   */\n  mstore\n    /* \"#utility.yul\":4405:4409   */\n  0x41\n    /* \"#utility.yul\":4402:4403   */\n  0x04\n    /* \"#utility.yul\":4395:4410   */\n  mstore\n    /* \"#utility.yul\":4429:4433   */\n  0x24\n    /* \"#utility.yul\":4426:4427   */\n  0x00\n    /* \"#utility.yul\":4419:4434   */\n  revert\n    /* \"#utility.yul\":4446:4563   */\ntag_37:\n    /* \"#utility.yul\":4555:4556   */\n  0x00\n    /* \"#utility.yul\":4552:4553   */\n  dup1\n    /* \"#utility.yul\":4545:4557   */\n  revert\n    /* \"#utility.yul\":4569:4686   */\ntag_27:\n    /* \"#utility.yul\":4678:4679   */\n  0x00\n    /* \"#utility.yul\":4675:4676   */\n  dup1\n    /* \"#utility.yul\":4668:4680   */\n  revert\n    /* \"#utility.yul\":4692:4809   */\ntag_52:\n    /* \"#utility.yul\":4801:4802   */\n  0x00\n    /* \"#utility.yul\":4798:4799   */\n  dup1\n    /* \"#utility.yul\":4791:4803   */\n  revert\n    /* \"#utility.yul\":4815:4932   */\ntag_49:\n    /* \"#utility.yul\":4924:4925   */\n  0x00\n    /* \"#utility.yul\":4921:4922   */\n  dup1\n    /* \"#utility.yul\":4914:4926   */\n  revert\n    /* \"#utility.yul\":4938:5040   */\ntag_78:\n    /* \"#utility.yul\":4979:4985   */\n  0x00\n    /* \"#utility.yul\":5030:5032   */\n  0x1f\n    /* \"#utility.yul\":5026:5033   */\n  not\n    /* \"#utility.yul\":5021:5023   */\n  0x1f\n    /* \"#utility.yul\":5014:5019   */\n  dup4\n    /* \"#utility.yul\":5010:5024   */\n  add\n    /* \"#utility.yul\":5006:5034   */\n  and\n    /* \"#utility.yul\":4996:5034   */\n  swap1\n  pop\n    /* \"#utility.yul\":4938:5040   */\n  swap2\n  swap1\n  pop\n  jump\t// out\n    /* \"#utility.yul\":5046:5168   */\ntag_41:\n    /* \"#utility.yul\":5119:5143   */\n  tag_94\n    /* \"#utility.yul\":5137:5142   */\n  dup2\n    /* \"#utility.yul\":5119:5143   */\n  tag_73\n  jump\t// in\ntag_94:\n    /* \"#utility.yul\":5112:5117   */\n  dup2\n    /* \"#utility.yul\":5109:5144   */\n  eq\n    /* \"#utility.yul\":5099:5162   */\n  tag_95\n  jumpi\n    /* \"#utility.yul\":5158:5159   */\n  0x00\n    /* \"#utility.yul\":5155:5156   */\n  dup1\n    /* \"#utility.yul\":5148:5160   */\n  revert\n    /* \"#utility.yul\":5099:5162   */\ntag_95:\n    /* \"#utility.yul\":5046:5168   */\n  pop\n  jump\t// out\n    /* \"#utility.yul\":5174:5296   */\ntag_45:\n    /* \"#utility.yul\":5247:5271   */\n  tag_97\n    /* \"#utility.yul\":5265:5270   */\n  dup2\n    /* \"#utility.yul\":5247:5271   */\n  tag_68\n  jump\t// in\ntag_97:\n    /* \"#utility.yul\":5240:5245   */\n  dup2\n    /* \"#utility.yul\":5237:5272   */\n  eq\n    /* \"#utility.yul\":5227:5290   */\n  tag_98\n  jumpi\n    /* \"#utility.yul\":5286:5287   */\n  0x00\n    /* \"#utility.yul\":5283:5284   */\n  dup1\n    /* \"#utility.yul\":5276:5288   */\n  revert\n    /* \"#utility.yul\":5227:5290   */\ntag_98:\n    /* \"#utility.yul\":5174:5296   */\n  pop\n  jump\t// out\n    /* \"ballot_voting/ballotvoting.sol\":154:5955  contract Ballot {\r... */\ntag_17:\n  dataSize(sub_0)\n  dup1\n  dataOffset(sub_0)\n  0x00\n  codecopy\n  0x00\n  return\nstop\n\nsub_0: assembly {\n        /* \"ballot_voting/ballotvoting.sol\":154:5955  contract Ballot {\r... */\n      mstore(0x40, 0x80)\n      callvalue\n      dup1\n      iszero\n      tag_1\n      jumpi\n      0x00\n      dup1\n      revert\n    tag_1:\n      pop\n      jumpi(tag_2, lt(calldatasize, 0x04))\n      shr(0xe0, calldataload(0x00))\n      dup1\n      0x609ff1bd\n      gt\n      tag_13\n      jumpi\n      dup1\n      0x609ff1bd\n      eq\n      tag_8\n      jumpi\n      dup1\n      0x78e97925\n      eq\n      tag_9\n      jumpi\n      dup1\n      0x9e7b8d61\n      eq\n      tag_10\n      jumpi\n      dup1\n      0xa3ec138d\n      eq\n      tag_11\n      jumpi\n      dup1\n      0xe2ba53f0\n      eq\n      tag_12\n      jumpi\n      jump(tag_2)\n    tag_13:\n      dup1\n      0x0121b93f\n      eq\n      tag_3\n      jumpi\n      dup1\n      0x013cf08b\n      eq\n      tag_4\n      jumpi\n      dup1\n      0x2e4176cf\n      eq\n      tag_5\n      jumpi\n      dup1\n      0x3197cbb6\n      eq\n      tag_6\n      jumpi\n      dup1\n      0x5c19a95c\n      eq\n      tag_7\n      jumpi\n    tag_2:\n      0x00\n      dup1\n      revert\n        /* \"ballot_voting/ballotvoting.sol\":4452:5040  function vote(uint proposal) public voteBeforeStart(startTime) voteAfterEnded(endTime) {\r... */\n    tag_3:\n      tag_14\n      0x04\n      dup1\n      calldatasize\n      sub\n      dup2\n      add\n      swap1\n      tag_15\n      swap2\n      swap1\n      tag_16\n      jump\t// in\n    tag_15:\n      tag_17\n      jump\t// in\n    tag_14:\n      stop\n        /* \"ballot_voting/ballotvoting.sol\":1304:1331  Proposal[] public proposals */\n    tag_4:\n      tag_18\n      0x04\n      dup1\n      calldatasize\n      sub\n      dup2\n      add\n      swap1\n      tag_19\n      swap2\n      swap1\n      tag_16\n      jump\t// in\n    tag_19:\n      tag_20\n      jump\t// in\n    tag_18:\n      mload(0x40)\n      tag_21\n      swap3\n      swap2\n      swap1\n      tag_22\n      jump\t// in\n    tag_21:\n      mload(0x40)\n      dup1\n      swap2\n      sub\n      swap1\n      return\n        /* \"ballot_voting/ballotvoting.sol\":793:819  address public chairperson */\n    tag_5:\n      tag_23\n      tag_24\n      jump\t// in\n    tag_23:\n      mload(0x40)\n      tag_25\n      swap2\n      swap1\n      tag_26\n      jump\t// in\n    tag_25:\n      mload(0x40)\n      dup1\n      swap2\n      sub\n      swap1\n      return\n        /* \"ballot_voting/ballotvoting.sol\":762:784  uint256 public endTime */\n    tag_6:\n      tag_27\n      tag_28\n      jump\t// in\n    tag_27:\n      mload(0x40)\n      tag_29\n      swap2\n      swap1\n      tag_30\n      jump\t// in\n    tag_29:\n      mload(0x40)\n      dup1\n      swap2\n      sub\n      swap1\n      return\n        /* \"ballot_voting/ballotvoting.sol\":2736:3666  function delegate(address to) public {\r... */\n    tag_7:\n      tag_31\n      0x04\n      dup1\n      calldatasize\n      sub\n      dup2\n      add\n      swap1\n      tag_32\n      swap2\n      swap1\n      tag_33\n      jump\t// in\n    tag_32:\n      tag_34\n      jump\t// in\n    tag_31:\n      stop\n        /* \"ballot_voting/ballotvoting.sol\":5232:5607  function winningProposal() public view\r... */\n    tag_8:\n      tag_35\n      tag_36\n      jump\t// in\n    tag_35:\n      mload(0x40)\n      tag_37\n      swap2\n      swap1\n      tag_30\n      jump\t// in\n    tag_37:\n      mload(0x40)\n      dup1\n      swap2\n      sub\n      swap1\n      return\n        /* \"ballot_voting/ballotvoting.sol\":731:755  uint256 public startTime */\n    tag_9:\n      tag_38\n      tag_39\n      jump\t// in\n    tag_38:\n      mload(0x40)\n      tag_40\n      swap2\n      swap1\n      tag_30\n      jump\t// in\n    tag_40:\n      mload(0x40)\n      dup1\n      swap2\n      sub\n      swap1\n      return\n        /* \"ballot_voting/ballotvoting.sol\":2240:2606  function giveRightToVote(address voter) public {\r... */\n    tag_10:\n      tag_41\n      0x04\n      dup1\n      calldatasize\n      sub\n      dup2\n      add\n      swap1\n      tag_42\n      swap2\n      swap1\n      tag_33\n      jump\t// in\n    tag_42:\n      tag_43\n      jump\t// in\n    tag_41:\n      stop\n        /* \"ballot_voting/ballotvoting.sol\":828:867  mapping(address => Voter) public voters */\n    tag_11:\n      tag_44\n      0x04\n      dup1\n      calldatasize\n      sub\n      dup2\n      add\n      swap1\n      tag_45\n      swap2\n      swap1\n      tag_33\n      jump\t// in\n    tag_45:\n      tag_46\n      jump\t// in\n    tag_44:\n      mload(0x40)\n      tag_47\n      swap5\n      swap4\n      swap3\n      swap2\n      swap1\n      tag_48\n      jump\t// in\n    tag_47:\n      mload(0x40)\n      dup1\n      swap2\n      sub\n      swap1\n      return\n        /* \"ballot_voting/ballotvoting.sol\":5804:5952  function winnerName() public view\r... */\n    tag_12:\n      tag_49\n      tag_50\n      jump\t// in\n    tag_49:\n      mload(0x40)\n      tag_51\n      swap2\n      swap1\n      tag_52\n      jump\t// in\n    tag_51:\n      mload(0x40)\n      dup1\n      swap2\n      sub\n      swap1\n      return\n        /* \"ballot_voting/ballotvoting.sol\":4452:5040  function vote(uint proposal) public voteBeforeStart(startTime) voteAfterEnded(endTime) {\r... */\n    tag_17:\n        /* \"ballot_voting/ballotvoting.sol\":4504:4513  startTime */\n      sload(0x00)\n        /* \"ballot_voting/ballotvoting.sol\":3894:3898  time */\n      dup1\n        /* \"ballot_voting/ballotvoting.sol\":3875:3890  block.timestamp */\n      timestamp\n        /* \"ballot_voting/ballotvoting.sol\":3875:3898  block.timestamp <= time */\n      gt\n        /* \"ballot_voting/ballotvoting.sol\":3871:3928  if( block.timestamp <= time ) revert voteNotStarted(time) */\n      tag_54\n      jumpi\n        /* \"ballot_voting/ballotvoting.sol\":3923:3927  time */\n      dup1\n        /* \"ballot_voting/ballotvoting.sol\":3908:3928  voteNotStarted(time) */\n      mload(0x40)\n      0x2de40e5500000000000000000000000000000000000000000000000000000000\n      dup2\n      mstore\n      0x04\n      add\n      tag_55\n      swap2\n      swap1\n      tag_30\n      jump\t// in\n    tag_55:\n      mload(0x40)\n      dup1\n      swap2\n      sub\n      swap1\n      revert\n        /* \"ballot_voting/ballotvoting.sol\":3871:3928  if( block.timestamp <= time ) revert voteNotStarted(time) */\n    tag_54:\n        /* \"ballot_voting/ballotvoting.sol\":4530:4537  endTime */\n      sload(0x01)\n        /* \"ballot_voting/ballotvoting.sol\":3749:3753  time */\n      dup1\n        /* \"ballot_voting/ballotvoting.sol\":3730:3745  block.timestamp */\n      timestamp\n        /* \"ballot_voting/ballotvoting.sol\":3730:3753  block.timestamp >= time */\n      lt\n        /* \"ballot_voting/ballotvoting.sol\":3726:3778  if( block.timestamp >= time ) revert voteEnded(time) */\n      tag_57\n      jumpi\n        /* \"ballot_voting/ballotvoting.sol\":3773:3777  time */\n      dup1\n        /* \"ballot_voting/ballotvoting.sol\":3763:3778  voteEnded(time) */\n      mload(0x40)\n      0xb43a401d00000000000000000000000000000000000000000000000000000000\n      dup2\n      mstore\n      0x04\n      add\n      tag_58\n      swap2\n      swap1\n      tag_30\n      jump\t// in\n    tag_58:\n      mload(0x40)\n      dup1\n      swap2\n      sub\n      swap1\n      revert\n        /* \"ballot_voting/ballotvoting.sol\":3726:3778  if( block.timestamp >= time ) revert voteEnded(time) */\n    tag_57:\n        /* \"ballot_voting/ballotvoting.sol\":4550:4570  Voter storage sender */\n      0x00\n        /* \"ballot_voting/ballotvoting.sol\":4573:4579  voters */\n      0x03\n        /* \"ballot_voting/ballotvoting.sol\":4573:4591  voters[msg.sender] */\n      0x00\n        /* \"ballot_voting/ballotvoting.sol\":4580:4590  msg.sender */\n      caller\n        /* \"ballot_voting/ballotvoting.sol\":4573:4591  voters[msg.sender] */\n      0xffffffffffffffffffffffffffffffffffffffff\n      and\n      0xffffffffffffffffffffffffffffffffffffffff\n      and\n      dup2\n      mstore\n      0x20\n      add\n      swap1\n      dup2\n      mstore\n      0x20\n      add\n      0x00\n      keccak256\n        /* \"ballot_voting/ballotvoting.sol\":4550:4591  Voter storage sender = voters[msg.sender] */\n      swap1\n      pop\n        /* \"ballot_voting/ballotvoting.sol\":4627:4628  0 */\n      0x00\n        /* \"ballot_voting/ballotvoting.sol\":4610:4616  sender */\n      dup2\n        /* \"ballot_voting/ballotvoting.sol\":4610:4623  sender.weight */\n      0x00\n      add\n      sload\n        /* \"ballot_voting/ballotvoting.sol\":4610:4628  sender.weight != 0 */\n      eq\n      iszero\n        /* \"ballot_voting/ballotvoting.sol\":4602:4653  require(sender.weight != 0, \"Has no right to vote\") */\n      tag_60\n      jumpi\n      mload(0x40)\n      0x08c379a000000000000000000000000000000000000000000000000000000000\n      dup2\n      mstore\n      0x04\n      add\n      tag_61\n      swap1\n      tag_62\n      jump\t// in\n    tag_61:\n      mload(0x40)\n      dup1\n      swap2\n      sub\n      swap1\n      revert\n    tag_60:\n        /* \"ballot_voting/ballotvoting.sol\":4673:4679  sender */\n      dup1\n        /* \"ballot_voting/ballotvoting.sol\":4673:4685  sender.voted */\n      0x01\n      add\n      0x00\n      swap1\n      sload\n      swap1\n      0x0100\n      exp\n      swap1\n      div\n      0xff\n      and\n        /* \"ballot_voting/ballotvoting.sol\":4672:4685  !sender.voted */\n      iszero\n        /* \"ballot_voting/ballotvoting.sol\":4664:4704  require(!sender.voted, \"Already voted.\") */\n      tag_63\n      jumpi\n      mload(0x40)\n      0x08c379a000000000000000000000000000000000000000000000000000000000\n      dup2\n      mstore\n      0x04\n      add\n      tag_64\n      swap1\n      tag_65\n      jump\t// in\n    tag_64:\n      mload(0x40)\n      dup1\n      swap2\n      sub\n      swap1\n      revert\n    tag_63:\n        /* \"ballot_voting/ballotvoting.sol\":4730:4734  true */\n      0x01\n        /* \"ballot_voting/ballotvoting.sol\":4715:4721  sender */\n      dup2\n        /* \"ballot_voting/ballotvoting.sol\":4715:4727  sender.voted */\n      0x01\n      add\n      0x00\n        /* \"ballot_voting/ballotvoting.sol\":4715:4734  sender.voted = true */\n      0x0100\n      exp\n      dup2\n      sload\n      dup2\n      0xff\n      mul\n      not\n      and\n      swap1\n      dup4\n      iszero\n      iszero\n      mul\n      or\n      swap1\n      sstore\n      pop\n        /* \"ballot_voting/ballotvoting.sol\":4799:4807  proposal */\n      dup4\n        /* \"ballot_voting/ballotvoting.sol\":4785:4791  sender */\n      dup2\n        /* \"ballot_voting/ballotvoting.sol\":4785:4796  sender.vote */\n      0x02\n      add\n        /* \"ballot_voting/ballotvoting.sol\":4785:4807  sender.vote = proposal */\n      dup2\n      swap1\n      sstore\n      pop\n        /* \"ballot_voting/ballotvoting.sol\":5019:5025  sender */\n      dup1\n        /* \"ballot_voting/ballotvoting.sol\":5019:5032  sender.weight */\n      0x00\n      add\n      sload\n        /* \"ballot_voting/ballotvoting.sol\":4986:4995  proposals */\n      0x04\n        /* \"ballot_voting/ballotvoting.sol\":4996:5004  proposal */\n      dup6\n        /* \"ballot_voting/ballotvoting.sol\":4986:5005  proposals[proposal] */\n      dup2\n      sload\n      dup2\n      lt\n      tag_66\n      jumpi\n      tag_67\n      tag_68\n      jump\t// in\n    tag_67:\n    tag_66:\n      swap1\n      0x00\n      mstore\n      keccak256(0x00, 0x20)\n      swap1\n      0x02\n      mul\n      add\n        /* \"ballot_voting/ballotvoting.sol\":4986:5015  proposals[proposal].voteCount */\n      0x01\n      add\n      0x00\n        /* \"ballot_voting/ballotvoting.sol\":4986:5032  proposals[proposal].voteCount += sender.weight */\n      dup3\n      dup3\n      sload\n      tag_70\n      swap2\n      swap1\n      tag_71\n      jump\t// in\n    tag_70:\n      swap3\n      pop\n      pop\n      dup2\n      swap1\n      sstore\n      pop\n        /* \"ballot_voting/ballotvoting.sol\":4539:5040  {\r... */\n      pop\n        /* \"ballot_voting/ballotvoting.sol\":3943:3944  _ */\n      pop\n        /* \"ballot_voting/ballotvoting.sol\":4452:5040  function vote(uint proposal) public voteBeforeStart(startTime) voteAfterEnded(endTime) {\r... */\n      pop\n      pop\n      jump\t// out\n        /* \"ballot_voting/ballotvoting.sol\":1304:1331  Proposal[] public proposals */\n    tag_20:\n      0x04\n      dup2\n      dup2\n      sload\n      dup2\n      lt\n      tag_72\n      jumpi\n      0x00\n      dup1\n      revert\n    tag_72:\n      swap1\n      0x00\n      mstore\n      keccak256(0x00, 0x20)\n      swap1\n      0x02\n      mul\n      add\n      0x00\n      swap2\n      pop\n      swap1\n      pop\n      dup1\n      0x00\n      add\n      sload\n      swap1\n      dup1\n      0x01\n      add\n      sload\n      swap1\n      pop\n      dup3\n      jump\t// out\n        /* \"ballot_voting/ballotvoting.sol\":793:819  address public chairperson */\n    tag_24:\n      0x02\n      0x00\n      swap1\n      sload\n      swap1\n      0x0100\n      exp\n      swap1\n      div\n      0xffffffffffffffffffffffffffffffffffffffff\n      and\n      dup2\n      jump\t// out\n        /* \"ballot_voting/ballotvoting.sol\":762:784  uint256 public endTime */\n    tag_28:\n      sload(0x01)\n      dup2\n      jump\t// out\n        /* \"ballot_voting/ballotvoting.sol\":2736:3666  function delegate(address to) public {\r... */\n    tag_34:\n        /* \"ballot_voting/ballotvoting.sol\":2784:2804  Voter storage sender */\n      0x00\n        /* \"ballot_voting/ballotvoting.sol\":2807:2813  voters */\n      0x03\n        /* \"ballot_voting/ballotvoting.sol\":2807:2825  voters[msg.sender] */\n      0x00\n        /* \"ballot_voting/ballotvoting.sol\":2814:2824  msg.sender */\n      caller\n        /* \"ballot_voting/ballotvoting.sol\":2807:2825  voters[msg.sender] */\n      0xffffffffffffffffffffffffffffffffffffffff\n      and\n      0xffffffffffffffffffffffffffffffffffffffff\n      and\n      dup2\n      mstore\n      0x20\n      add\n      swap1\n      dup2\n      mstore\n      0x20\n      add\n      0x00\n      keccak256\n        /* \"ballot_voting/ballotvoting.sol\":2784:2825  Voter storage sender = voters[msg.sender] */\n      swap1\n      pop\n        /* \"ballot_voting/ballotvoting.sol\":2845:2851  sender */\n      dup1\n        /* \"ballot_voting/ballotvoting.sol\":2845:2857  sender.voted */\n      0x01\n      add\n      0x00\n      swap1\n      sload\n      swap1\n      0x0100\n      exp\n      swap1\n      div\n      0xff\n      and\n        /* \"ballot_voting/ballotvoting.sol\":2844:2857  !sender.voted */\n      iszero\n        /* \"ballot_voting/ballotvoting.sol\":2836:2880  require(!sender.voted, \"You already voted.\") */\n      tag_75\n      jumpi\n      mload(0x40)\n      0x08c379a000000000000000000000000000000000000000000000000000000000\n      dup2\n      mstore\n      0x04\n      add\n      tag_76\n      swap1\n      tag_77\n      jump\t// in\n    tag_76:\n      mload(0x40)\n      dup1\n      swap2\n      sub\n      swap1\n      revert\n    tag_75:\n        /* \"ballot_voting/ballotvoting.sol\":2905:2915  msg.sender */\n      caller\n        /* \"ballot_voting/ballotvoting.sol\":2899:2915  to != msg.sender */\n      0xffffffffffffffffffffffffffffffffffffffff\n      and\n        /* \"ballot_voting/ballotvoting.sol\":2899:2901  to */\n      dup3\n        /* \"ballot_voting/ballotvoting.sol\":2899:2915  to != msg.sender */\n      0xffffffffffffffffffffffffffffffffffffffff\n      and\n      eq\n      iszero\n        /* \"ballot_voting/ballotvoting.sol\":2891:2950  require(to != msg.sender, \"Self-delegation is disallowed.\") */\n      tag_78\n      jumpi\n      mload(0x40)\n      0x08c379a000000000000000000000000000000000000000000000000000000000\n      dup2\n      mstore\n      0x04\n      add\n      tag_79\n      swap1\n      tag_80\n      jump\t// in\n    tag_79:\n      mload(0x40)\n      dup1\n      swap2\n      sub\n      swap1\n      revert\n    tag_78:\n        /* \"ballot_voting/ballotvoting.sol\":2963:3191  while (voters[to].delegate != address(0)) {\r... */\n    tag_81:\n        /* \"ballot_voting/ballotvoting.sol\":3001:3002  0 */\n      0x00\n        /* \"ballot_voting/ballotvoting.sol\":2970:3003  voters[to].delegate != address(0) */\n      0xffffffffffffffffffffffffffffffffffffffff\n      and\n        /* \"ballot_voting/ballotvoting.sol\":2970:2976  voters */\n      0x03\n        /* \"ballot_voting/ballotvoting.sol\":2970:2980  voters[to] */\n      0x00\n        /* \"ballot_voting/ballotvoting.sol\":2977:2979  to */\n      dup5\n        /* \"ballot_voting/ballotvoting.sol\":2970:2980  voters[to] */\n      0xffffffffffffffffffffffffffffffffffffffff\n      and\n      0xffffffffffffffffffffffffffffffffffffffff\n      and\n      dup2\n      mstore\n      0x20\n      add\n      swap1\n      dup2\n      mstore\n      0x20\n      add\n      0x00\n      keccak256\n        /* \"ballot_voting/ballotvoting.sol\":2970:2989  voters[to].delegate */\n      0x01\n      add\n      0x01\n      swap1\n      sload\n      swap1\n      0x0100\n      exp\n      swap1\n      div\n      0xffffffffffffffffffffffffffffffffffffffff\n      and\n        /* \"ballot_voting/ballotvoting.sol\":2970:3003  voters[to].delegate != address(0) */\n      0xffffffffffffffffffffffffffffffffffffffff\n      and\n      eq\n        /* \"ballot_voting/ballotvoting.sol\":2963:3191  while (voters[to].delegate != address(0)) {\r... */\n      tag_82\n      jumpi\n        /* \"ballot_voting/ballotvoting.sol\":3025:3031  voters */\n      0x03\n        /* \"ballot_voting/ballotvoting.sol\":3025:3035  voters[to] */\n      0x00\n        /* \"ballot_voting/ballotvoting.sol\":3032:3034  to */\n      dup4\n        /* \"ballot_voting/ballotvoting.sol\":3025:3035  voters[to] */\n      0xffffffffffffffffffffffffffffffffffffffff\n      and\n      0xffffffffffffffffffffffffffffffffffffffff\n      and\n      dup2\n      mstore\n      0x20\n      add\n      swap1\n      dup2\n      mstore\n      0x20\n      add\n      0x00\n      keccak256\n        /* \"ballot_voting/ballotvoting.sol\":3025:3044  voters[to].delegate */\n      0x01\n      add\n      0x01\n      swap1\n      sload\n      swap1\n      0x0100\n      exp\n      swap1\n      div\n      0xffffffffffffffffffffffffffffffffffffffff\n      and\n        /* \"ballot_voting/ballotvoting.sol\":3020:3044  to = voters[to].delegate */\n      swap2\n      pop\n        /* \"ballot_voting/ballotvoting.sol\":3139:3149  msg.sender */\n      caller\n        /* \"ballot_voting/ballotvoting.sol\":3133:3149  to != msg.sender */\n      0xffffffffffffffffffffffffffffffffffffffff\n      and\n        /* \"ballot_voting/ballotvoting.sol\":3133:3135  to */\n      dup3\n        /* \"ballot_voting/ballotvoting.sol\":3133:3149  to != msg.sender */\n      0xffffffffffffffffffffffffffffffffffffffff\n      and\n      eq\n      iszero\n        /* \"ballot_voting/ballotvoting.sol\":3125:3179  require(to != msg.sender, \"Found loop in delegation.\") */\n      tag_83\n      jumpi\n      mload(0x40)\n      0x08c379a000000000000000000000000000000000000000000000000000000000\n      dup2\n      mstore\n      0x04\n      add\n      tag_84\n      swap1\n      tag_85\n      jump\t// in\n    tag_84:\n      mload(0x40)\n      dup1\n      swap2\n      sub\n      swap1\n      revert\n    tag_83:\n        /* \"ballot_voting/ballotvoting.sol\":2963:3191  while (voters[to].delegate != address(0)) {\r... */\n      jump(tag_81)\n    tag_82:\n        /* \"ballot_voting/ballotvoting.sol\":3216:3220  true */\n      0x01\n        /* \"ballot_voting/ballotvoting.sol\":3201:3207  sender */\n      dup2\n        /* \"ballot_voting/ballotvoting.sol\":3201:3213  sender.voted */\n      0x01\n      add\n      0x00\n        /* \"ballot_voting/ballotvoting.sol\":3201:3220  sender.voted = true */\n      0x0100\n      exp\n      dup2\n      sload\n      dup2\n      0xff\n      mul\n      not\n      and\n      swap1\n      dup4\n      iszero\n      iszero\n      mul\n      or\n      swap1\n      sstore\n      pop\n        /* \"ballot_voting/ballotvoting.sol\":3249:3251  to */\n      dup2\n        /* \"ballot_voting/ballotvoting.sol\":3231:3237  sender */\n      dup2\n        /* \"ballot_voting/ballotvoting.sol\":3231:3246  sender.delegate */\n      0x01\n      add\n      0x01\n        /* \"ballot_voting/ballotvoting.sol\":3231:3251  sender.delegate = to */\n      0x0100\n      exp\n      dup2\n      sload\n      dup2\n      0xffffffffffffffffffffffffffffffffffffffff\n      mul\n      not\n      and\n      swap1\n      dup4\n      0xffffffffffffffffffffffffffffffffffffffff\n      and\n      mul\n      or\n      swap1\n      sstore\n      pop\n        /* \"ballot_voting/ballotvoting.sol\":3262:3285  Voter storage delegate_ */\n      0x00\n        /* \"ballot_voting/ballotvoting.sol\":3288:3294  voters */\n      0x03\n        /* \"ballot_voting/ballotvoting.sol\":3288:3298  voters[to] */\n      0x00\n        /* \"ballot_voting/ballotvoting.sol\":3295:3297  to */\n      dup5\n        /* \"ballot_voting/ballotvoting.sol\":3288:3298  voters[to] */\n      0xffffffffffffffffffffffffffffffffffffffff\n      and\n      0xffffffffffffffffffffffffffffffffffffffff\n      and\n      dup2\n      mstore\n      0x20\n      add\n      swap1\n      dup2\n      mstore\n      0x20\n      add\n      0x00\n      keccak256\n        /* \"ballot_voting/ballotvoting.sol\":3262:3298  Voter storage delegate_ = voters[to] */\n      swap1\n      pop\n        /* \"ballot_voting/ballotvoting.sol\":3313:3322  delegate_ */\n      dup1\n        /* \"ballot_voting/ballotvoting.sol\":3313:3328  delegate_.voted */\n      0x01\n      add\n      0x00\n      swap1\n      sload\n      swap1\n      0x0100\n      exp\n      swap1\n      div\n      0xff\n      and\n        /* \"ballot_voting/ballotvoting.sol\":3309:3659  if (delegate_.voted) {\r... */\n      iszero\n      tag_86\n      jumpi\n        /* \"ballot_voting/ballotvoting.sol\":3483:3489  sender */\n      dup2\n        /* \"ballot_voting/ballotvoting.sol\":3483:3496  sender.weight */\n      0x00\n      add\n      sload\n        /* \"ballot_voting/ballotvoting.sol\":3444:3453  proposals */\n      0x04\n        /* \"ballot_voting/ballotvoting.sol\":3454:3463  delegate_ */\n      dup3\n        /* \"ballot_voting/ballotvoting.sol\":3454:3468  delegate_.vote */\n      0x02\n      add\n      sload\n        /* \"ballot_voting/ballotvoting.sol\":3444:3469  proposals[delegate_.vote] */\n      dup2\n      sload\n      dup2\n      lt\n      tag_87\n      jumpi\n      tag_88\n      tag_68\n      jump\t// in\n    tag_88:\n    tag_87:\n      swap1\n      0x00\n      mstore\n      keccak256(0x00, 0x20)\n      swap1\n      0x02\n      mul\n      add\n        /* \"ballot_voting/ballotvoting.sol\":3444:3479  proposals[delegate_.vote].voteCount */\n      0x01\n      add\n      0x00\n        /* \"ballot_voting/ballotvoting.sol\":3444:3496  proposals[delegate_.vote].voteCount += sender.weight */\n      dup3\n      dup3\n      sload\n      tag_90\n      swap2\n      swap1\n      tag_71\n      jump\t// in\n    tag_90:\n      swap3\n      pop\n      pop\n      dup2\n      swap1\n      sstore\n      pop\n        /* \"ballot_voting/ballotvoting.sol\":3309:3659  if (delegate_.voted) {\r... */\n      jump(tag_91)\n    tag_86:\n        /* \"ballot_voting/ballotvoting.sol\":3634:3640  sender */\n      dup2\n        /* \"ballot_voting/ballotvoting.sol\":3634:3647  sender.weight */\n      0x00\n      add\n      sload\n        /* \"ballot_voting/ballotvoting.sol\":3614:3623  delegate_ */\n      dup2\n        /* \"ballot_voting/ballotvoting.sol\":3614:3630  delegate_.weight */\n      0x00\n      add\n      0x00\n        /* \"ballot_voting/ballotvoting.sol\":3614:3647  delegate_.weight += sender.weight */\n      dup3\n      dup3\n      sload\n      tag_92\n      swap2\n      swap1\n      tag_71\n      jump\t// in\n    tag_92:\n      swap3\n      pop\n      pop\n      dup2\n      swap1\n      sstore\n      pop\n        /* \"ballot_voting/ballotvoting.sol\":3309:3659  if (delegate_.voted) {\r... */\n    tag_91:\n        /* \"ballot_voting/ballotvoting.sol\":2773:3666  {\r... */\n      pop\n      pop\n        /* \"ballot_voting/ballotvoting.sol\":2736:3666  function delegate(address to) public {\r... */\n      pop\n      jump\t// out\n        /* \"ballot_voting/ballotvoting.sol\":5232:5607  function winningProposal() public view\r... */\n    tag_36:\n        /* \"ballot_voting/ballotvoting.sol\":5293:5314  uint winningProposal_ */\n      0x00\n        /* \"ballot_voting/ballotvoting.sol\":5332:5353  uint winningVoteCount */\n      dup1\n        /* \"ballot_voting/ballotvoting.sol\":5356:5357  0 */\n      0x00\n        /* \"ballot_voting/ballotvoting.sol\":5332:5357  uint winningVoteCount = 0 */\n      swap1\n      pop\n        /* \"ballot_voting/ballotvoting.sol\":5373:5379  uint p */\n      0x00\n        /* \"ballot_voting/ballotvoting.sol\":5368:5600  for (uint p = 0; p < proposals.length; p++) {\r... */\n    tag_94:\n        /* \"ballot_voting/ballotvoting.sol\":5389:5398  proposals */\n      0x04\n        /* \"ballot_voting/ballotvoting.sol\":5389:5405  proposals.length */\n      dup1\n      sload\n      swap1\n      pop\n        /* \"ballot_voting/ballotvoting.sol\":5385:5386  p */\n      dup2\n        /* \"ballot_voting/ballotvoting.sol\":5385:5405  p < proposals.length */\n      lt\n        /* \"ballot_voting/ballotvoting.sol\":5368:5600  for (uint p = 0; p < proposals.length; p++) {\r... */\n      iszero\n      tag_95\n      jumpi\n        /* \"ballot_voting/ballotvoting.sol\":5456:5472  winningVoteCount */\n      dup2\n        /* \"ballot_voting/ballotvoting.sol\":5431:5440  proposals */\n      0x04\n        /* \"ballot_voting/ballotvoting.sol\":5441:5442  p */\n      dup3\n        /* \"ballot_voting/ballotvoting.sol\":5431:5443  proposals[p] */\n      dup2\n      sload\n      dup2\n      lt\n      tag_97\n      jumpi\n      tag_98\n      tag_68\n      jump\t// in\n    tag_98:\n    tag_97:\n      swap1\n      0x00\n      mstore\n      keccak256(0x00, 0x20)\n      swap1\n      0x02\n      mul\n      add\n        /* \"ballot_voting/ballotvoting.sol\":5431:5453  proposals[p].voteCount */\n      0x01\n      add\n      sload\n        /* \"ballot_voting/ballotvoting.sol\":5431:5472  proposals[p].voteCount > winningVoteCount */\n      gt\n        /* \"ballot_voting/ballotvoting.sol\":5427:5589  if (proposals[p].voteCount > winningVoteCount) {\r... */\n      iszero\n      tag_100\n      jumpi\n        /* \"ballot_voting/ballotvoting.sol\":5512:5521  proposals */\n      0x04\n        /* \"ballot_voting/ballotvoting.sol\":5522:5523  p */\n      dup2\n        /* \"ballot_voting/ballotvoting.sol\":5512:5524  proposals[p] */\n      dup2\n      sload\n      dup2\n      lt\n      tag_101\n      jumpi\n      tag_102\n      tag_68\n      jump\t// in\n    tag_102:\n    tag_101:\n      swap1\n      0x00\n      mstore\n      keccak256(0x00, 0x20)\n      swap1\n      0x02\n      mul\n      add\n        /* \"ballot_voting/ballotvoting.sol\":5512:5534  proposals[p].voteCount */\n      0x01\n      add\n      sload\n        /* \"ballot_voting/ballotvoting.sol\":5493:5534  winningVoteCount = proposals[p].voteCount */\n      swap2\n      pop\n        /* \"ballot_voting/ballotvoting.sol\":5572:5573  p */\n      dup1\n        /* \"ballot_voting/ballotvoting.sol\":5553:5573  winningProposal_ = p */\n      swap3\n      pop\n        /* \"ballot_voting/ballotvoting.sol\":5427:5589  if (proposals[p].voteCount > winningVoteCount) {\r... */\n    tag_100:\n        /* \"ballot_voting/ballotvoting.sol\":5407:5410  p++ */\n      dup1\n      dup1\n      tag_104\n      swap1\n      tag_105\n      jump\t// in\n    tag_104:\n      swap2\n      pop\n      pop\n        /* \"ballot_voting/ballotvoting.sol\":5368:5600  for (uint p = 0; p < proposals.length; p++) {\r... */\n      jump(tag_94)\n    tag_95:\n      pop\n        /* \"ballot_voting/ballotvoting.sol\":5321:5607  {\r... */\n      pop\n        /* \"ballot_voting/ballotvoting.sol\":5232:5607  function winningProposal() public view\r... */\n      swap1\n      jump\t// out\n        /* \"ballot_voting/ballotvoting.sol\":731:755  uint256 public startTime */\n    tag_39:\n      sload(0x00)\n      dup2\n      jump\t// out\n        /* \"ballot_voting/ballotvoting.sol\":2240:2606  function giveRightToVote(address voter) public {\r... */\n    tag_43:\n        /* \"ballot_voting/ballotvoting.sol\":2334:2345  chairperson */\n      0x02\n      0x00\n      swap1\n      sload\n      swap1\n      0x0100\n      exp\n      swap1\n      div\n      0xffffffffffffffffffffffffffffffffffffffff\n      and\n        /* \"ballot_voting/ballotvoting.sol\":2320:2345  msg.sender == chairperson */\n      0xffffffffffffffffffffffffffffffffffffffff\n      and\n        /* \"ballot_voting/ballotvoting.sol\":2320:2330  msg.sender */\n      caller\n        /* \"ballot_voting/ballotvoting.sol\":2320:2345  msg.sender == chairperson */\n      0xffffffffffffffffffffffffffffffffffffffff\n      and\n      eq\n        /* \"ballot_voting/ballotvoting.sol\":2298:2413  require(\r... */\n      tag_107\n      jumpi\n      mload(0x40)\n      0x08c379a000000000000000000000000000000000000000000000000000000000\n      dup2\n      mstore\n      0x04\n      add\n      tag_108\n      swap1\n      tag_109\n      jump\t// in\n    tag_108:\n      mload(0x40)\n      dup1\n      swap2\n      sub\n      swap1\n      revert\n    tag_107:\n        /* \"ballot_voting/ballotvoting.sol\":2447:2453  voters */\n      0x03\n        /* \"ballot_voting/ballotvoting.sol\":2447:2460  voters[voter] */\n      0x00\n        /* \"ballot_voting/ballotvoting.sol\":2454:2459  voter */\n      dup3\n        /* \"ballot_voting/ballotvoting.sol\":2447:2460  voters[voter] */\n      0xffffffffffffffffffffffffffffffffffffffff\n      and\n      0xffffffffffffffffffffffffffffffffffffffff\n      and\n      dup2\n      mstore\n      0x20\n      add\n      swap1\n      dup2\n      mstore\n      0x20\n      add\n      0x00\n      keccak256\n        /* \"ballot_voting/ballotvoting.sol\":2447:2466  voters[voter].voted */\n      0x01\n      add\n      0x00\n      swap1\n      sload\n      swap1\n      0x0100\n      exp\n      swap1\n      div\n      0xff\n      and\n        /* \"ballot_voting/ballotvoting.sol\":2446:2466  !voters[voter].voted */\n      iszero\n        /* \"ballot_voting/ballotvoting.sol\":2424:2518  require(\r... */\n      tag_110\n      jumpi\n      mload(0x40)\n      0x08c379a000000000000000000000000000000000000000000000000000000000\n      dup2\n      mstore\n      0x04\n      add\n      tag_111\n      swap1\n      tag_112\n      jump\t// in\n    tag_111:\n      mload(0x40)\n      dup1\n      swap2\n      sub\n      swap1\n      revert\n    tag_110:\n        /* \"ballot_voting/ballotvoting.sol\":2561:2562  0 */\n      0x00\n        /* \"ballot_voting/ballotvoting.sol\":2537:2543  voters */\n      0x03\n        /* \"ballot_voting/ballotvoting.sol\":2537:2550  voters[voter] */\n      0x00\n        /* \"ballot_voting/ballotvoting.sol\":2544:2549  voter */\n      dup4\n        /* \"ballot_voting/ballotvoting.sol\":2537:2550  voters[voter] */\n      0xffffffffffffffffffffffffffffffffffffffff\n      and\n      0xffffffffffffffffffffffffffffffffffffffff\n      and\n      dup2\n      mstore\n      0x20\n      add\n      swap1\n      dup2\n      mstore\n      0x20\n      add\n      0x00\n      keccak256\n        /* \"ballot_voting/ballotvoting.sol\":2537:2557  voters[voter].weight */\n      0x00\n      add\n      sload\n        /* \"ballot_voting/ballotvoting.sol\":2537:2562  voters[voter].weight == 0 */\n      eq\n        /* \"ballot_voting/ballotvoting.sol\":2529:2563  require(voters[voter].weight == 0) */\n      tag_113\n      jumpi\n      0x00\n      dup1\n      revert\n    tag_113:\n        /* \"ballot_voting/ballotvoting.sol\":2597:2598  1 */\n      0x01\n        /* \"ballot_voting/ballotvoting.sol\":2574:2580  voters */\n      0x03\n        /* \"ballot_voting/ballotvoting.sol\":2574:2587  voters[voter] */\n      0x00\n        /* \"ballot_voting/ballotvoting.sol\":2581:2586  voter */\n      dup4\n        /* \"ballot_voting/ballotvoting.sol\":2574:2587  voters[voter] */\n      0xffffffffffffffffffffffffffffffffffffffff\n      and\n      0xffffffffffffffffffffffffffffffffffffffff\n      and\n      dup2\n      mstore\n      0x20\n      add\n      swap1\n      dup2\n      mstore\n      0x20\n      add\n      0x00\n      keccak256\n        /* \"ballot_voting/ballotvoting.sol\":2574:2594  voters[voter].weight */\n      0x00\n      add\n        /* \"ballot_voting/ballotvoting.sol\":2574:2598  voters[voter].weight = 1 */\n      dup2\n      swap1\n      sstore\n      pop\n        /* \"ballot_voting/ballotvoting.sol\":2240:2606  function giveRightToVote(address voter) public {\r... */\n      pop\n      jump\t// out\n        /* \"ballot_voting/ballotvoting.sol\":828:867  mapping(address => Voter) public voters */\n    tag_46:\n      mstore(0x20, 0x03)\n      dup1\n      0x00\n      mstore\n      keccak256(0x00, 0x40)\n      0x00\n      swap2\n      pop\n      swap1\n      pop\n      dup1\n      0x00\n      add\n      sload\n      swap1\n      dup1\n      0x01\n      add\n      0x00\n      swap1\n      sload\n      swap1\n      0x0100\n      exp\n      swap1\n      div\n      0xff\n      and\n      swap1\n      dup1\n      0x01\n      add\n      0x01\n      swap1\n      sload\n      swap1\n      0x0100\n      exp\n      swap1\n      div\n      0xffffffffffffffffffffffffffffffffffffffff\n      and\n      swap1\n      dup1\n      0x02\n      add\n      sload\n      swap1\n      pop\n      dup5\n      jump\t// out\n        /* \"ballot_voting/ballotvoting.sol\":5804:5952  function winnerName() public view\r... */\n    tag_50:\n        /* \"ballot_voting/ballotvoting.sol\":5860:5879  bytes32 winnerName_ */\n      0x00\n        /* \"ballot_voting/ballotvoting.sol\":5911:5920  proposals */\n      0x04\n        /* \"ballot_voting/ballotvoting.sol\":5921:5938  winningProposal() */\n      tag_115\n        /* \"ballot_voting/ballotvoting.sol\":5921:5936  winningProposal */\n      tag_36\n        /* \"ballot_voting/ballotvoting.sol\":5921:5938  winningProposal() */\n      jump\t// in\n    tag_115:\n        /* \"ballot_voting/ballotvoting.sol\":5911:5939  proposals[winningProposal()] */\n      dup2\n      sload\n      dup2\n      lt\n      tag_116\n      jumpi\n      tag_117\n      tag_68\n      jump\t// in\n    tag_117:\n    tag_116:\n      swap1\n      0x00\n      mstore\n      keccak256(0x00, 0x20)\n      swap1\n      0x02\n      mul\n      add\n        /* \"ballot_voting/ballotvoting.sol\":5911:5944  proposals[winningProposal()].name */\n      0x00\n      add\n      sload\n        /* \"ballot_voting/ballotvoting.sol\":5897:5944  winnerName_ = proposals[winningProposal()].name */\n      swap1\n      pop\n        /* \"ballot_voting/ballotvoting.sol\":5804:5952  function winnerName() public view\r... */\n      swap1\n      jump\t// out\n        /* \"#utility.yul\":7:146   */\n    tag_120:\n        /* \"#utility.yul\":53:58   */\n      0x00\n        /* \"#utility.yul\":91:97   */\n      dup2\n        /* \"#utility.yul\":78:98   */\n      calldataload\n        /* \"#utility.yul\":69:98   */\n      swap1\n      pop\n        /* \"#utility.yul\":107:140   */\n      tag_122\n        /* \"#utility.yul\":134:139   */\n      dup2\n        /* \"#utility.yul\":107:140   */\n      tag_123\n      jump\t// in\n    tag_122:\n        /* \"#utility.yul\":7:146   */\n      swap3\n      swap2\n      pop\n      pop\n      jump\t// out\n        /* \"#utility.yul\":152:291   */\n    tag_124:\n        /* \"#utility.yul\":198:203   */\n      0x00\n        /* \"#utility.yul\":236:242   */\n      dup2\n        /* \"#utility.yul\":223:243   */\n      calldataload\n        /* \"#utility.yul\":214:243   */\n      swap1\n      pop\n        /* \"#utility.yul\":252:285   */\n      tag_126\n        /* \"#utility.yul\":279:284   */\n      dup2\n        /* \"#utility.yul\":252:285   */\n      tag_127\n      jump\t// in\n    tag_126:\n        /* \"#utility.yul\":152:291   */\n      swap3\n      swap2\n      pop\n      pop\n      jump\t// out\n        /* \"#utility.yul\":297:626   */\n    tag_33:\n        /* \"#utility.yul\":356:362   */\n      0x00\n        /* \"#utility.yul\":405:407   */\n      0x20\n        /* \"#utility.yul\":393:402   */\n      dup3\n        /* \"#utility.yul\":384:391   */\n      dup5\n        /* \"#utility.yul\":380:403   */\n      sub\n        /* \"#utility.yul\":376:408   */\n      slt\n        /* \"#utility.yul\":373:492   */\n      iszero\n      tag_129\n      jumpi\n        /* \"#utility.yul\":411:490   */\n      tag_130\n      tag_131\n      jump\t// in\n    tag_130:\n        /* \"#utility.yul\":373:492   */\n    tag_129:\n        /* \"#utility.yul\":531:532   */\n      0x00\n        /* \"#utility.yul\":556:609   */\n      tag_132\n        /* \"#utility.yul\":601:608   */\n      dup5\n        /* \"#utility.yul\":592:598   */\n      dup3\n        /* \"#utility.yul\":581:590   */\n      dup6\n        /* \"#utility.yul\":577:599   */\n      add\n        /* \"#utility.yul\":556:609   */\n      tag_120\n      jump\t// in\n    tag_132:\n        /* \"#utility.yul\":546:609   */\n      swap2\n      pop\n        /* \"#utility.yul\":502:619   */\n      pop\n        /* \"#utility.yul\":297:626   */\n      swap3\n      swap2\n      pop\n      pop\n      jump\t// out\n        /* \"#utility.yul\":632:961   */\n    tag_16:\n        /* \"#utility.yul\":691:697   */\n      0x00\n        /* \"#utility.yul\":740:742   */\n      0x20\n        /* \"#utility.yul\":728:737   */\n      dup3\n        /* \"#utility.yul\":719:726   */\n      dup5\n        /* \"#utility.yul\":715:738   */\n      sub\n        /* \"#utility.yul\":711:743   */\n      slt\n        /* \"#utility.yul\":708:827   */\n      iszero\n      tag_134\n      jumpi\n        /* \"#utility.yul\":746:825   */\n      tag_135\n      tag_131\n      jump\t// in\n    tag_135:\n        /* \"#utility.yul\":708:827   */\n    tag_134:\n        /* \"#utility.yul\":866:867   */\n      0x00\n        /* \"#utility.yul\":891:944   */\n      tag_136\n        /* \"#utility.yul\":936:943   */\n      dup5\n        /* \"#utility.yul\":927:933   */\n      dup3\n        /* \"#utility.yul\":916:925   */\n      dup6\n        /* \"#utility.yul\":912:934   */\n      add\n        /* \"#utility.yul\":891:944   */\n      tag_124\n      jump\t// in\n    tag_136:\n        /* \"#utility.yul\":881:944   */\n      swap2\n      pop\n        /* \"#utility.yul\":837:954   */\n      pop\n        /* \"#utility.yul\":632:961   */\n      swap3\n      swap2\n      pop\n      pop\n      jump\t// out\n        /* \"#utility.yul\":967:1085   */\n    tag_137:\n        /* \"#utility.yul\":1054:1078   */\n      tag_139\n        /* \"#utility.yul\":1072:1077   */\n      dup2\n        /* \"#utility.yul\":1054:1078   */\n      tag_140\n      jump\t// in\n    tag_139:\n        /* \"#utility.yul\":1049:1052   */\n      dup3\n        /* \"#utility.yul\":1042:1079   */\n      mstore\n        /* \"#utility.yul\":967:1085   */\n      pop\n      pop\n      jump\t// out\n        /* \"#utility.yul\":1091:1200   */\n    tag_141:\n        /* \"#utility.yul\":1172:1193   */\n      tag_143\n        /* \"#utility.yul\":1187:1192   */\n      dup2\n        /* \"#utility.yul\":1172:1193   */\n      tag_144\n      jump\t// in\n    tag_143:\n        /* \"#utility.yul\":1167:1170   */\n      dup3\n        /* \"#utility.yul\":1160:1194   */\n      mstore\n        /* \"#utility.yul\":1091:1200   */\n      pop\n      pop\n      jump\t// out\n        /* \"#utility.yul\":1206:1324   */\n    tag_145:\n        /* \"#utility.yul\":1293:1317   */\n      tag_147\n        /* \"#utility.yul\":1311:1316   */\n      dup2\n        /* \"#utility.yul\":1293:1317   */\n      tag_148\n      jump\t// in\n    tag_147:\n        /* \"#utility.yul\":1288:1291   */\n      dup3\n        /* \"#utility.yul\":1281:1318   */\n      mstore\n        /* \"#utility.yul\":1206:1324   */\n      pop\n      pop\n      jump\t// out\n        /* \"#utility.yul\":1330:1696   */\n    tag_149:\n        /* \"#utility.yul\":1472:1475   */\n      0x00\n        /* \"#utility.yul\":1493:1560   */\n      tag_151\n        /* \"#utility.yul\":1557:1559   */\n      0x14\n        /* \"#utility.yul\":1552:1555   */\n      dup4\n        /* \"#utility.yul\":1493:1560   */\n      tag_152\n      jump\t// in\n    tag_151:\n        /* \"#utility.yul\":1486:1560   */\n      swap2\n      pop\n        /* \"#utility.yul\":1569:1662   */\n      tag_153\n        /* \"#utility.yul\":1658:1661   */\n      dup3\n        /* \"#utility.yul\":1569:1662   */\n      tag_154\n      jump\t// in\n    tag_153:\n        /* \"#utility.yul\":1687:1689   */\n      0x20\n        /* \"#utility.yul\":1682:1685   */\n      dup3\n        /* \"#utility.yul\":1678:1690   */\n      add\n        /* \"#utility.yul\":1671:1690   */\n      swap1\n      pop\n        /* \"#utility.yul\":1330:1696   */\n      swap2\n      swap1\n      pop\n      jump\t// out\n        /* \"#utility.yul\":1702:2068   */\n    tag_155:\n        /* \"#utility.yul\":1844:1847   */\n      0x00\n        /* \"#utility.yul\":1865:1932   */\n      tag_157\n        /* \"#utility.yul\":1929:1931   */\n      0x0e\n        /* \"#utility.yul\":1924:1927   */\n      dup4\n        /* \"#utility.yul\":1865:1932   */\n      tag_152\n      jump\t// in\n    tag_157:\n        /* \"#utility.yul\":1858:1932   */\n      swap2\n      pop\n        /* \"#utility.yul\":1941:2034   */\n      tag_158\n        /* \"#utility.yul\":2030:2033   */\n      dup3\n        /* \"#utility.yul\":1941:2034   */\n      tag_159\n      jump\t// in\n    tag_158:\n        /* \"#utility.yul\":2059:2061   */\n      0x20\n        /* \"#utility.yul\":2054:2057   */\n      dup3\n        /* \"#utility.yul\":2050:2062   */\n      add\n        /* \"#utility.yul\":2043:2062   */\n      swap1\n      pop\n        /* \"#utility.yul\":1702:2068   */\n      swap2\n      swap1\n      pop\n      jump\t// out\n        /* \"#utility.yul\":2074:2440   */\n    tag_160:\n        /* \"#utility.yul\":2216:2219   */\n      0x00\n        /* \"#utility.yul\":2237:2304   */\n      tag_162\n        /* \"#utility.yul\":2301:2303   */\n      0x12\n        /* \"#utility.yul\":2296:2299   */\n      dup4\n        /* \"#utility.yul\":2237:2304   */\n      tag_152\n      jump\t// in\n    tag_162:\n        /* \"#utility.yul\":2230:2304   */\n      swap2\n      pop\n        /* \"#utility.yul\":2313:2406   */\n      tag_163\n        /* \"#utility.yul\":2402:2405   */\n      dup3\n        /* \"#utility.yul\":2313:2406   */\n      tag_164\n      jump\t// in\n    tag_163:\n        /* \"#utility.yul\":2431:2433   */\n      0x20\n        /* \"#utility.yul\":2426:2429   */\n      dup3\n        /* \"#utility.yul\":2422:2434   */\n      add\n        /* \"#utility.yul\":2415:2434   */\n      swap1\n      pop\n        /* \"#utility.yul\":2074:2440   */\n      swap2\n      swap1\n      pop\n      jump\t// out\n        /* \"#utility.yul\":2446:2812   */\n    tag_165:\n        /* \"#utility.yul\":2588:2591   */\n      0x00\n        /* \"#utility.yul\":2609:2676   */\n      tag_167\n        /* \"#utility.yul\":2673:2675   */\n      0x28\n        /* \"#utility.yul\":2668:2671   */\n      dup4\n        /* \"#utility.yul\":2609:2676   */\n      tag_152\n      jump\t// in\n    tag_167:\n        /* \"#utility.yul\":2602:2676   */\n      swap2\n      pop\n        /* \"#utility.yul\":2685:2778   */\n      tag_168\n        /* \"#utility.yul\":2774:2777   */\n      dup3\n        /* \"#utility.yul\":2685:2778   */\n      tag_169\n      jump\t// in\n    tag_168:\n        /* \"#utility.yul\":2803:2805   */\n      0x40\n        /* \"#utility.yul\":2798:2801   */\n      dup3\n        /* \"#utility.yul\":2794:2806   */\n      add\n        /* \"#utility.yul\":2787:2806   */\n      swap1\n      pop\n        /* \"#utility.yul\":2446:2812   */\n      swap2\n      swap1\n      pop\n      jump\t// out\n        /* \"#utility.yul\":2818:3184   */\n    tag_170:\n        /* \"#utility.yul\":2960:2963   */\n      0x00\n        /* \"#utility.yul\":2981:3048   */\n      tag_172\n        /* \"#utility.yul\":3045:3047   */\n      0x19\n        /* \"#utility.yul\":3040:3043   */\n      dup4\n        /* \"#utility.yul\":2981:3048   */\n      tag_152\n      jump\t// in\n    tag_172:\n        /* \"#utility.yul\":2974:3048   */\n      swap2\n      pop\n        /* \"#utility.yul\":3057:3150   */\n      tag_173\n        /* \"#utility.yul\":3146:3149   */\n      dup3\n        /* \"#utility.yul\":3057:3150   */\n      tag_174\n      jump\t// in\n    tag_173:\n        /* \"#utility.yul\":3175:3177   */\n      0x20\n        /* \"#utility.yul\":3170:3173   */\n      dup3\n        /* \"#utility.yul\":3166:3178   */\n      add\n        /* \"#utility.yul\":3159:3178   */\n      swap1\n      pop\n        /* \"#utility.yul\":2818:3184   */\n      swap2\n      swap1\n      pop\n      jump\t// out\n        /* \"#utility.yul\":3190:3556   */\n    tag_175:\n        /* \"#utility.yul\":3332:3335   */\n      0x00\n        /* \"#utility.yul\":3353:3420   */\n      tag_177\n        /* \"#utility.yul\":3417:3419   */\n      0x18\n        /* \"#utility.yul\":3412:3415   */\n      dup4\n        /* \"#utility.yul\":3353:3420   */\n      tag_152\n      jump\t// in\n    tag_177:\n        /* \"#utility.yul\":3346:3420   */\n      swap2\n      pop\n        /* \"#utility.yul\":3429:3522   */\n      tag_178\n        /* \"#utility.yul\":3518:3521   */\n      dup3\n        /* \"#utility.yul\":3429:3522   */\n      tag_179\n      jump\t// in\n    tag_178:\n        /* \"#utility.yul\":3547:3549   */\n      0x20\n        /* \"#utility.yul\":3542:3545   */\n      dup3\n        /* \"#utility.yul\":3538:3550   */\n      add\n        /* \"#utility.yul\":3531:3550   */\n      swap1\n      pop\n        /* \"#utility.yul\":3190:3556   */\n      swap2\n      swap1\n      pop\n      jump\t// out\n        /* \"#utility.yul\":3562:3928   */\n    tag_180:\n        /* \"#utility.yul\":3704:3707   */\n      0x00\n        /* \"#utility.yul\":3725:3792   */\n      tag_182\n        /* \"#utility.yul\":3789:3791   */\n      0x1e\n        /* \"#utility.yul\":3784:3787   */\n      dup4\n        /* \"#utility.yul\":3725:3792   */\n      tag_152\n      jump\t// in\n    tag_182:\n        /* \"#utility.yul\":3718:3792   */\n      swap2\n      pop\n        /* \"#utility.yul\":3801:3894   */\n      tag_183\n        /* \"#utility.yul\":3890:3893   */\n      dup3\n        /* \"#utility.yul\":3801:3894   */\n      tag_184\n      jump\t// in\n    tag_183:\n        /* \"#utility.yul\":3919:3921   */\n      0x20\n        /* \"#utility.yul\":3914:3917   */\n      dup3\n        /* \"#utility.yul\":3910:3922   */\n      add\n        /* \"#utility.yul\":3903:3922   */\n      swap1\n      pop\n        /* \"#utility.yul\":3562:3928   */\n      swap2\n      swap1\n      pop\n      jump\t// out\n        /* \"#utility.yul\":3934:4052   */\n    tag_185:\n        /* \"#utility.yul\":4021:4045   */\n      tag_187\n        /* \"#utility.yul\":4039:4044   */\n      dup2\n        /* \"#utility.yul\":4021:4045   */\n      tag_188\n      jump\t// in\n    tag_187:\n        /* \"#utility.yul\":4016:4019   */\n      dup3\n        /* \"#utility.yul\":4009:4046   */\n      mstore\n        /* \"#utility.yul\":3934:4052   */\n      pop\n      pop\n      jump\t// out\n        /* \"#utility.yul\":4058:4280   */\n    tag_26:\n        /* \"#utility.yul\":4151:4155   */\n      0x00\n        /* \"#utility.yul\":4189:4191   */\n      0x20\n        /* \"#utility.yul\":4178:4187   */\n      dup3\n        /* \"#utility.yul\":4174:4192   */\n      add\n        /* \"#utility.yul\":4166:4192   */\n      swap1\n      pop\n        /* \"#utility.yul\":4202:4273   */\n      tag_190\n        /* \"#utility.yul\":4270:4271   */\n      0x00\n        /* \"#utility.yul\":4259:4268   */\n      dup4\n        /* \"#utility.yul\":4255:4272   */\n      add\n        /* \"#utility.yul\":4246:4252   */\n      dup5\n        /* \"#utility.yul\":4202:4273   */\n      tag_137\n      jump\t// in\n    tag_190:\n        /* \"#utility.yul\":4058:4280   */\n      swap3\n      swap2\n      pop\n      pop\n      jump\t// out\n        /* \"#utility.yul\":4286:4508   */\n    tag_52:\n        /* \"#utility.yul\":4379:4383   */\n      0x00\n        /* \"#utility.yul\":4417:4419   */\n      0x20\n        /* \"#utility.yul\":4406:4415   */\n      dup3\n        /* \"#utility.yul\":4402:4420   */\n      add\n        /* \"#utility.yul\":4394:4420   */\n      swap1\n      pop\n        /* \"#utility.yul\":4430:4501   */\n      tag_192\n        /* \"#utility.yul\":4498:4499   */\n      0x00\n        /* \"#utility.yul\":4487:4496   */\n      dup4\n        /* \"#utility.yul\":4483:4500   */\n      add\n        /* \"#utility.yul\":4474:4480   */\n      dup5\n        /* \"#utility.yul\":4430:4501   */\n      tag_145\n      jump\t// in\n    tag_192:\n        /* \"#utility.yul\":4286:4508   */\n      swap3\n      swap2\n      pop\n      pop\n      jump\t// out\n        /* \"#utility.yul\":4514:4846   */\n    tag_22:\n        /* \"#utility.yul\":4635:4639   */\n      0x00\n        /* \"#utility.yul\":4673:4675   */\n      0x40\n        /* \"#utility.yul\":4662:4671   */\n      dup3\n        /* \"#utility.yul\":4658:4676   */\n      add\n        /* \"#utility.yul\":4650:4676   */\n      swap1\n      pop\n        /* \"#utility.yul\":4686:4757   */\n      tag_194\n        /* \"#utility.yul\":4754:4755   */\n      0x00\n        /* \"#utility.yul\":4743:4752   */\n      dup4\n        /* \"#utility.yul\":4739:4756   */\n      add\n        /* \"#utility.yul\":4730:4736   */\n      dup6\n        /* \"#utility.yul\":4686:4757   */\n      tag_145\n      jump\t// in\n    tag_194:\n        /* \"#utility.yul\":4767:4839   */\n      tag_195\n        /* \"#utility.yul\":4835:4837   */\n      0x20\n        /* \"#utility.yul\":4824:4833   */\n      dup4\n        /* \"#utility.yul\":4820:4838   */\n      add\n        /* \"#utility.yul\":4811:4817   */\n      dup5\n        /* \"#utility.yul\":4767:4839   */\n      tag_185\n      jump\t// in\n    tag_195:\n        /* \"#utility.yul\":4514:4846   */\n      swap4\n      swap3\n      pop\n      pop\n      pop\n      jump\t// out\n        /* \"#utility.yul\":4852:5271   */\n    tag_62:\n        /* \"#utility.yul\":5018:5022   */\n      0x00\n        /* \"#utility.yul\":5056:5058   */\n      0x20\n        /* \"#utility.yul\":5045:5054   */\n      dup3\n        /* \"#utility.yul\":5041:5059   */\n      add\n        /* \"#utility.yul\":5033:5059   */\n      swap1\n      pop\n        /* \"#utility.yul\":5105:5114   */\n      dup2\n        /* \"#utility.yul\":5099:5103   */\n      dup2\n        /* \"#utility.yul\":5095:5115   */\n      sub\n        /* \"#utility.yul\":5091:5092   */\n      0x00\n        /* \"#utility.yul\":5080:5089   */\n      dup4\n        /* \"#utility.yul\":5076:5093   */\n      add\n        /* \"#utility.yul\":5069:5116   */\n      mstore\n        /* \"#utility.yul\":5133:5264   */\n      tag_197\n        /* \"#utility.yul\":5259:5263   */\n      dup2\n        /* \"#utility.yul\":5133:5264   */\n      tag_149\n      jump\t// in\n    tag_197:\n        /* \"#utility.yul\":5125:5264   */\n      swap1\n      pop\n        /* \"#utility.yul\":4852:5271   */\n      swap2\n      swap1\n      pop\n      jump\t// out\n        /* \"#utility.yul\":5277:5696   */\n    tag_65:\n        /* \"#utility.yul\":5443:5447   */\n      0x00\n        /* \"#utility.yul\":5481:5483   */\n      0x20\n        /* \"#utility.yul\":5470:5479   */\n      dup3\n        /* \"#utility.yul\":5466:5484   */\n      add\n        /* \"#utility.yul\":5458:5484   */\n      swap1\n      pop\n        /* \"#utility.yul\":5530:5539   */\n      dup2\n        /* \"#utility.yul\":5524:5528   */\n      dup2\n        /* \"#utility.yul\":5520:5540   */\n      sub\n        /* \"#utility.yul\":5516:5517   */\n      0x00\n        /* \"#utility.yul\":5505:5514   */\n      dup4\n        /* \"#utility.yul\":5501:5518   */\n      add\n        /* \"#utility.yul\":5494:5541   */\n      mstore\n        /* \"#utility.yul\":5558:5689   */\n      tag_199\n        /* \"#utility.yul\":5684:5688   */\n      dup2\n        /* \"#utility.yul\":5558:5689   */\n      tag_155\n      jump\t// in\n    tag_199:\n        /* \"#utility.yul\":5550:5689   */\n      swap1\n      pop\n        /* \"#utility.yul\":5277:5696   */\n      swap2\n      swap1\n      pop\n      jump\t// out\n        /* \"#utility.yul\":5702:6121   */\n    tag_77:\n        /* \"#utility.yul\":5868:5872   */\n      0x00\n        /* \"#utility.yul\":5906:5908   */\n      0x20\n        /* \"#utility.yul\":5895:5904   */\n      dup3\n        /* \"#utility.yul\":5891:5909   */\n      add\n        /* \"#utility.yul\":5883:5909   */\n      swap1\n      pop\n        /* \"#utility.yul\":5955:5964   */\n      dup2\n        /* \"#utility.yul\":5949:5953   */\n      dup2\n        /* \"#utility.yul\":5945:5965   */\n      sub\n        /* \"#utility.yul\":5941:5942   */\n      0x00\n        /* \"#utility.yul\":5930:5939   */\n      dup4\n        /* \"#utility.yul\":5926:5943   */\n      add\n        /* \"#utility.yul\":5919:5966   */\n      mstore\n        /* \"#utility.yul\":5983:6114   */\n      tag_201\n        /* \"#utility.yul\":6109:6113   */\n      dup2\n        /* \"#utility.yul\":5983:6114   */\n      tag_160\n      jump\t// in\n    tag_201:\n        /* \"#utility.yul\":5975:6114   */\n      swap1\n      pop\n        /* \"#utility.yul\":5702:6121   */\n      swap2\n      swap1\n      pop\n      jump\t// out\n        /* \"#utility.yul\":6127:6546   */\n    tag_109:\n        /* \"#utility.yul\":6293:6297   */\n      0x00\n        /* \"#utility.yul\":6331:6333   */\n      0x20\n        /* \"#utility.yul\":6320:6329   */\n      dup3\n        /* \"#utility.yul\":6316:6334   */\n      add\n        /* \"#utility.yul\":6308:6334   */\n      swap1\n      pop\n        /* \"#utility.yul\":6380:6389   */\n      dup2\n        /* \"#utility.yul\":6374:6378   */\n      dup2\n        /* \"#utility.yul\":6370:6390   */\n      sub\n        /* \"#utility.yul\":6366:6367   */\n      0x00\n        /* \"#utility.yul\":6355:6364   */\n      dup4\n        /* \"#utility.yul\":6351:6368   */\n      add\n        /* \"#utility.yul\":6344:6391   */\n      mstore\n        /* \"#utility.yul\":6408:6539   */\n      tag_203\n        /* \"#utility.yul\":6534:6538   */\n      dup2\n        /* \"#utility.yul\":6408:6539   */\n      tag_165\n      jump\t// in\n    tag_203:\n        /* \"#utility.yul\":6400:6539   */\n      swap1\n      pop\n        /* \"#utility.yul\":6127:6546   */\n      swap2\n      swap1\n      pop\n      jump\t// out\n        /* \"#utility.yul\":6552:6971   */\n    tag_85:\n        /* \"#utility.yul\":6718:6722   */\n      0x00\n        /* \"#utility.yul\":6756:6758   */\n      0x20\n        /* \"#utility.yul\":6745:6754   */\n      dup3\n        /* \"#utility.yul\":6741:6759   */\n      add\n        /* \"#utility.yul\":6733:6759   */\n      swap1\n      pop\n        /* \"#utility.yul\":6805:6814   */\n      dup2\n        /* \"#utility.yul\":6799:6803   */\n      dup2\n        /* \"#utility.yul\":6795:6815   */\n      sub\n        /* \"#utility.yul\":6791:6792   */\n      0x00\n        /* \"#utility.yul\":6780:6789   */\n      dup4\n        /* \"#utility.yul\":6776:6793   */\n      add\n        /* \"#utility.yul\":6769:6816   */\n      mstore\n        /* \"#utility.yul\":6833:6964   */\n      tag_205\n        /* \"#utility.yul\":6959:6963   */\n      dup2\n        /* \"#utility.yul\":6833:6964   */\n      tag_170\n      jump\t// in\n    tag_205:\n        /* \"#utility.yul\":6825:6964   */\n      swap1\n      pop\n        /* \"#utility.yul\":6552:6971   */\n      swap2\n      swap1\n      pop\n      jump\t// out\n        /* \"#utility.yul\":6977:7396   */\n    tag_112:\n        /* \"#utility.yul\":7143:7147   */\n      0x00\n        /* \"#utility.yul\":7181:7183   */\n      0x20\n        /* \"#utility.yul\":7170:7179   */\n      dup3\n        /* \"#utility.yul\":7166:7184   */\n      add\n        /* \"#utility.yul\":7158:7184   */\n      swap1\n      pop\n        /* \"#utility.yul\":7230:7239   */\n      dup2\n        /* \"#utility.yul\":7224:7228   */\n      dup2\n        /* \"#utility.yul\":7220:7240   */\n      sub\n        /* \"#utility.yul\":7216:7217   */\n      0x00\n        /* \"#utility.yul\":7205:7214   */\n      dup4\n        /* \"#utility.yul\":7201:7218   */\n      add\n        /* \"#utility.yul\":7194:7241   */\n      mstore\n        /* \"#utility.yul\":7258:7389   */\n      tag_207\n        /* \"#utility.yul\":7384:7388   */\n      dup2\n        /* \"#utility.yul\":7258:7389   */\n      tag_175\n      jump\t// in\n    tag_207:\n        /* \"#utility.yul\":7250:7389   */\n      swap1\n      pop\n        /* \"#utility.yul\":6977:7396   */\n      swap2\n      swap1\n      pop\n      jump\t// out\n        /* \"#utility.yul\":7402:7821   */\n    tag_80:\n        /* \"#utility.yul\":7568:7572   */\n      0x00\n        /* \"#utility.yul\":7606:7608   */\n      0x20\n        /* \"#utility.yul\":7595:7604   */\n      dup3\n        /* \"#utility.yul\":7591:7609   */\n      add\n        /* \"#utility.yul\":7583:7609   */\n      swap1\n      pop\n        /* \"#utility.yul\":7655:7664   */\n      dup2\n        /* \"#utility.yul\":7649:7653   */\n      dup2\n        /* \"#utility.yul\":7645:7665   */\n      sub\n        /* \"#utility.yul\":7641:7642   */\n      0x00\n        /* \"#utility.yul\":7630:7639   */\n      dup4\n        /* \"#utility.yul\":7626:7643   */\n      add\n        /* \"#utility.yul\":7619:7666   */\n      mstore\n        /* \"#utility.yul\":7683:7814   */\n      tag_209\n        /* \"#utility.yul\":7809:7813   */\n      dup2\n        /* \"#utility.yul\":7683:7814   */\n      tag_180\n      jump\t// in\n    tag_209:\n        /* \"#utility.yul\":7675:7814   */\n      swap1\n      pop\n        /* \"#utility.yul\":7402:7821   */\n      swap2\n      swap1\n      pop\n      jump\t// out\n        /* \"#utility.yul\":7827:8049   */\n    tag_30:\n        /* \"#utility.yul\":7920:7924   */\n      0x00\n        /* \"#utility.yul\":7958:7960   */\n      0x20\n        /* \"#utility.yul\":7947:7956   */\n      dup3\n        /* \"#utility.yul\":7943:7961   */\n      add\n        /* \"#utility.yul\":7935:7961   */\n      swap1\n      pop\n        /* \"#utility.yul\":7971:8042   */\n      tag_211\n        /* \"#utility.yul\":8039:8040   */\n      0x00\n        /* \"#utility.yul\":8028:8037   */\n      dup4\n        /* \"#utility.yul\":8024:8041   */\n      add\n        /* \"#utility.yul\":8015:8021   */\n      dup5\n        /* \"#utility.yul\":7971:8042   */\n      tag_185\n      jump\t// in\n    tag_211:\n        /* \"#utility.yul\":7827:8049   */\n      swap3\n      swap2\n      pop\n      pop\n      jump\t// out\n        /* \"#utility.yul\":8055:8596   */\n    tag_48:\n        /* \"#utility.yul\":8226:8230   */\n      0x00\n        /* \"#utility.yul\":8264:8267   */\n      0x80\n        /* \"#utility.yul\":8253:8262   */\n      dup3\n        /* \"#utility.yul\":8249:8268   */\n      add\n        /* \"#utility.yul\":8241:8268   */\n      swap1\n      pop\n        /* \"#utility.yul\":8278:8349   */\n      tag_213\n        /* \"#utility.yul\":8346:8347   */\n      0x00\n        /* \"#utility.yul\":8335:8344   */\n      dup4\n        /* \"#utility.yul\":8331:8348   */\n      add\n        /* \"#utility.yul\":8322:8328   */\n      dup8\n        /* \"#utility.yul\":8278:8349   */\n      tag_185\n      jump\t// in\n    tag_213:\n        /* \"#utility.yul\":8359:8425   */\n      tag_214\n        /* \"#utility.yul\":8421:8423   */\n      0x20\n        /* \"#utility.yul\":8410:8419   */\n      dup4\n        /* \"#utility.yul\":8406:8424   */\n      add\n        /* \"#utility.yul\":8397:8403   */\n      dup7\n        /* \"#utility.yul\":8359:8425   */\n      tag_141\n      jump\t// in\n    tag_214:\n        /* \"#utility.yul\":8435:8507   */\n      tag_215\n        /* \"#utility.yul\":8503:8505   */\n      0x40\n        /* \"#utility.yul\":8492:8501   */\n      dup4\n        /* \"#utility.yul\":8488:8506   */\n      add\n        /* \"#utility.yul\":8479:8485   */\n      dup6\n        /* \"#utility.yul\":8435:8507   */\n      tag_137\n      jump\t// in\n    tag_215:\n        /* \"#utility.yul\":8517:8589   */\n      tag_216\n        /* \"#utility.yul\":8585:8587   */\n      0x60\n        /* \"#utility.yul\":8574:8583   */\n      dup4\n        /* \"#utility.yul\":8570:8588   */\n      add\n        /* \"#utility.yul\":8561:8567   */\n      dup5\n        /* \"#utility.yul\":8517:8589   */\n      tag_185\n      jump\t// in\n    tag_216:\n        /* \"#utility.yul\":8055:8596   */\n      swap6\n      swap5\n      pop\n      pop\n      pop\n      pop\n      pop\n      jump\t// out\n        /* \"#utility.yul\":8683:8852   */\n    tag_152:\n        /* \"#utility.yul\":8767:8778   */\n      0x00\n        /* \"#utility.yul\":8801:8807   */\n      dup3\n        /* \"#utility.yul\":8796:8799   */\n      dup3\n        /* \"#utility.yul\":8789:8808   */\n      mstore\n        /* \"#utility.yul\":8841:8845   */\n      0x20\n        /* \"#utility.yul\":8836:8839   */\n      dup3\n        /* \"#utility.yul\":8832:8846   */\n      add\n        /* \"#utility.yul\":8817:8846   */\n      swap1\n      pop\n        /* \"#utility.yul\":8683:8852   */\n      swap3\n      swap2\n      pop\n      pop\n      jump\t// out\n        /* \"#utility.yul\":8858:9163   */\n    tag_71:\n        /* \"#utility.yul\":8898:8901   */\n      0x00\n        /* \"#utility.yul\":8917:8937   */\n      tag_221\n        /* \"#utility.yul\":8935:8936   */\n      dup3\n        /* \"#utility.yul\":8917:8937   */\n      tag_188\n      jump\t// in\n    tag_221:\n        /* \"#utility.yul\":8912:8937   */\n      swap2\n      pop\n        /* \"#utility.yul\":8951:8971   */\n      tag_222\n        /* \"#utility.yul\":8969:8970   */\n      dup4\n        /* \"#utility.yul\":8951:8971   */\n      tag_188\n      jump\t// in\n    tag_222:\n        /* \"#utility.yul\":8946:8971   */\n      swap3\n      pop\n        /* \"#utility.yul\":9105:9106   */\n      dup3\n        /* \"#utility.yul\":9037:9103   */\n      0xffffffffffffffffffffffffffffffffffffffffffffffffffffffffffffffff\n        /* \"#utility.yul\":9033:9107   */\n      sub\n        /* \"#utility.yul\":9030:9031   */\n      dup3\n        /* \"#utility.yul\":9027:9108   */\n      gt\n        /* \"#utility.yul\":9024:9131   */\n      iszero\n      tag_223\n      jumpi\n        /* \"#utility.yul\":9111:9129   */\n      tag_224\n      tag_225\n      jump\t// in\n    tag_224:\n        /* \"#utility.yul\":9024:9131   */\n    tag_223:\n        /* \"#utility.yul\":9155:9156   */\n      dup3\n        /* \"#utility.yul\":9152:9153   */\n      dup3\n        /* \"#utility.yul\":9148:9157   */\n      add\n        /* \"#utility.yul\":9141:9157   */\n      swap1\n      pop\n        /* \"#utility.yul\":8858:9163   */\n      swap3\n      swap2\n      pop\n      pop\n      jump\t// out\n        /* \"#utility.yul\":9169:9265   */\n    tag_140:\n        /* \"#utility.yul\":9206:9213   */\n      0x00\n        /* \"#utility.yul\":9235:9259   */\n      tag_227\n        /* \"#utility.yul\":9253:9258   */\n      dup3\n        /* \"#utility.yul\":9235:9259   */\n      tag_228\n      jump\t// in\n    tag_227:\n        /* \"#utility.yul\":9224:9259   */\n      swap1\n      pop\n        /* \"#utility.yul\":9169:9265   */\n      swap2\n      swap1\n      pop\n      jump\t// out\n        /* \"#utility.yul\":9271:9361   */\n    tag_144:\n        /* \"#utility.yul\":9305:9312   */\n      0x00\n        /* \"#utility.yul\":9348:9353   */\n      dup2\n        /* \"#utility.yul\":9341:9354   */\n      iszero\n        /* \"#utility.yul\":9334:9355   */\n      iszero\n        /* \"#utility.yul\":9323:9355   */\n      swap1\n      pop\n        /* \"#utility.yul\":9271:9361   */\n      swap2\n      swap1\n      pop\n      jump\t// out\n        /* \"#utility.yul\":9367:9444   */\n    tag_148:\n        /* \"#utility.yul\":9404:9411   */\n      0x00\n        /* \"#utility.yul\":9433:9438   */\n      dup2\n        /* \"#utility.yul\":9422:9438   */\n      swap1\n      pop\n        /* \"#utility.yul\":9367:9444   */\n      swap2\n      swap1\n      pop\n      jump\t// out\n        /* \"#utility.yul\":9450:9576   */\n    tag_228:\n        /* \"#utility.yul\":9487:9494   */\n      0x00\n        /* \"#utility.yul\":9527:9569   */\n      0xffffffffffffffffffffffffffffffffffffffff\n        /* \"#utility.yul\":9520:9525   */\n      dup3\n        /* \"#utility.yul\":9516:9570   */\n      and\n        /* \"#utility.yul\":9505:9570   */\n      swap1\n      pop\n        /* \"#utility.yul\":9450:9576   */\n      swap2\n      swap1\n      pop\n      jump\t// out\n        /* \"#utility.yul\":9582:9659   */\n    tag_188:\n        /* \"#utility.yul\":9619:9626   */\n      0x00\n        /* \"#utility.yul\":9648:9653   */\n      dup2\n        /* \"#utility.yul\":9637:9653   */\n      swap1\n      pop\n        /* \"#utility.yul\":9582:9659   */\n      swap2\n      swap1\n      pop\n      jump\t// out\n        /* \"#utility.yul\":9665:9898   */\n    tag_105:\n        /* \"#utility.yul\":9704:9707   */\n      0x00\n        /* \"#utility.yul\":9727:9751   */\n      tag_234\n        /* \"#utility.yul\":9745:9750   */\n      dup3\n        /* \"#utility.yul\":9727:9751   */\n      tag_188\n      jump\t// in\n    tag_234:\n        /* \"#utility.yul\":9718:9751   */\n      swap2\n      pop\n        /* \"#utility.yul\":9773:9839   */\n      0xffffffffffffffffffffffffffffffffffffffffffffffffffffffffffffffff\n        /* \"#utility.yul\":9766:9771   */\n      dup3\n        /* \"#utility.yul\":9763:9840   */\n      eq\n        /* \"#utility.yul\":9760:9863   */\n      iszero\n      tag_235\n      jumpi\n        /* \"#utility.yul\":9843:9861   */\n      tag_236\n      tag_225\n      jump\t// in\n    tag_236:\n        /* \"#utility.yul\":9760:9863   */\n    tag_235:\n        /* \"#utility.yul\":9890:9891   */\n      0x01\n        /* \"#utility.yul\":9883:9888   */\n      dup3\n        /* \"#utility.yul\":9879:9892   */\n      add\n        /* \"#utility.yul\":9872:9892   */\n      swap1\n      pop\n        /* \"#utility.yul\":9665:9898   */\n      swap2\n      swap1\n      pop\n      jump\t// out\n        /* \"#utility.yul\":9904:10084   */\n    tag_225:\n        /* \"#utility.yul\":9952:10029   */\n      0x4e487b7100000000000000000000000000000000000000000000000000000000\n        /* \"#utility.yul\":9949:9950   */\n      0x00\n        /* \"#utility.yul\":9942:10030   */\n      mstore\n        /* \"#utility.yul\":10049:10053   */\n      0x11\n        /* \"#utility.yul\":10046:10047   */\n      0x04\n        /* \"#utility.yul\":10039:10054   */\n      mstore\n        /* \"#utility.yul\":10073:10077   */\n      0x24\n        /* \"#utility.yul\":10070:10071   */\n      0x00\n        /* \"#utility.yul\":10063:10078   */\n      revert\n        /* \"#utility.yul\":10090:10270   */\n    tag_68:\n        /* \"#utility.yul\":10138:10215   */\n      0x4e487b7100000000000000000000000000000000000000000000000000000000\n        /* \"#utility.yul\":10135:10136   */\n      0x00\n        /* \"#utility.yul\":10128:10216   */\n      mstore\n        /* \"#utility.yul\":10235:10239   */\n      0x32\n        /* \"#utility.yul\":10232:10233   */\n      0x04\n        /* \"#utility.yul\":10225:10240   */\n      mstore\n        /* \"#utility.yul\":10259:10263   */\n      0x24\n        /* \"#utility.yul\":10256:10257   */\n      0x00\n        /* \"#utility.yul\":10249:10264   */\n      revert\n        /* \"#utility.yul\":10399:10516   */\n    tag_131:\n        /* \"#utility.yul\":10508:10509   */\n      0x00\n        /* \"#utility.yul\":10505:10506   */\n      dup1\n        /* \"#utility.yul\":10498:10510   */\n      revert\n        /* \"#utility.yul\":10522:10692   */\n    tag_154:\n        /* \"#utility.yul\":10662:10684   */\n      0x486173206e6f20726967687420746f20766f7465000000000000000000000000\n        /* \"#utility.yul\":10658:10659   */\n      0x00\n        /* \"#utility.yul\":10650:10656   */\n      dup3\n        /* \"#utility.yul\":10646:10660   */\n      add\n        /* \"#utility.yul\":10639:10685   */\n      mstore\n        /* \"#utility.yul\":10522:10692   */\n      pop\n      jump\t// out\n        /* \"#utility.yul\":10698:10862   */\n    tag_159:\n        /* \"#utility.yul\":10838:10854   */\n      0x416c726561647920766f7465642e000000000000000000000000000000000000\n        /* \"#utility.yul\":10834:10835   */\n      0x00\n        /* \"#utility.yul\":10826:10832   */\n      dup3\n        /* \"#utility.yul\":10822:10836   */\n      add\n        /* \"#utility.yul\":10815:10855   */\n      mstore\n        /* \"#utility.yul\":10698:10862   */\n      pop\n      jump\t// out\n        /* \"#utility.yul\":10868:11036   */\n    tag_164:\n        /* \"#utility.yul\":11008:11028   */\n      0x596f7520616c726561647920766f7465642e0000000000000000000000000000\n        /* \"#utility.yul\":11004:11005   */\n      0x00\n        /* \"#utility.yul\":10996:11002   */\n      dup3\n        /* \"#utility.yul\":10992:11006   */\n      add\n        /* \"#utility.yul\":10985:11029   */\n      mstore\n        /* \"#utility.yul\":10868:11036   */\n      pop\n      jump\t// out\n        /* \"#utility.yul\":11042:11269   */\n    tag_169:\n        /* \"#utility.yul\":11182:11216   */\n      0x4f6e6c79206368616972706572736f6e2063616e206769766520726967687420\n        /* \"#utility.yul\":11178:11179   */\n      0x00\n        /* \"#utility.yul\":11170:11176   */\n      dup3\n        /* \"#utility.yul\":11166:11180   */\n      add\n        /* \"#utility.yul\":11159:11217   */\n      mstore\n        /* \"#utility.yul\":11251:11261   */\n      0x746f20766f74652e000000000000000000000000000000000000000000000000\n        /* \"#utility.yul\":11246:11248   */\n      0x20\n        /* \"#utility.yul\":11238:11244   */\n      dup3\n        /* \"#utility.yul\":11234:11249   */\n      add\n        /* \"#utility.yul\":11227:11262   */\n      mstore\n        /* \"#utility.yul\":11042:11269   */\n      pop\n      jump\t// out\n        /* \"#utility.yul\":11275:11450   */\n    tag_174:\n        /* \"#utility.yul\":11415:11442   */\n      0x466f756e64206c6f6f7020696e2064656c65676174696f6e2e00000000000000\n        /* \"#utility.yul\":11411:11412   */\n      0x00\n        /* \"#utility.yul\":11403:11409   */\n      dup3\n        /* \"#utility.yul\":11399:11413   */\n      add\n        /* \"#utility.yul\":11392:11443   */\n      mstore\n        /* \"#utility.yul\":11275:11450   */\n      pop\n      jump\t// out\n        /* \"#utility.yul\":11456:11630   */\n    tag_179:\n        /* \"#utility.yul\":11596:11622   */\n      0x54686520766f74657220616c726561647920766f7465642e0000000000000000\n        /* \"#utility.yul\":11592:11593   */\n      0x00\n        /* \"#utility.yul\":11584:11590   */\n      dup3\n        /* \"#utility.yul\":11580:11594   */\n      add\n        /* \"#utility.yul\":11573:11623   */\n      mstore\n        /* \"#utility.yul\":11456:11630   */\n      pop\n      jump\t// out\n        /* \"#utility.yul\":11636:11816   */\n    tag_184:\n        /* \"#utility.yul\":11776:11808   */\n      0x53656c662d64656c65676174696f6e20697320646973616c6c6f7765642e0000\n        /* \"#utility.yul\":11772:11773   */\n      0x00\n        /* \"#utility.yul\":11764:11770   */\n      dup3\n        /* \"#utility.yul\":11760:11774   */\n      add\n        /* \"#utility.yul\":11753:11809   */\n      mstore\n        /* \"#utility.yul\":11636:11816   */\n      pop\n      jump\t// out\n        /* \"#utility.yul\":11822:11944   */\n    tag_123:\n        /* \"#utility.yul\":11895:11919   */\n      tag_250\n        /* \"#utility.yul\":11913:11918   */\n      dup2\n        /* \"#utility.yul\":11895:11919   */\n      tag_140\n      jump\t// in\n    tag_250:\n        /* \"#utility.yul\":11888:11893   */\n      dup2\n        /* \"#utility.yul\":11885:11920   */\n      eq\n        /* \"#utility.yul\":11875:11938   */\n      tag_251\n      jumpi\n        /* \"#utility.yul\":11934:11935   */\n      0x00\n        /* \"#utility.yul\":11931:11932   */\n      dup1\n        /* \"#utility.yul\":11924:11936   */\n      revert\n        /* \"#utility.yul\":11875:11938   */\n    tag_251:\n        /* \"#utility.yul\":11822:11944   */\n      pop\n      jump\t// out\n        /* \"#utility.yul\":11950:12072   */\n    tag_127:\n        /* \"#utility.yul\":12023:12047   */\n      tag_253\n        /* \"#utility.yul\":12041:12046   */\n      dup2\n        /* \"#utility.yul\":12023:12047   */\n      tag_188\n      jump\t// in\n    tag_253:\n        /* \"#utility.yul\":12016:12021   */\n      dup2\n        /* \"#utility.yul\":12013:12048   */\n      eq\n        /* \"#utility.yul\":12003:12066   */\n      tag_254\n      jumpi\n        /* \"#utility.yul\":12062:12063   */\n      0x00\n        /* \"#utility.yul\":12059:12060   */\n      dup1\n        /* \"#utility.yul\":12052:12064   */\n      revert\n        /* \"#utility.yul\":12003:12066   */\n    tag_254:\n        /* \"#utility.yul\":11950:12072   */\n      pop\n      jump\t// out\n\n    auxdata: 0xa2646970667358221220fe1e734ac145f3f985c725f35d7e812441dd65c9883a7dd909381fabd8289c3464736f6c63430008070033\n}\n",
				"bytecode": {
					"linkReferences": {},
					"object": "60806040523480156200001157600080fd5b506040516200163038038062001630833981810160405281019062000037919062000273565b33600260006101000a81548173ffffffffffffffffffffffffffffffffffffffff021916908373ffffffffffffffffffffffffffffffffffffffff160217905550600160036000600260009054906101000a900473ffffffffffffffffffffffffffffffffffffffff1673ffffffffffffffffffffffffffffffffffffffff1673ffffffffffffffffffffffffffffffffffffffff168152602001908152602001600020600001819055508042620000f0919062000346565b60018190555060005b83518110156200018d57600460405180604001604052808684815181106200012657620001256200046a565b5b60200260200101518152602001600081525090806001815401808255809150506001900390600052602060002090600202016000909190919091506000820151816000015560208201518160010155505080806200018490620003ed565b915050620000f9565b5050505062000521565b6000620001ae620001a88462000317565b620002ee565b90508083825260208201905082856020860282011115620001d457620001d3620004cd565b5b60005b85811015620002085781620001ed888262000245565b845260208401935060208301925050600181019050620001d7565b5050509392505050565b600082601f8301126200022a5762000229620004c8565b5b81516200023c84826020860162000197565b91505092915050565b6000815190506200025681620004ed565b92915050565b6000815190506200026d8162000507565b92915050565b6000806000606084860312156200028f576200028e620004d7565b5b600084015167ffffffffffffffff811115620002b057620002af620004d2565b5b620002be8682870162000212565b9350506020620002d1868287016200025c565b9250506040620002e4868287016200025c565b9150509250925092565b6000620002fa6200030d565b9050620003088282620003b7565b919050565b6000604051905090565b600067ffffffffffffffff82111562000335576200033462000499565b5b602082029050602081019050919050565b60006200035382620003ad565b91506200036083620003ad565b9250827fffffffffffffffffffffffffffffffffffffffffffffffffffffffffffffffff038211156200039857620003976200043b565b5b828201905092915050565b6000819050919050565b6000819050919050565b620003c282620004dc565b810181811067ffffffffffffffff82111715620003e457620003e362000499565b5b80604052505050565b6000620003fa82620003ad565b91507fffffffffffffffffffffffffffffffffffffffffffffffffffffffffffffffff82141562000430576200042f6200043b565b5b600182019050919050565b7f4e487b7100000000000000000000000000000000000000000000000000000000600052601160045260246000fd5b7f4e487b7100000000000000000000000000000000000000000000000000000000600052603260045260246000fd5b7f4e487b7100000000000000000000000000000000000000000000000000000000600052604160045260246000fd5b600080fd5b600080fd5b600080fd5b600080fd5b6000601f19601f8301169050919050565b620004f881620003a3565b81146200050457600080fd5b50565b6200051281620003ad565b81146200051e57600080fd5b50565b6110ff80620005316000396000f3fe608060405234801561001057600080fd5b506004361061009e5760003560e01c8063609ff1bd11610066578063609ff1bd1461014857806378e97925146101665780639e7b8d6114610184578063a3ec138d146101a0578063e2ba53f0146101d35761009e565b80630121b93f146100a3578063013cf08b146100bf5780632e4176cf146100f05780633197cbb61461010e5780635c19a95c1461012c575b600080fd5b6100bd60048036038101906100b89190610af4565b6101f1565b005b6100d960048036038101906100d49190610af4565b6103c8565b6040516100e7929190610c88565b60405180910390f35b6100f86103fc565b6040516101059190610c52565b60405180910390f35b610116610422565b6040516101239190610d91565b60405180910390f35b61014660048036038101906101419190610ac7565b610428565b005b6101506107c4565b60405161015d9190610d91565b60405180910390f35b61016e61084c565b60405161017b9190610d91565b60405180910390f35b61019e60048036038101906101999190610ac7565b610852565b005b6101ba60048036038101906101b59190610ac7565b610a0c565b6040516101ca9493929190610dac565b60405180910390f35b6101db610a69565b6040516101e89190610c6d565b60405180910390f35b60005480421161023857806040517f2de40e5500000000000000000000000000000000000000000000000000000000815260040161022f9190610d91565b60405180910390fd5b60015480421061027f57806040517fb43a401d0000000000000000000000000000000000000000000000000000000081526004016102769190610d91565b60405180910390fd5b6000600360003373ffffffffffffffffffffffffffffffffffffffff1673ffffffffffffffffffffffffffffffffffffffff168152602001908152602001600020905060008160000154141561030a576040517f08c379a000000000000000000000000000000000000000000000000000000000815260040161030190610cb1565b60405180910390fd5b8060010160009054906101000a900460ff161561035c576040517f08c379a000000000000000000000000000000000000000000000000000000000815260040161035390610cd1565b60405180910390fd5b60018160010160006101000a81548160ff02191690831515021790555083816002018190555080600001546004858154811061039b5761039a610f22565b5b906000526020600020906002020160010160008282546103bb9190610e02565b9250508190555050505050565b600481815481106103d857600080fd5b90600052602060002090600202016000915090508060000154908060010154905082565b600260009054906101000a900473ffffffffffffffffffffffffffffffffffffffff1681565b60015481565b6000600360003373ffffffffffffffffffffffffffffffffffffffff1673ffffffffffffffffffffffffffffffffffffffff16815260200190815260200160002090508060010160009054906101000a900460ff16156104bd576040517f08c379a00000000000000000000000000000000000000000000000000000000081526004016104b490610cf1565b60405180910390fd5b3373ffffffffffffffffffffffffffffffffffffffff168273ffffffffffffffffffffffffffffffffffffffff16141561052c576040517f08c379a000000000000000000000000000000000000000000000000000000000815260040161052390610d71565b60405180910390fd5b5b600073ffffffffffffffffffffffffffffffffffffffff16600360008473ffffffffffffffffffffffffffffffffffffffff1673ffffffffffffffffffffffffffffffffffffffff16815260200190815260200160002060010160019054906101000a900473ffffffffffffffffffffffffffffffffffffffff1673ffffffffffffffffffffffffffffffffffffffff161461069c57600360008373ffffffffffffffffffffffffffffffffffffffff1673ffffffffffffffffffffffffffffffffffffffff16815260200190815260200160002060010160019054906101000a900473ffffffffffffffffffffffffffffffffffffffff1691503373ffffffffffffffffffffffffffffffffffffffff168273ffffffffffffffffffffffffffffffffffffffff161415610697576040517f08c379a000000000000000000000000000000000000000000000000000000000815260040161068e90610d31565b60405180910390fd5b61052d565b60018160010160006101000a81548160ff021916908315150217905550818160010160016101000a81548173ffffffffffffffffffffffffffffffffffffffff021916908373ffffffffffffffffffffffffffffffffffffffff1602179055506000600360008473ffffffffffffffffffffffffffffffffffffffff1673ffffffffffffffffffffffffffffffffffffffff16815260200190815260200160002090508060010160009054906101000a900460ff161561079f578160000154600482600201548154811061077357610772610f22565b5b906000526020600020906002020160010160008282546107939190610e02565b925050819055506107bf565b81600001548160000160008282546107b79190610e02565b925050819055505b505050565b6000806000905060005b6004805490508110156108475781600482815481106107f0576107ef610f22565b5b9060005260206000209060020201600101541115610834576004818154811061081c5761081b610f22565b5b90600052602060002090600202016001015491508092505b808061083f90610eaa565b9150506107ce565b505090565b60005481565b600260009054906101000a900473ffffffffffffffffffffffffffffffffffffffff1673ffffffffffffffffffffffffffffffffffffffff163373ffffffffffffffffffffffffffffffffffffffff16146108e2576040517f08c379a00000000000000000000000000000000000000000000000000000000081526004016108d990610d11565b60405180910390fd5b600360008273ffffffffffffffffffffffffffffffffffffffff1673ffffffffffffffffffffffffffffffffffffffff16815260200190815260200160002060010160009054906101000a900460ff1615610972576040517f08c379a000000000000000000000000000000000000000000000000000000000815260040161096990610d51565b60405180910390fd5b6000600360008373ffffffffffffffffffffffffffffffffffffffff1673ffffffffffffffffffffffffffffffffffffffff16815260200190815260200160002060000154146109c157600080fd5b6001600360008373ffffffffffffffffffffffffffffffffffffffff1673ffffffffffffffffffffffffffffffffffffffff1681526020019081526020016000206000018190555050565b60036020528060005260406000206000915090508060000154908060010160009054906101000a900460ff16908060010160019054906101000a900473ffffffffffffffffffffffffffffffffffffffff16908060020154905084565b60006004610a756107c4565b81548110610a8657610a85610f22565b5b906000526020600020906002020160000154905090565b600081359050610aac8161109b565b92915050565b600081359050610ac1816110b2565b92915050565b600060208284031215610add57610adc610f51565b5b6000610aeb84828501610a9d565b91505092915050565b600060208284031215610b0a57610b09610f51565b5b6000610b1884828501610ab2565b91505092915050565b610b2a81610e58565b82525050565b610b3981610e6a565b82525050565b610b4881610e76565b82525050565b6000610b5b601483610df1565b9150610b6682610f56565b602082019050919050565b6000610b7e600e83610df1565b9150610b8982610f7f565b602082019050919050565b6000610ba1601283610df1565b9150610bac82610fa8565b602082019050919050565b6000610bc4602883610df1565b9150610bcf82610fd1565b604082019050919050565b6000610be7601983610df1565b9150610bf282611020565b602082019050919050565b6000610c0a601883610df1565b9150610c1582611049565b602082019050919050565b6000610c2d601e83610df1565b9150610c3882611072565b602082019050919050565b610c4c81610ea0565b82525050565b6000602082019050610c676000830184610b21565b92915050565b6000602082019050610c826000830184610b3f565b92915050565b6000604082019050610c9d6000830185610b3f565b610caa6020830184610c43565b9392505050565b60006020820190508181036000830152610cca81610b4e565b9050919050565b60006020820190508181036000830152610cea81610b71565b9050919050565b60006020820190508181036000830152610d0a81610b94565b9050919050565b60006020820190508181036000830152610d2a81610bb7565b9050919050565b60006020820190508181036000830152610d4a81610bda565b9050919050565b60006020820190508181036000830152610d6a81610bfd565b9050919050565b60006020820190508181036000830152610d8a81610c20565b9050919050565b6000602082019050610da66000830184610c43565b92915050565b6000608082019050610dc16000830187610c43565b610dce6020830186610b30565b610ddb6040830185610b21565b610de86060830184610c43565b95945050505050565b600082825260208201905092915050565b6000610e0d82610ea0565b9150610e1883610ea0565b9250827fffffffffffffffffffffffffffffffffffffffffffffffffffffffffffffffff03821115610e4d57610e4c610ef3565b5b828201905092915050565b6000610e6382610e80565b9050919050565b60008115159050919050565b6000819050919050565b600073ffffffffffffffffffffffffffffffffffffffff82169050919050565b6000819050919050565b6000610eb582610ea0565b91507fffffffffffffffffffffffffffffffffffffffffffffffffffffffffffffffff821415610ee857610ee7610ef3565b5b600182019050919050565b7f4e487b7100000000000000000000000000000000000000000000000000000000600052601160045260246000fd5b7f4e487b7100000000000000000000000000000000000000000000000000000000600052603260045260246000fd5b600080fd5b7f486173206e6f20726967687420746f20766f7465000000000000000000000000600082015250565b7f416c726561647920766f7465642e000000000000000000000000000000000000600082015250565b7f596f7520616c726561647920766f7465642e0000000000000000000000000000600082015250565b7f4f6e6c79206368616972706572736f6e2063616e20676976652072696768742060008201527f746f20766f74652e000000000000000000000000000000000000000000000000602082015250565b7f466f756e64206c6f6f7020696e2064656c65676174696f6e2e00000000000000600082015250565b7f54686520766f74657220616c726561647920766f7465642e0000000000000000600082015250565b7f53656c662d64656c65676174696f6e20697320646973616c6c6f7765642e0000600082015250565b6110a481610e58565b81146110af57600080fd5b50565b6110bb81610ea0565b81146110c657600080fd5b5056fea2646970667358221220fe1e734ac145f3f985c725f35d7e812441dd65c9883a7dd909381fabd8289c3464736f6c63430008070033",
					"opcodes": "PUSH1 0x80 PUSH1 0x40 MSTORE CALLVALUE DUP1 ISZERO PUSH3 0x11 JUMPI PUSH1 0x0 DUP1 REVERT JUMPDEST POP PUSH1 0x40 MLOAD PUSH3 0x1630 CODESIZE SUB DUP1 PUSH3 0x1630 DUP4 CODECOPY DUP2 DUP2 ADD PUSH1 0x40 MSTORE DUP2 ADD SWAP1 PUSH3 0x37 SWAP2 SWAP1 PUSH3 0x273 JUMP JUMPDEST CALLER PUSH1 0x2 PUSH1 0x0 PUSH2 0x100 EXP DUP2 SLOAD DUP2 PUSH20 0xFFFFFFFFFFFFFFFFFFFFFFFFFFFFFFFFFFFFFFFF MUL NOT AND SWAP1 DUP4 PUSH20 0xFFFFFFFFFFFFFFFFFFFFFFFFFFFFFFFFFFFFFFFF AND MUL OR SWAP1 SSTORE POP PUSH1 0x1 PUSH1 0x3 PUSH1 0x0 PUSH1 0x2 PUSH1 0x0 SWAP1 SLOAD SWAP1 PUSH2 0x100 EXP SWAP1 DIV PUSH20 0xFFFFFFFFFFFFFFFFFFFFFFFFFFFFFFFFFFFFFFFF AND PUSH20 0xFFFFFFFFFFFFFFFFFFFFFFFFFFFFFFFFFFFFFFFF AND PUSH20 0xFFFFFFFFFFFFFFFFFFFFFFFFFFFFFFFFFFFFFFFF AND DUP2 MSTORE PUSH1 0x20 ADD SWAP1 DUP2 MSTORE PUSH1 0x20 ADD PUSH1 0x0 KECCAK256 PUSH1 0x0 ADD DUP2 SWAP1 SSTORE POP DUP1 TIMESTAMP PUSH3 0xF0 SWAP2 SWAP1 PUSH3 0x346 JUMP JUMPDEST PUSH1 0x1 DUP2 SWAP1 SSTORE POP PUSH1 0x0 JUMPDEST DUP4 MLOAD DUP2 LT ISZERO PUSH3 0x18D JUMPI PUSH1 0x4 PUSH1 0x40 MLOAD DUP1 PUSH1 0x40 ADD PUSH1 0x40 MSTORE DUP1 DUP7 DUP5 DUP2 MLOAD DUP2 LT PUSH3 0x126 JUMPI PUSH3 0x125 PUSH3 0x46A JUMP JUMPDEST JUMPDEST PUSH1 0x20 MUL PUSH1 0x20 ADD ADD MLOAD DUP2 MSTORE PUSH1 0x20 ADD PUSH1 0x0 DUP2 MSTORE POP SWAP1 DUP1 PUSH1 0x1 DUP2 SLOAD ADD DUP1 DUP3 SSTORE DUP1 SWAP2 POP POP PUSH1 0x1 SWAP1 SUB SWAP1 PUSH1 0x0 MSTORE PUSH1 0x20 PUSH1 0x0 KECCAK256 SWAP1 PUSH1 0x2 MUL ADD PUSH1 0x0 SWAP1 SWAP2 SWAP1 SWAP2 SWAP1 SWAP2 POP PUSH1 0x0 DUP3 ADD MLOAD DUP2 PUSH1 0x0 ADD SSTORE PUSH1 0x20 DUP3 ADD MLOAD DUP2 PUSH1 0x1 ADD SSTORE POP POP DUP1 DUP1 PUSH3 0x184 SWAP1 PUSH3 0x3ED JUMP JUMPDEST SWAP2 POP POP PUSH3 0xF9 JUMP JUMPDEST POP POP POP POP PUSH3 0x521 JUMP JUMPDEST PUSH1 0x0 PUSH3 0x1AE PUSH3 0x1A8 DUP5 PUSH3 0x317 JUMP JUMPDEST PUSH3 0x2EE JUMP JUMPDEST SWAP1 POP DUP1 DUP4 DUP3 MSTORE PUSH1 0x20 DUP3 ADD SWAP1 POP DUP3 DUP6 PUSH1 0x20 DUP7 MUL DUP3 ADD GT ISZERO PUSH3 0x1D4 JUMPI PUSH3 0x1D3 PUSH3 0x4CD JUMP JUMPDEST JUMPDEST PUSH1 0x0 JUMPDEST DUP6 DUP2 LT ISZERO PUSH3 0x208 JUMPI DUP2 PUSH3 0x1ED DUP9 DUP3 PUSH3 0x245 JUMP JUMPDEST DUP5 MSTORE PUSH1 0x20 DUP5 ADD SWAP4 POP PUSH1 0x20 DUP4 ADD SWAP3 POP POP PUSH1 0x1 DUP2 ADD SWAP1 POP PUSH3 0x1D7 JUMP JUMPDEST POP POP POP SWAP4 SWAP3 POP POP POP JUMP JUMPDEST PUSH1 0x0 DUP3 PUSH1 0x1F DUP4 ADD SLT PUSH3 0x22A JUMPI PUSH3 0x229 PUSH3 0x4C8 JUMP JUMPDEST JUMPDEST DUP2 MLOAD PUSH3 0x23C DUP5 DUP3 PUSH1 0x20 DUP7 ADD PUSH3 0x197 JUMP JUMPDEST SWAP2 POP POP SWAP3 SWAP2 POP POP JUMP JUMPDEST PUSH1 0x0 DUP2 MLOAD SWAP1 POP PUSH3 0x256 DUP2 PUSH3 0x4ED JUMP JUMPDEST SWAP3 SWAP2 POP POP JUMP JUMPDEST PUSH1 0x0 DUP2 MLOAD SWAP1 POP PUSH3 0x26D DUP2 PUSH3 0x507 JUMP JUMPDEST SWAP3 SWAP2 POP POP JUMP JUMPDEST PUSH1 0x0 DUP1 PUSH1 0x0 PUSH1 0x60 DUP5 DUP7 SUB SLT ISZERO PUSH3 0x28F JUMPI PUSH3 0x28E PUSH3 0x4D7 JUMP JUMPDEST JUMPDEST PUSH1 0x0 DUP5 ADD MLOAD PUSH8 0xFFFFFFFFFFFFFFFF DUP2 GT ISZERO PUSH3 0x2B0 JUMPI PUSH3 0x2AF PUSH3 0x4D2 JUMP JUMPDEST JUMPDEST PUSH3 0x2BE DUP7 DUP3 DUP8 ADD PUSH3 0x212 JUMP JUMPDEST SWAP4 POP POP PUSH1 0x20 PUSH3 0x2D1 DUP7 DUP3 DUP8 ADD PUSH3 0x25C JUMP JUMPDEST SWAP3 POP POP PUSH1 0x40 PUSH3 0x2E4 DUP7 DUP3 DUP8 ADD PUSH3 0x25C JUMP JUMPDEST SWAP2 POP POP SWAP3 POP SWAP3 POP SWAP3 JUMP JUMPDEST PUSH1 0x0 PUSH3 0x2FA PUSH3 0x30D JUMP JUMPDEST SWAP1 POP PUSH3 0x308 DUP3 DUP3 PUSH3 0x3B7 JUMP JUMPDEST SWAP2 SWAP1 POP JUMP JUMPDEST PUSH1 0x0 PUSH1 0x40 MLOAD SWAP1 POP SWAP1 JUMP JUMPDEST PUSH1 0x0 PUSH8 0xFFFFFFFFFFFFFFFF DUP3 GT ISZERO PUSH3 0x335 JUMPI PUSH3 0x334 PUSH3 0x499 JUMP JUMPDEST JUMPDEST PUSH1 0x20 DUP3 MUL SWAP1 POP PUSH1 0x20 DUP2 ADD SWAP1 POP SWAP2 SWAP1 POP JUMP JUMPDEST PUSH1 0x0 PUSH3 0x353 DUP3 PUSH3 0x3AD JUMP JUMPDEST SWAP2 POP PUSH3 0x360 DUP4 PUSH3 0x3AD JUMP JUMPDEST SWAP3 POP DUP3 PUSH32 0xFFFFFFFFFFFFFFFFFFFFFFFFFFFFFFFFFFFFFFFFFFFFFFFFFFFFFFFFFFFFFFFF SUB DUP3 GT ISZERO PUSH3 0x398 JUMPI PUSH3 0x397 PUSH3 0x43B JUMP JUMPDEST JUMPDEST DUP3 DUP3 ADD SWAP1 POP SWAP3 SWAP2 POP POP JUMP JUMPDEST PUSH1 0x0 DUP2 SWAP1 POP SWAP2 SWAP1 POP JUMP JUMPDEST PUSH1 0x0 DUP2 SWAP1 POP SWAP2 SWAP1 POP JUMP JUMPDEST PUSH3 0x3C2 DUP3 PUSH3 0x4DC JUMP JUMPDEST DUP2 ADD DUP2 DUP2 LT PUSH8 0xFFFFFFFFFFFFFFFF DUP3 GT OR ISZERO PUSH3 0x3E4 JUMPI PUSH3 0x3E3 PUSH3 0x499 JUMP JUMPDEST JUMPDEST DUP1 PUSH1 0x40 MSTORE POP POP POP JUMP JUMPDEST PUSH1 0x0 PUSH3 0x3FA DUP3 PUSH3 0x3AD JUMP JUMPDEST SWAP2 POP PUSH32 0xFFFFFFFFFFFFFFFFFFFFFFFFFFFFFFFFFFFFFFFFFFFFFFFFFFFFFFFFFFFFFFFF DUP3 EQ ISZERO PUSH3 0x430 JUMPI PUSH3 0x42F PUSH3 0x43B JUMP JUMPDEST JUMPDEST PUSH1 0x1 DUP3 ADD SWAP1 POP SWAP2 SWAP1 POP JUMP JUMPDEST PUSH32 0x4E487B7100000000000000000000000000000000000000000000000000000000 PUSH1 0x0 MSTORE PUSH1 0x11 PUSH1 0x4 MSTORE PUSH1 0x24 PUSH1 0x0 REVERT JUMPDEST PUSH32 0x4E487B7100000000000000000000000000000000000000000000000000000000 PUSH1 0x0 MSTORE PUSH1 0x32 PUSH1 0x4 MSTORE PUSH1 0x24 PUSH1 0x0 REVERT JUMPDEST PUSH32 0x4E487B7100000000000000000000000000000000000000000000000000000000 PUSH1 0x0 MSTORE PUSH1 0x41 PUSH1 0x4 MSTORE PUSH1 0x24 PUSH1 0x0 REVERT JUMPDEST PUSH1 0x0 DUP1 REVERT JUMPDEST PUSH1 0x0 DUP1 REVERT JUMPDEST PUSH1 0x0 DUP1 REVERT JUMPDEST PUSH1 0x0 DUP1 REVERT JUMPDEST PUSH1 0x0 PUSH1 0x1F NOT PUSH1 0x1F DUP4 ADD AND SWAP1 POP SWAP2 SWAP1 POP JUMP JUMPDEST PUSH3 0x4F8 DUP2 PUSH3 0x3A3 JUMP JUMPDEST DUP2 EQ PUSH3 0x504 JUMPI PUSH1 0x0 DUP1 REVERT JUMPDEST POP JUMP JUMPDEST PUSH3 0x512 DUP2 PUSH3 0x3AD JUMP JUMPDEST DUP2 EQ PUSH3 0x51E JUMPI PUSH1 0x0 DUP1 REVERT JUMPDEST POP JUMP JUMPDEST PUSH2 0x10FF DUP1 PUSH3 0x531 PUSH1 0x0 CODECOPY PUSH1 0x0 RETURN INVALID PUSH1 0x80 PUSH1 0x40 MSTORE CALLVALUE DUP1 ISZERO PUSH2 0x10 JUMPI PUSH1 0x0 DUP1 REVERT JUMPDEST POP PUSH1 0x4 CALLDATASIZE LT PUSH2 0x9E JUMPI PUSH1 0x0 CALLDATALOAD PUSH1 0xE0 SHR DUP1 PUSH4 0x609FF1BD GT PUSH2 0x66 JUMPI DUP1 PUSH4 0x609FF1BD EQ PUSH2 0x148 JUMPI DUP1 PUSH4 0x78E97925 EQ PUSH2 0x166 JUMPI DUP1 PUSH4 0x9E7B8D61 EQ PUSH2 0x184 JUMPI DUP1 PUSH4 0xA3EC138D EQ PUSH2 0x1A0 JUMPI DUP1 PUSH4 0xE2BA53F0 EQ PUSH2 0x1D3 JUMPI PUSH2 0x9E JUMP JUMPDEST DUP1 PUSH4 0x121B93F EQ PUSH2 0xA3 JUMPI DUP1 PUSH4 0x13CF08B EQ PUSH2 0xBF JUMPI DUP1 PUSH4 0x2E4176CF EQ PUSH2 0xF0 JUMPI DUP1 PUSH4 0x3197CBB6 EQ PUSH2 0x10E JUMPI DUP1 PUSH4 0x5C19A95C EQ PUSH2 0x12C JUMPI JUMPDEST PUSH1 0x0 DUP1 REVERT JUMPDEST PUSH2 0xBD PUSH1 0x4 DUP1 CALLDATASIZE SUB DUP2 ADD SWAP1 PUSH2 0xB8 SWAP2 SWAP1 PUSH2 0xAF4 JUMP JUMPDEST PUSH2 0x1F1 JUMP JUMPDEST STOP JUMPDEST PUSH2 0xD9 PUSH1 0x4 DUP1 CALLDATASIZE SUB DUP2 ADD SWAP1 PUSH2 0xD4 SWAP2 SWAP1 PUSH2 0xAF4 JUMP JUMPDEST PUSH2 0x3C8 JUMP JUMPDEST PUSH1 0x40 MLOAD PUSH2 0xE7 SWAP3 SWAP2 SWAP1 PUSH2 0xC88 JUMP JUMPDEST PUSH1 0x40 MLOAD DUP1 SWAP2 SUB SWAP1 RETURN JUMPDEST PUSH2 0xF8 PUSH2 0x3FC JUMP JUMPDEST PUSH1 0x40 MLOAD PUSH2 0x105 SWAP2 SWAP1 PUSH2 0xC52 JUMP JUMPDEST PUSH1 0x40 MLOAD DUP1 SWAP2 SUB SWAP1 RETURN JUMPDEST PUSH2 0x116 PUSH2 0x422 JUMP JUMPDEST PUSH1 0x40 MLOAD PUSH2 0x123 SWAP2 SWAP1 PUSH2 0xD91 JUMP JUMPDEST PUSH1 0x40 MLOAD DUP1 SWAP2 SUB SWAP1 RETURN JUMPDEST PUSH2 0x146 PUSH1 0x4 DUP1 CALLDATASIZE SUB DUP2 ADD SWAP1 PUSH2 0x141 SWAP2 SWAP1 PUSH2 0xAC7 JUMP JUMPDEST PUSH2 0x428 JUMP JUMPDEST STOP JUMPDEST PUSH2 0x150 PUSH2 0x7C4 JUMP JUMPDEST PUSH1 0x40 MLOAD PUSH2 0x15D SWAP2 SWAP1 PUSH2 0xD91 JUMP JUMPDEST PUSH1 0x40 MLOAD DUP1 SWAP2 SUB SWAP1 RETURN JUMPDEST PUSH2 0x16E PUSH2 0x84C JUMP JUMPDEST PUSH1 0x40 MLOAD PUSH2 0x17B SWAP2 SWAP1 PUSH2 0xD91 JUMP JUMPDEST PUSH1 0x40 MLOAD DUP1 SWAP2 SUB SWAP1 RETURN JUMPDEST PUSH2 0x19E PUSH1 0x4 DUP1 CALLDATASIZE SUB DUP2 ADD SWAP1 PUSH2 0x199 SWAP2 SWAP1 PUSH2 0xAC7 JUMP JUMPDEST PUSH2 0x852 JUMP JUMPDEST STOP JUMPDEST PUSH2 0x1BA PUSH1 0x4 DUP1 CALLDATASIZE SUB DUP2 ADD SWAP1 PUSH2 0x1B5 SWAP2 SWAP1 PUSH2 0xAC7 JUMP JUMPDEST PUSH2 0xA0C JUMP JUMPDEST PUSH1 0x40 MLOAD PUSH2 0x1CA SWAP5 SWAP4 SWAP3 SWAP2 SWAP1 PUSH2 0xDAC JUMP JUMPDEST PUSH1 0x40 MLOAD DUP1 SWAP2 SUB SWAP1 RETURN JUMPDEST PUSH2 0x1DB PUSH2 0xA69 JUMP JUMPDEST PUSH1 0x40 MLOAD PUSH2 0x1E8 SWAP2 SWAP1 PUSH2 0xC6D JUMP JUMPDEST PUSH1 0x40 MLOAD DUP1 SWAP2 SUB SWAP1 RETURN JUMPDEST PUSH1 0x0 SLOAD DUP1 TIMESTAMP GT PUSH2 0x238 JUMPI DUP1 PUSH1 0x40 MLOAD PUSH32 0x2DE40E5500000000000000000000000000000000000000000000000000000000 DUP2 MSTORE PUSH1 0x4 ADD PUSH2 0x22F SWAP2 SWAP1 PUSH2 0xD91 JUMP JUMPDEST PUSH1 0x40 MLOAD DUP1 SWAP2 SUB SWAP1 REVERT JUMPDEST PUSH1 0x1 SLOAD DUP1 TIMESTAMP LT PUSH2 0x27F JUMPI DUP1 PUSH1 0x40 MLOAD PUSH32 0xB43A401D00000000000000000000000000000000000000000000000000000000 DUP2 MSTORE PUSH1 0x4 ADD PUSH2 0x276 SWAP2 SWAP1 PUSH2 0xD91 JUMP JUMPDEST PUSH1 0x40 MLOAD DUP1 SWAP2 SUB SWAP1 REVERT JUMPDEST PUSH1 0x0 PUSH1 0x3 PUSH1 0x0 CALLER PUSH20 0xFFFFFFFFFFFFFFFFFFFFFFFFFFFFFFFFFFFFFFFF AND PUSH20 0xFFFFFFFFFFFFFFFFFFFFFFFFFFFFFFFFFFFFFFFF AND DUP2 MSTORE PUSH1 0x20 ADD SWAP1 DUP2 MSTORE PUSH1 0x20 ADD PUSH1 0x0 KECCAK256 SWAP1 POP PUSH1 0x0 DUP2 PUSH1 0x0 ADD SLOAD EQ ISZERO PUSH2 0x30A JUMPI PUSH1 0x40 MLOAD PUSH32 0x8C379A000000000000000000000000000000000000000000000000000000000 DUP2 MSTORE PUSH1 0x4 ADD PUSH2 0x301 SWAP1 PUSH2 0xCB1 JUMP JUMPDEST PUSH1 0x40 MLOAD DUP1 SWAP2 SUB SWAP1 REVERT JUMPDEST DUP1 PUSH1 0x1 ADD PUSH1 0x0 SWAP1 SLOAD SWAP1 PUSH2 0x100 EXP SWAP1 DIV PUSH1 0xFF AND ISZERO PUSH2 0x35C JUMPI PUSH1 0x40 MLOAD PUSH32 0x8C379A000000000000000000000000000000000000000000000000000000000 DUP2 MSTORE PUSH1 0x4 ADD PUSH2 0x353 SWAP1 PUSH2 0xCD1 JUMP JUMPDEST PUSH1 0x40 MLOAD DUP1 SWAP2 SUB SWAP1 REVERT JUMPDEST PUSH1 0x1 DUP2 PUSH1 0x1 ADD PUSH1 0x0 PUSH2 0x100 EXP DUP2 SLOAD DUP2 PUSH1 0xFF MUL NOT AND SWAP1 DUP4 ISZERO ISZERO MUL OR SWAP1 SSTORE POP DUP4 DUP2 PUSH1 0x2 ADD DUP2 SWAP1 SSTORE POP DUP1 PUSH1 0x0 ADD SLOAD PUSH1 0x4 DUP6 DUP2 SLOAD DUP2 LT PUSH2 0x39B JUMPI PUSH2 0x39A PUSH2 0xF22 JUMP JUMPDEST JUMPDEST SWAP1 PUSH1 0x0 MSTORE PUSH1 0x20 PUSH1 0x0 KECCAK256 SWAP1 PUSH1 0x2 MUL ADD PUSH1 0x1 ADD PUSH1 0x0 DUP3 DUP3 SLOAD PUSH2 0x3BB SWAP2 SWAP1 PUSH2 0xE02 JUMP JUMPDEST SWAP3 POP POP DUP2 SWAP1 SSTORE POP POP POP POP POP JUMP JUMPDEST PUSH1 0x4 DUP2 DUP2 SLOAD DUP2 LT PUSH2 0x3D8 JUMPI PUSH1 0x0 DUP1 REVERT JUMPDEST SWAP1 PUSH1 0x0 MSTORE PUSH1 0x20 PUSH1 0x0 KECCAK256 SWAP1 PUSH1 0x2 MUL ADD PUSH1 0x0 SWAP2 POP SWAP1 POP DUP1 PUSH1 0x0 ADD SLOAD SWAP1 DUP1 PUSH1 0x1 ADD SLOAD SWAP1 POP DUP3 JUMP JUMPDEST PUSH1 0x2 PUSH1 0x0 SWAP1 SLOAD SWAP1 PUSH2 0x100 EXP SWAP1 DIV PUSH20 0xFFFFFFFFFFFFFFFFFFFFFFFFFFFFFFFFFFFFFFFF AND DUP2 JUMP JUMPDEST PUSH1 0x1 SLOAD DUP2 JUMP JUMPDEST PUSH1 0x0 PUSH1 0x3 PUSH1 0x0 CALLER PUSH20 0xFFFFFFFFFFFFFFFFFFFFFFFFFFFFFFFFFFFFFFFF AND PUSH20 0xFFFFFFFFFFFFFFFFFFFFFFFFFFFFFFFFFFFFFFFF AND DUP2 MSTORE PUSH1 0x20 ADD SWAP1 DUP2 MSTORE PUSH1 0x20 ADD PUSH1 0x0 KECCAK256 SWAP1 POP DUP1 PUSH1 0x1 ADD PUSH1 0x0 SWAP1 SLOAD SWAP1 PUSH2 0x100 EXP SWAP1 DIV PUSH1 0xFF AND ISZERO PUSH2 0x4BD JUMPI PUSH1 0x40 MLOAD PUSH32 0x8C379A000000000000000000000000000000000000000000000000000000000 DUP2 MSTORE PUSH1 0x4 ADD PUSH2 0x4B4 SWAP1 PUSH2 0xCF1 JUMP JUMPDEST PUSH1 0x40 MLOAD DUP1 SWAP2 SUB SWAP1 REVERT JUMPDEST CALLER PUSH20 0xFFFFFFFFFFFFFFFFFFFFFFFFFFFFFFFFFFFFFFFF AND DUP3 PUSH20 0xFFFFFFFFFFFFFFFFFFFFFFFFFFFFFFFFFFFFFFFF AND EQ ISZERO PUSH2 0x52C JUMPI PUSH1 0x40 MLOAD PUSH32 0x8C379A000000000000000000000000000000000000000000000000000000000 DUP2 MSTORE PUSH1 0x4 ADD PUSH2 0x523 SWAP1 PUSH2 0xD71 JUMP JUMPDEST PUSH1 0x40 MLOAD DUP1 SWAP2 SUB SWAP1 REVERT JUMPDEST JUMPDEST PUSH1 0x0 PUSH20 0xFFFFFFFFFFFFFFFFFFFFFFFFFFFFFFFFFFFFFFFF AND PUSH1 0x3 PUSH1 0x0 DUP5 PUSH20 0xFFFFFFFFFFFFFFFFFFFFFFFFFFFFFFFFFFFFFFFF AND PUSH20 0xFFFFFFFFFFFFFFFFFFFFFFFFFFFFFFFFFFFFFFFF AND DUP2 MSTORE PUSH1 0x20 ADD SWAP1 DUP2 MSTORE PUSH1 0x20 ADD PUSH1 0x0 KECCAK256 PUSH1 0x1 ADD PUSH1 0x1 SWAP1 SLOAD SWAP1 PUSH2 0x100 EXP SWAP1 DIV PUSH20 0xFFFFFFFFFFFFFFFFFFFFFFFFFFFFFFFFFFFFFFFF AND PUSH20 0xFFFFFFFFFFFFFFFFFFFFFFFFFFFFFFFFFFFFFFFF AND EQ PUSH2 0x69C JUMPI PUSH1 0x3 PUSH1 0x0 DUP4 PUSH20 0xFFFFFFFFFFFFFFFFFFFFFFFFFFFFFFFFFFFFFFFF AND PUSH20 0xFFFFFFFFFFFFFFFFFFFFFFFFFFFFFFFFFFFFFFFF AND DUP2 MSTORE PUSH1 0x20 ADD SWAP1 DUP2 MSTORE PUSH1 0x20 ADD PUSH1 0x0 KECCAK256 PUSH1 0x1 ADD PUSH1 0x1 SWAP1 SLOAD SWAP1 PUSH2 0x100 EXP SWAP1 DIV PUSH20 0xFFFFFFFFFFFFFFFFFFFFFFFFFFFFFFFFFFFFFFFF AND SWAP2 POP CALLER PUSH20 0xFFFFFFFFFFFFFFFFFFFFFFFFFFFFFFFFFFFFFFFF AND DUP3 PUSH20 0xFFFFFFFFFFFFFFFFFFFFFFFFFFFFFFFFFFFFFFFF AND EQ ISZERO PUSH2 0x697 JUMPI PUSH1 0x40 MLOAD PUSH32 0x8C379A000000000000000000000000000000000000000000000000000000000 DUP2 MSTORE PUSH1 0x4 ADD PUSH2 0x68E SWAP1 PUSH2 0xD31 JUMP JUMPDEST PUSH1 0x40 MLOAD DUP1 SWAP2 SUB SWAP1 REVERT JUMPDEST PUSH2 0x52D JUMP JUMPDEST PUSH1 0x1 DUP2 PUSH1 0x1 ADD PUSH1 0x0 PUSH2 0x100 EXP DUP2 SLOAD DUP2 PUSH1 0xFF MUL NOT AND SWAP1 DUP4 ISZERO ISZERO MUL OR SWAP1 SSTORE POP DUP2 DUP2 PUSH1 0x1 ADD PUSH1 0x1 PUSH2 0x100 EXP DUP2 SLOAD DUP2 PUSH20 0xFFFFFFFFFFFFFFFFFFFFFFFFFFFFFFFFFFFFFFFF MUL NOT AND SWAP1 DUP4 PUSH20 0xFFFFFFFFFFFFFFFFFFFFFFFFFFFFFFFFFFFFFFFF AND MUL OR SWAP1 SSTORE POP PUSH1 0x0 PUSH1 0x3 PUSH1 0x0 DUP5 PUSH20 0xFFFFFFFFFFFFFFFFFFFFFFFFFFFFFFFFFFFFFFFF AND PUSH20 0xFFFFFFFFFFFFFFFFFFFFFFFFFFFFFFFFFFFFFFFF AND DUP2 MSTORE PUSH1 0x20 ADD SWAP1 DUP2 MSTORE PUSH1 0x20 ADD PUSH1 0x0 KECCAK256 SWAP1 POP DUP1 PUSH1 0x1 ADD PUSH1 0x0 SWAP1 SLOAD SWAP1 PUSH2 0x100 EXP SWAP1 DIV PUSH1 0xFF AND ISZERO PUSH2 0x79F JUMPI DUP2 PUSH1 0x0 ADD SLOAD PUSH1 0x4 DUP3 PUSH1 0x2 ADD SLOAD DUP2 SLOAD DUP2 LT PUSH2 0x773 JUMPI PUSH2 0x772 PUSH2 0xF22 JUMP JUMPDEST JUMPDEST SWAP1 PUSH1 0x0 MSTORE PUSH1 0x20 PUSH1 0x0 KECCAK256 SWAP1 PUSH1 0x2 MUL ADD PUSH1 0x1 ADD PUSH1 0x0 DUP3 DUP3 SLOAD PUSH2 0x793 SWAP2 SWAP1 PUSH2 0xE02 JUMP JUMPDEST SWAP3 POP POP DUP2 SWAP1 SSTORE POP PUSH2 0x7BF JUMP JUMPDEST DUP2 PUSH1 0x0 ADD SLOAD DUP2 PUSH1 0x0 ADD PUSH1 0x0 DUP3 DUP3 SLOAD PUSH2 0x7B7 SWAP2 SWAP1 PUSH2 0xE02 JUMP JUMPDEST SWAP3 POP POP DUP2 SWAP1 SSTORE POP JUMPDEST POP POP POP JUMP JUMPDEST PUSH1 0x0 DUP1 PUSH1 0x0 SWAP1 POP PUSH1 0x0 JUMPDEST PUSH1 0x4 DUP1 SLOAD SWAP1 POP DUP2 LT ISZERO PUSH2 0x847 JUMPI DUP2 PUSH1 0x4 DUP3 DUP2 SLOAD DUP2 LT PUSH2 0x7F0 JUMPI PUSH2 0x7EF PUSH2 0xF22 JUMP JUMPDEST JUMPDEST SWAP1 PUSH1 0x0 MSTORE PUSH1 0x20 PUSH1 0x0 KECCAK256 SWAP1 PUSH1 0x2 MUL ADD PUSH1 0x1 ADD SLOAD GT ISZERO PUSH2 0x834 JUMPI PUSH1 0x4 DUP2 DUP2 SLOAD DUP2 LT PUSH2 0x81C JUMPI PUSH2 0x81B PUSH2 0xF22 JUMP JUMPDEST JUMPDEST SWAP1 PUSH1 0x0 MSTORE PUSH1 0x20 PUSH1 0x0 KECCAK256 SWAP1 PUSH1 0x2 MUL ADD PUSH1 0x1 ADD SLOAD SWAP2 POP DUP1 SWAP3 POP JUMPDEST DUP1 DUP1 PUSH2 0x83F SWAP1 PUSH2 0xEAA JUMP JUMPDEST SWAP2 POP POP PUSH2 0x7CE JUMP JUMPDEST POP POP SWAP1 JUMP JUMPDEST PUSH1 0x0 SLOAD DUP2 JUMP JUMPDEST PUSH1 0x2 PUSH1 0x0 SWAP1 SLOAD SWAP1 PUSH2 0x100 EXP SWAP1 DIV PUSH20 0xFFFFFFFFFFFFFFFFFFFFFFFFFFFFFFFFFFFFFFFF AND PUSH20 0xFFFFFFFFFFFFFFFFFFFFFFFFFFFFFFFFFFFFFFFF AND CALLER PUSH20 0xFFFFFFFFFFFFFFFFFFFFFFFFFFFFFFFFFFFFFFFF AND EQ PUSH2 0x8E2 JUMPI PUSH1 0x40 MLOAD PUSH32 0x8C379A000000000000000000000000000000000000000000000000000000000 DUP2 MSTORE PUSH1 0x4 ADD PUSH2 0x8D9 SWAP1 PUSH2 0xD11 JUMP JUMPDEST PUSH1 0x40 MLOAD DUP1 SWAP2 SUB SWAP1 REVERT JUMPDEST PUSH1 0x3 PUSH1 0x0 DUP3 PUSH20 0xFFFFFFFFFFFFFFFFFFFFFFFFFFFFFFFFFFFFFFFF AND PUSH20 0xFFFFFFFFFFFFFFFFFFFFFFFFFFFFFFFFFFFFFFFF AND DUP2 MSTORE PUSH1 0x20 ADD SWAP1 DUP2 MSTORE PUSH1 0x20 ADD PUSH1 0x0 KECCAK256 PUSH1 0x1 ADD PUSH1 0x0 SWAP1 SLOAD SWAP1 PUSH2 0x100 EXP SWAP1 DIV PUSH1 0xFF AND ISZERO PUSH2 0x972 JUMPI PUSH1 0x40 MLOAD PUSH32 0x8C379A000000000000000000000000000000000000000000000000000000000 DUP2 MSTORE PUSH1 0x4 ADD PUSH2 0x969 SWAP1 PUSH2 0xD51 JUMP JUMPDEST PUSH1 0x40 MLOAD DUP1 SWAP2 SUB SWAP1 REVERT JUMPDEST PUSH1 0x0 PUSH1 0x3 PUSH1 0x0 DUP4 PUSH20 0xFFFFFFFFFFFFFFFFFFFFFFFFFFFFFFFFFFFFFFFF AND PUSH20 0xFFFFFFFFFFFFFFFFFFFFFFFFFFFFFFFFFFFFFFFF AND DUP2 MSTORE PUSH1 0x20 ADD SWAP1 DUP2 MSTORE PUSH1 0x20 ADD PUSH1 0x0 KECCAK256 PUSH1 0x0 ADD SLOAD EQ PUSH2 0x9C1 JUMPI PUSH1 0x0 DUP1 REVERT JUMPDEST PUSH1 0x1 PUSH1 0x3 PUSH1 0x0 DUP4 PUSH20 0xFFFFFFFFFFFFFFFFFFFFFFFFFFFFFFFFFFFFFFFF AND PUSH20 0xFFFFFFFFFFFFFFFFFFFFFFFFFFFFFFFFFFFFFFFF AND DUP2 MSTORE PUSH1 0x20 ADD SWAP1 DUP2 MSTORE PUSH1 0x20 ADD PUSH1 0x0 KECCAK256 PUSH1 0x0 ADD DUP2 SWAP1 SSTORE POP POP JUMP JUMPDEST PUSH1 0x3 PUSH1 0x20 MSTORE DUP1 PUSH1 0x0 MSTORE PUSH1 0x40 PUSH1 0x0 KECCAK256 PUSH1 0x0 SWAP2 POP SWAP1 POP DUP1 PUSH1 0x0 ADD SLOAD SWAP1 DUP1 PUSH1 0x1 ADD PUSH1 0x0 SWAP1 SLOAD SWAP1 PUSH2 0x100 EXP SWAP1 DIV PUSH1 0xFF AND SWAP1 DUP1 PUSH1 0x1 ADD PUSH1 0x1 SWAP1 SLOAD SWAP1 PUSH2 0x100 EXP SWAP1 DIV PUSH20 0xFFFFFFFFFFFFFFFFFFFFFFFFFFFFFFFFFFFFFFFF AND SWAP1 DUP1 PUSH1 0x2 ADD SLOAD SWAP1 POP DUP5 JUMP JUMPDEST PUSH1 0x0 PUSH1 0x4 PUSH2 0xA75 PUSH2 0x7C4 JUMP JUMPDEST DUP2 SLOAD DUP2 LT PUSH2 0xA86 JUMPI PUSH2 0xA85 PUSH2 0xF22 JUMP JUMPDEST JUMPDEST SWAP1 PUSH1 0x0 MSTORE PUSH1 0x20 PUSH1 0x0 KECCAK256 SWAP1 PUSH1 0x2 MUL ADD PUSH1 0x0 ADD SLOAD SWAP1 POP SWAP1 JUMP JUMPDEST PUSH1 0x0 DUP2 CALLDATALOAD SWAP1 POP PUSH2 0xAAC DUP2 PUSH2 0x109B JUMP JUMPDEST SWAP3 SWAP2 POP POP JUMP JUMPDEST PUSH1 0x0 DUP2 CALLDATALOAD SWAP1 POP PUSH2 0xAC1 DUP2 PUSH2 0x10B2 JUMP JUMPDEST SWAP3 SWAP2 POP POP JUMP JUMPDEST PUSH1 0x0 PUSH1 0x20 DUP3 DUP5 SUB SLT ISZERO PUSH2 0xADD JUMPI PUSH2 0xADC PUSH2 0xF51 JUMP JUMPDEST JUMPDEST PUSH1 0x0 PUSH2 0xAEB DUP5 DUP3 DUP6 ADD PUSH2 0xA9D JUMP JUMPDEST SWAP2 POP POP SWAP3 SWAP2 POP POP JUMP JUMPDEST PUSH1 0x0 PUSH1 0x20 DUP3 DUP5 SUB SLT ISZERO PUSH2 0xB0A JUMPI PUSH2 0xB09 PUSH2 0xF51 JUMP JUMPDEST JUMPDEST PUSH1 0x0 PUSH2 0xB18 DUP5 DUP3 DUP6 ADD PUSH2 0xAB2 JUMP JUMPDEST SWAP2 POP POP SWAP3 SWAP2 POP POP JUMP JUMPDEST PUSH2 0xB2A DUP2 PUSH2 0xE58 JUMP JUMPDEST DUP3 MSTORE POP POP JUMP JUMPDEST PUSH2 0xB39 DUP2 PUSH2 0xE6A JUMP JUMPDEST DUP3 MSTORE POP POP JUMP JUMPDEST PUSH2 0xB48 DUP2 PUSH2 0xE76 JUMP JUMPDEST DUP3 MSTORE POP POP JUMP JUMPDEST PUSH1 0x0 PUSH2 0xB5B PUSH1 0x14 DUP4 PUSH2 0xDF1 JUMP JUMPDEST SWAP2 POP PUSH2 0xB66 DUP3 PUSH2 0xF56 JUMP JUMPDEST PUSH1 0x20 DUP3 ADD SWAP1 POP SWAP2 SWAP1 POP JUMP JUMPDEST PUSH1 0x0 PUSH2 0xB7E PUSH1 0xE DUP4 PUSH2 0xDF1 JUMP JUMPDEST SWAP2 POP PUSH2 0xB89 DUP3 PUSH2 0xF7F JUMP JUMPDEST PUSH1 0x20 DUP3 ADD SWAP1 POP SWAP2 SWAP1 POP JUMP JUMPDEST PUSH1 0x0 PUSH2 0xBA1 PUSH1 0x12 DUP4 PUSH2 0xDF1 JUMP JUMPDEST SWAP2 POP PUSH2 0xBAC DUP3 PUSH2 0xFA8 JUMP JUMPDEST PUSH1 0x20 DUP3 ADD SWAP1 POP SWAP2 SWAP1 POP JUMP JUMPDEST PUSH1 0x0 PUSH2 0xBC4 PUSH1 0x28 DUP4 PUSH2 0xDF1 JUMP JUMPDEST SWAP2 POP PUSH2 0xBCF DUP3 PUSH2 0xFD1 JUMP JUMPDEST PUSH1 0x40 DUP3 ADD SWAP1 POP SWAP2 SWAP1 POP JUMP JUMPDEST PUSH1 0x0 PUSH2 0xBE7 PUSH1 0x19 DUP4 PUSH2 0xDF1 JUMP JUMPDEST SWAP2 POP PUSH2 0xBF2 DUP3 PUSH2 0x1020 JUMP JUMPDEST PUSH1 0x20 DUP3 ADD SWAP1 POP SWAP2 SWAP1 POP JUMP JUMPDEST PUSH1 0x0 PUSH2 0xC0A PUSH1 0x18 DUP4 PUSH2 0xDF1 JUMP JUMPDEST SWAP2 POP PUSH2 0xC15 DUP3 PUSH2 0x1049 JUMP JUMPDEST PUSH1 0x20 DUP3 ADD SWAP1 POP SWAP2 SWAP1 POP JUMP JUMPDEST PUSH1 0x0 PUSH2 0xC2D PUSH1 0x1E DUP4 PUSH2 0xDF1 JUMP JUMPDEST SWAP2 POP PUSH2 0xC38 DUP3 PUSH2 0x1072 JUMP JUMPDEST PUSH1 0x20 DUP3 ADD SWAP1 POP SWAP2 SWAP1 POP JUMP JUMPDEST PUSH2 0xC4C DUP2 PUSH2 0xEA0 JUMP JUMPDEST DUP3 MSTORE POP POP JUMP JUMPDEST PUSH1 0x0 PUSH1 0x20 DUP3 ADD SWAP1 POP PUSH2 0xC67 PUSH1 0x0 DUP4 ADD DUP5 PUSH2 0xB21 JUMP JUMPDEST SWAP3 SWAP2 POP POP JUMP JUMPDEST PUSH1 0x0 PUSH1 0x20 DUP3 ADD SWAP1 POP PUSH2 0xC82 PUSH1 0x0 DUP4 ADD DUP5 PUSH2 0xB3F JUMP JUMPDEST SWAP3 SWAP2 POP POP JUMP JUMPDEST PUSH1 0x0 PUSH1 0x40 DUP3 ADD SWAP1 POP PUSH2 0xC9D PUSH1 0x0 DUP4 ADD DUP6 PUSH2 0xB3F JUMP JUMPDEST PUSH2 0xCAA PUSH1 0x20 DUP4 ADD DUP5 PUSH2 0xC43 JUMP JUMPDEST SWAP4 SWAP3 POP POP POP JUMP JUMPDEST PUSH1 0x0 PUSH1 0x20 DUP3 ADD SWAP1 POP DUP2 DUP2 SUB PUSH1 0x0 DUP4 ADD MSTORE PUSH2 0xCCA DUP2 PUSH2 0xB4E JUMP JUMPDEST SWAP1 POP SWAP2 SWAP1 POP JUMP JUMPDEST PUSH1 0x0 PUSH1 0x20 DUP3 ADD SWAP1 POP DUP2 DUP2 SUB PUSH1 0x0 DUP4 ADD MSTORE PUSH2 0xCEA DUP2 PUSH2 0xB71 JUMP JUMPDEST SWAP1 POP SWAP2 SWAP1 POP JUMP JUMPDEST PUSH1 0x0 PUSH1 0x20 DUP3 ADD SWAP1 POP DUP2 DUP2 SUB PUSH1 0x0 DUP4 ADD MSTORE PUSH2 0xD0A DUP2 PUSH2 0xB94 JUMP JUMPDEST SWAP1 POP SWAP2 SWAP1 POP JUMP JUMPDEST PUSH1 0x0 PUSH1 0x20 DUP3 ADD SWAP1 POP DUP2 DUP2 SUB PUSH1 0x0 DUP4 ADD MSTORE PUSH2 0xD2A DUP2 PUSH2 0xBB7 JUMP JUMPDEST SWAP1 POP SWAP2 SWAP1 POP JUMP JUMPDEST PUSH1 0x0 PUSH1 0x20 DUP3 ADD SWAP1 POP DUP2 DUP2 SUB PUSH1 0x0 DUP4 ADD MSTORE PUSH2 0xD4A DUP2 PUSH2 0xBDA JUMP JUMPDEST SWAP1 POP SWAP2 SWAP1 POP JUMP JUMPDEST PUSH1 0x0 PUSH1 0x20 DUP3 ADD SWAP1 POP DUP2 DUP2 SUB PUSH1 0x0 DUP4 ADD MSTORE PUSH2 0xD6A DUP2 PUSH2 0xBFD JUMP JUMPDEST SWAP1 POP SWAP2 SWAP1 POP JUMP JUMPDEST PUSH1 0x0 PUSH1 0x20 DUP3 ADD SWAP1 POP DUP2 DUP2 SUB PUSH1 0x0 DUP4 ADD MSTORE PUSH2 0xD8A DUP2 PUSH2 0xC20 JUMP JUMPDEST SWAP1 POP SWAP2 SWAP1 POP JUMP JUMPDEST PUSH1 0x0 PUSH1 0x20 DUP3 ADD SWAP1 POP PUSH2 0xDA6 PUSH1 0x0 DUP4 ADD DUP5 PUSH2 0xC43 JUMP JUMPDEST SWAP3 SWAP2 POP POP JUMP JUMPDEST PUSH1 0x0 PUSH1 0x80 DUP3 ADD SWAP1 POP PUSH2 0xDC1 PUSH1 0x0 DUP4 ADD DUP8 PUSH2 0xC43 JUMP JUMPDEST PUSH2 0xDCE PUSH1 0x20 DUP4 ADD DUP7 PUSH2 0xB30 JUMP JUMPDEST PUSH2 0xDDB PUSH1 0x40 DUP4 ADD DUP6 PUSH2 0xB21 JUMP JUMPDEST PUSH2 0xDE8 PUSH1 0x60 DUP4 ADD DUP5 PUSH2 0xC43 JUMP JUMPDEST SWAP6 SWAP5 POP POP POP POP POP JUMP JUMPDEST PUSH1 0x0 DUP3 DUP3 MSTORE PUSH1 0x20 DUP3 ADD SWAP1 POP SWAP3 SWAP2 POP POP JUMP JUMPDEST PUSH1 0x0 PUSH2 0xE0D DUP3 PUSH2 0xEA0 JUMP JUMPDEST SWAP2 POP PUSH2 0xE18 DUP4 PUSH2 0xEA0 JUMP JUMPDEST SWAP3 POP DUP3 PUSH32 0xFFFFFFFFFFFFFFFFFFFFFFFFFFFFFFFFFFFFFFFFFFFFFFFFFFFFFFFFFFFFFFFF SUB DUP3 GT ISZERO PUSH2 0xE4D JUMPI PUSH2 0xE4C PUSH2 0xEF3 JUMP JUMPDEST JUMPDEST DUP3 DUP3 ADD SWAP1 POP SWAP3 SWAP2 POP POP JUMP JUMPDEST PUSH1 0x0 PUSH2 0xE63 DUP3 PUSH2 0xE80 JUMP JUMPDEST SWAP1 POP SWAP2 SWAP1 POP JUMP JUMPDEST PUSH1 0x0 DUP2 ISZERO ISZERO SWAP1 POP SWAP2 SWAP1 POP JUMP JUMPDEST PUSH1 0x0 DUP2 SWAP1 POP SWAP2 SWAP1 POP JUMP JUMPDEST PUSH1 0x0 PUSH20 0xFFFFFFFFFFFFFFFFFFFFFFFFFFFFFFFFFFFFFFFF DUP3 AND SWAP1 POP SWAP2 SWAP1 POP JUMP JUMPDEST PUSH1 0x0 DUP2 SWAP1 POP SWAP2 SWAP1 POP JUMP JUMPDEST PUSH1 0x0 PUSH2 0xEB5 DUP3 PUSH2 0xEA0 JUMP JUMPDEST SWAP2 POP PUSH32 0xFFFFFFFFFFFFFFFFFFFFFFFFFFFFFFFFFFFFFFFFFFFFFFFFFFFFFFFFFFFFFFFF DUP3 EQ ISZERO PUSH2 0xEE8 JUMPI PUSH2 0xEE7 PUSH2 0xEF3 JUMP JUMPDEST JUMPDEST PUSH1 0x1 DUP3 ADD SWAP1 POP SWAP2 SWAP1 POP JUMP JUMPDEST PUSH32 0x4E487B7100000000000000000000000000000000000000000000000000000000 PUSH1 0x0 MSTORE PUSH1 0x11 PUSH1 0x4 MSTORE PUSH1 0x24 PUSH1 0x0 REVERT JUMPDEST PUSH32 0x4E487B7100000000000000000000000000000000000000000000000000000000 PUSH1 0x0 MSTORE PUSH1 0x32 PUSH1 0x4 MSTORE PUSH1 0x24 PUSH1 0x0 REVERT JUMPDEST PUSH1 0x0 DUP1 REVERT JUMPDEST PUSH32 0x486173206E6F20726967687420746F20766F7465000000000000000000000000 PUSH1 0x0 DUP3 ADD MSTORE POP JUMP JUMPDEST PUSH32 0x416C726561647920766F7465642E000000000000000000000000000000000000 PUSH1 0x0 DUP3 ADD MSTORE POP JUMP JUMPDEST PUSH32 0x596F7520616C726561647920766F7465642E0000000000000000000000000000 PUSH1 0x0 DUP3 ADD MSTORE POP JUMP JUMPDEST PUSH32 0x4F6E6C79206368616972706572736F6E2063616E206769766520726967687420 PUSH1 0x0 DUP3 ADD MSTORE PUSH32 0x746F20766F74652E000000000000000000000000000000000000000000000000 PUSH1 0x20 DUP3 ADD MSTORE POP JUMP JUMPDEST PUSH32 0x466F756E64206C6F6F7020696E2064656C65676174696F6E2E00000000000000 PUSH1 0x0 DUP3 ADD MSTORE POP JUMP JUMPDEST PUSH32 0x54686520766F74657220616C726561647920766F7465642E0000000000000000 PUSH1 0x0 DUP3 ADD MSTORE POP JUMP JUMPDEST PUSH32 0x53656C662D64656C65676174696F6E20697320646973616C6C6F7765642E0000 PUSH1 0x0 DUP3 ADD MSTORE POP JUMP JUMPDEST PUSH2 0x10A4 DUP2 PUSH2 0xE58 JUMP JUMPDEST DUP2 EQ PUSH2 0x10AF JUMPI PUSH1 0x0 DUP1 REVERT JUMPDEST POP JUMP JUMPDEST PUSH2 0x10BB DUP2 PUSH2 0xEA0 JUMP JUMPDEST DUP2 EQ PUSH2 0x10C6 JUMPI PUSH1 0x0 DUP1 REVERT JUMPDEST POP JUMP INVALID LOG2 PUSH5 0x6970667358 0x22 SLT KECCAK256 INVALID 0x1E PUSH20 0x4AC145F3F985C725F35D7E812441DD65C9883A7D 0xD9 MULMOD CODESIZE 0x1F 0xAB 0xD8 0x28 SWAP13 CALLVALUE PUSH5 0x736F6C6343 STOP ADDMOD SMOD STOP CALLER "
				},
				"gasEstimates": {
					"creation": {
						"codeDepositCost": "870200",
						"executionCost": "infinite",
						"totalCost": "infinite"
					},
					"external": {
						"chairperson()": "2559",
						"delegate(address)": "infinite",
						"endTime()": "2496",
						"giveRightToVote(address)": "29350",
						"proposals(uint256)": "infinite",
						"startTime()": "2451",
						"vote(uint256)": "infinite",
						"voters(address)": "infinite",
						"winnerName()": "infinite",
						"winningProposal()": "infinite"
					}
				},
				"methodIdentifiers": {
					"chairperson()": "2e4176cf",
					"delegate(address)": "5c19a95c",
					"endTime()": "3197cbb6",
					"giveRightToVote(address)": "9e7b8d61",
					"proposals(uint256)": "013cf08b",
					"startTime()": "78e97925",
					"vote(uint256)": "0121b93f",
					"voters(address)": "a3ec138d",
					"winnerName()": "e2ba53f0",
					"winningProposal()": "609ff1bd"
				}
			},
			"storageLayout": {
				"storage": [
					{
						"astId": 18,
						"contract": "ballot_voting/ballotvoting.sol:Ballot",
						"label": "startTime",
						"offset": 0,
						"slot": "0",
						"type": "t_uint256"
					},
					{
						"astId": 20,
						"contract": "ballot_voting/ballotvoting.sol:Ballot",
						"label": "endTime",
						"offset": 0,
						"slot": "1",
						"type": "t_uint256"
					},
					{
						"astId": 22,
						"contract": "ballot_voting/ballotvoting.sol:Ballot",
						"label": "chairperson",
						"offset": 0,
						"slot": "2",
						"type": "t_address"
					},
					{
						"astId": 27,
						"contract": "ballot_voting/ballotvoting.sol:Ballot",
						"label": "voters",
						"offset": 0,
						"slot": "3",
						"type": "t_mapping(t_address,t_struct(Voter)11_storage)"
					},
					{
						"astId": 39,
						"contract": "ballot_voting/ballotvoting.sol:Ballot",
						"label": "proposals",
						"offset": 0,
						"slot": "4",
						"type": "t_array(t_struct(Proposal)16_storage)dyn_storage"
					}
				],
				"types": {
					"t_address": {
						"encoding": "inplace",
						"label": "address",
						"numberOfBytes": "20"
					},
					"t_array(t_struct(Proposal)16_storage)dyn_storage": {
						"base": "t_struct(Proposal)16_storage",
						"encoding": "dynamic_array",
						"label": "struct Ballot.Proposal[]",
						"numberOfBytes": "32"
					},
					"t_bool": {
						"encoding": "inplace",
						"label": "bool",
						"numberOfBytes": "1"
					},
					"t_bytes32": {
						"encoding": "inplace",
						"label": "bytes32",
						"numberOfBytes": "32"
					},
					"t_mapping(t_address,t_struct(Voter)11_storage)": {
						"encoding": "mapping",
						"key": "t_address",
						"label": "mapping(address => struct Ballot.Voter)",
						"numberOfBytes": "32",
						"value": "t_struct(Voter)11_storage"
					},
					"t_struct(Proposal)16_storage": {
						"encoding": "inplace",
						"label": "struct Ballot.Proposal",
						"members": [
							{
								"astId": 13,
								"contract": "ballot_voting/ballotvoting.sol:Ballot",
								"label": "name",
								"offset": 0,
								"slot": "0",
								"type": "t_bytes32"
							},
							{
								"astId": 15,
								"contract": "ballot_voting/ballotvoting.sol:Ballot",
								"label": "voteCount",
								"offset": 0,
								"slot": "1",
								"type": "t_uint256"
							}
						],
						"numberOfBytes": "64"
					},
					"t_struct(Voter)11_storage": {
						"encoding": "inplace",
						"label": "struct Ballot.Voter",
						"members": [
							{
								"astId": 4,
								"contract": "ballot_voting/ballotvoting.sol:Ballot",
								"label": "weight",
								"offset": 0,
								"slot": "0",
								"type": "t_uint256"
							},
							{
								"astId": 6,
								"contract": "ballot_voting/ballotvoting.sol:Ballot",
								"label": "voted",
								"offset": 0,
								"slot": "1",
								"type": "t_bool"
							},
							{
								"astId": 8,
								"contract": "ballot_voting/ballotvoting.sol:Ballot",
								"label": "delegate",
								"offset": 1,
								"slot": "1",
								"type": "t_address"
							},
							{
								"astId": 10,
								"contract": "ballot_voting/ballotvoting.sol:Ballot",
								"label": "vote",
								"offset": 0,
								"slot": "2",
								"type": "t_uint256"
							}
						],
						"numberOfBytes": "96"
					},
					"t_uint256": {
						"encoding": "inplace",
						"label": "uint256",
						"numberOfBytes": "32"
					}
				}
			},
			"userdoc": {
				"kind": "user",
				"methods": {},
				"version": 1
			}
		}
	}
}