{
	"ballot_voting/ballotvoting.sol": {
		"Ballot": {
			"abi": [
				{
					"inputs": [
						{
							"internalType": "bytes32[]",
							"name": "proposalNames",
							"type": "bytes32[]"
						}
					],
					"stateMutability": "nonpayable",
					"type": "constructor"
				},
				{
					"anonymous": false,
					"inputs": [],
					"name": "endTime",
					"type": "event"
				},
				{
					"anonymous": false,
					"inputs": [],
					"name": "startTime",
					"type": "event"
				},
				{
					"anonymous": false,
					"inputs": [
						{
							"indexed": false,
							"internalType": "enum Ballot.workflowStatus",
							"name": "previousStatus",
							"type": "uint8"
						},
						{
							"indexed": false,
							"internalType": "enum Ballot.workflowStatus",
							"name": "newStatus",
							"type": "uint8"
						}
					],
					"name": "workflowStatusChanges",
					"type": "event"
				},
				{
					"inputs": [],
					"name": "chairperson",
					"outputs": [
						{
							"internalType": "address",
							"name": "",
							"type": "address"
						}
					],
					"stateMutability": "view",
					"type": "function"
				},
				{
					"inputs": [
						{
							"internalType": "address",
							"name": "to",
							"type": "address"
						}
					],
					"name": "delegate",
					"outputs": [],
					"stateMutability": "nonpayable",
					"type": "function"
				},
				{
					"inputs": [
						{
							"internalType": "address",
							"name": "voter",
							"type": "address"
						}
					],
					"name": "giveRightToVote",
					"outputs": [],
					"stateMutability": "nonpayable",
					"type": "function"
				},
				{
					"inputs": [
						{
							"internalType": "uint256",
							"name": "",
							"type": "uint256"
						}
					],
					"name": "proposals",
					"outputs": [
						{
							"internalType": "bytes32",
							"name": "name",
							"type": "bytes32"
						},
						{
							"internalType": "uint256",
							"name": "voteCount",
							"type": "uint256"
						}
					],
					"stateMutability": "view",
					"type": "function"
				},
				{
					"inputs": [],
					"name": "status",
					"outputs": [
						{
							"internalType": "enum Ballot.workflowStatus",
							"name": "",
							"type": "uint8"
						}
					],
					"stateMutability": "view",
					"type": "function"
				},
				{
					"inputs": [
						{
							"internalType": "uint256",
							"name": "proposal",
							"type": "uint256"
						}
					],
					"name": "vote",
					"outputs": [],
					"stateMutability": "nonpayable",
					"type": "function"
				},
				{
					"inputs": [
						{
							"internalType": "address",
							"name": "",
							"type": "address"
						}
					],
					"name": "voters",
					"outputs": [
						{
							"internalType": "uint256",
							"name": "weight",
							"type": "uint256"
						},
						{
							"internalType": "bool",
							"name": "voted",
							"type": "bool"
						},
						{
							"internalType": "address",
							"name": "delegate",
							"type": "address"
						},
						{
							"internalType": "uint256",
							"name": "vote",
							"type": "uint256"
						}
					],
					"stateMutability": "view",
					"type": "function"
				},
				{
					"inputs": [],
					"name": "winnerName",
					"outputs": [
						{
							"internalType": "bytes32",
							"name": "winnerName_",
							"type": "bytes32"
						}
					],
					"stateMutability": "view",
					"type": "function"
				},
				{
					"inputs": [],
					"name": "winningProposal",
					"outputs": [
						{
							"internalType": "uint256",
							"name": "winningProposal_",
							"type": "uint256"
						}
					],
					"stateMutability": "view",
					"type": "function"
				}
			],
			"devdoc": {
				"details": "Implements voting process along with vote delegation",
				"kind": "dev",
				"methods": {
					"constructor": {
						"details": "Create a new ballot to choose one of 'proposalNames'.",
						"params": {
							"proposalNames": "names of proposals"
						}
					},
					"delegate(address)": {
						"details": "Delegate your vote to the voter 'to'.",
						"params": {
							"to": "address to which vote is delegated"
						}
					},
					"giveRightToVote(address)": {
						"details": "Give 'voter' the right to vote on this ballot. May only be called by 'chairperson'.",
						"params": {
							"voter": "address of voter"
						}
					},
					"vote(uint256)": {
						"details": "Give your vote (including votes delegated to you) to proposal 'proposals[proposal].name'.",
						"params": {
							"proposal": "index of proposal in the proposals array"
						}
					},
					"winnerName()": {
						"details": "Calls winningProposal() function to get the index of the winner contained in the proposals array and then",
						"returns": {
							"winnerName_": "the name of the winner"
						}
					},
					"winningProposal()": {
						"details": "Computes the winning proposal taking all previous votes into account.",
						"returns": {
							"winningProposal_": "index of winning proposal in the proposals array"
						}
					}
				},
				"title": "Ballot",
				"version": 1
			},
			"evm": {
				"assembly": "    /* \"ballot_voting/ballotvoting.sol\":154:4910  contract Ballot {\r... */\n  mstore(0x40, 0x80)\n    /* \"ballot_voting/ballotvoting.sol\":1250:1744  constructor(bytes32[] memory proposalNames) {\r... */\n  callvalue\n  dup1\n  iszero\n  tag_1\n  jumpi\n  0x00\n  dup1\n  revert\ntag_1:\n  pop\n  mload(0x40)\n  sub(codesize, bytecodeSize)\n  dup1\n  bytecodeSize\n  dup4\n  codecopy\n  dup2\n  dup2\n  add\n  0x40\n  mstore\n  dup2\n  add\n  swap1\n  tag_2\n  swap2\n  swap1\n  tag_3\n  jump\t// in\ntag_2:\n    /* \"ballot_voting/ballotvoting.sol\":1319:1329  msg.sender */\n  caller\n    /* \"ballot_voting/ballotvoting.sol\":1305:1316  chairperson */\n  0x00\n  dup1\n    /* \"ballot_voting/ballotvoting.sol\":1305:1329  chairperson = msg.sender */\n  0x0100\n  exp\n  dup2\n  sload\n  dup2\n  0xffffffffffffffffffffffffffffffffffffffff\n  mul\n  not\n  and\n  swap1\n  dup4\n  0xffffffffffffffffffffffffffffffffffffffff\n  and\n  mul\n  or\n  swap1\n  sstore\n  pop\n    /* \"ballot_voting/ballotvoting.sol\":1369:1370  1 */\n  0x01\n    /* \"ballot_voting/ballotvoting.sol\":1340:1346  voters */\n  dup1\n    /* \"ballot_voting/ballotvoting.sol\":1340:1359  voters[chairperson] */\n  0x00\n    /* \"ballot_voting/ballotvoting.sol\":1347:1358  chairperson */\n  dup1\n  0x00\n  swap1\n  sload\n  swap1\n  0x0100\n  exp\n  swap1\n  div\n  0xffffffffffffffffffffffffffffffffffffffff\n  and\n    /* \"ballot_voting/ballotvoting.sol\":1340:1359  voters[chairperson] */\n  0xffffffffffffffffffffffffffffffffffffffff\n  and\n  0xffffffffffffffffffffffffffffffffffffffff\n  and\n  dup2\n  mstore\n  0x20\n  add\n  swap1\n  dup2\n  mstore\n  0x20\n  add\n  0x00\n  keccak256\n    /* \"ballot_voting/ballotvoting.sol\":1340:1366  voters[chairperson].weight */\n  0x00\n  add\n    /* \"ballot_voting/ballotvoting.sol\":1340:1370  voters[chairperson].weight = 1 */\n  dup2\n  swap1\n  sstore\n  pop\n    /* \"ballot_voting/ballotvoting.sol\":1388:1394  uint i */\n  0x00\n    /* \"ballot_voting/ballotvoting.sol\":1383:1737  for (uint i = 0; i < proposalNames.length; i++) {\r... */\ntag_6:\n    /* \"ballot_voting/ballotvoting.sol\":1404:1417  proposalNames */\n  dup2\n    /* \"ballot_voting/ballotvoting.sol\":1404:1424  proposalNames.length */\n  mload\n    /* \"ballot_voting/ballotvoting.sol\":1400:1401  i */\n  dup2\n    /* \"ballot_voting/ballotvoting.sol\":1400:1424  i < proposalNames.length */\n  lt\n    /* \"ballot_voting/ballotvoting.sol\":1383:1737  for (uint i = 0; i < proposalNames.length; i++) {\r... */\n  iszero\n  tag_7\n  jumpi\n    /* \"ballot_voting/ballotvoting.sol\":1612:1621  proposals */\n  0x03\n    /* \"ballot_voting/ballotvoting.sol\":1627:1724  Proposal({\r... */\n  mload(0x40)\n  dup1\n  0x40\n  add\n  0x40\n  mstore\n  dup1\n    /* \"ballot_voting/ballotvoting.sol\":1661:1674  proposalNames */\n  dup5\n    /* \"ballot_voting/ballotvoting.sol\":1675:1676  i */\n  dup5\n    /* \"ballot_voting/ballotvoting.sol\":1661:1677  proposalNames[i] */\n  dup2\n  mload\n  dup2\n  lt\n  tag_9\n  jumpi\n  tag_10\n  tag_11\n  jump\t// in\ntag_10:\ntag_9:\n  0x20\n  mul\n  0x20\n  add\n  add\n  mload\n    /* \"ballot_voting/ballotvoting.sol\":1627:1724  Proposal({\r... */\n  dup2\n  mstore\n  0x20\n  add\n    /* \"ballot_voting/ballotvoting.sol\":1707:1708  0 */\n  0x00\n    /* \"ballot_voting/ballotvoting.sol\":1627:1724  Proposal({\r... */\n  dup2\n  mstore\n  pop\n    /* \"ballot_voting/ballotvoting.sol\":1612:1725  proposals.push(Proposal({\r... */\n  swap1\n  dup1\n  0x01\n  dup2\n  sload\n  add\n  dup1\n  dup3\n  sstore\n  dup1\n  swap2\n  pop\n  pop\n  0x01\n  swap1\n  sub\n  swap1\n  0x00\n  mstore\n  keccak256(0x00, 0x20)\n  swap1\n  0x02\n  mul\n  add\n  0x00\n  swap1\n  swap2\n  swap1\n  swap2\n  swap1\n  swap2\n  pop\n  0x00\n  dup3\n  add\n  mload\n  dup2\n  0x00\n  add\n  sstore\n  0x20\n  dup3\n  add\n  mload\n  dup2\n  0x01\n  add\n  sstore\n  pop\n  pop\n    /* \"ballot_voting/ballotvoting.sol\":1426:1429  i++ */\n  dup1\n  dup1\n  tag_13\n  swap1\n  tag_14\n  jump\t// in\ntag_13:\n  swap2\n  pop\n  pop\n    /* \"ballot_voting/ballotvoting.sol\":1383:1737  for (uint i = 0; i < proposalNames.length; i++) {\r... */\n  jump(tag_6)\ntag_7:\n  pop\n    /* \"ballot_voting/ballotvoting.sol\":1250:1744  constructor(bytes32[] memory proposalNames) {\r... */\n  pop\n    /* \"ballot_voting/ballotvoting.sol\":154:4910  contract Ballot {\r... */\n  jump(tag_15)\n    /* \"#utility.yul\":24:768   */\ntag_17:\n    /* \"#utility.yul\":131:136   */\n  0x00\n    /* \"#utility.yul\":156:237   */\n  tag_19\n    /* \"#utility.yul\":172:236   */\n  tag_20\n    /* \"#utility.yul\":229:235   */\n  dup5\n    /* \"#utility.yul\":172:236   */\n  tag_21\n  jump\t// in\ntag_20:\n    /* \"#utility.yul\":156:237   */\n  tag_22\n  jump\t// in\ntag_19:\n    /* \"#utility.yul\":147:237   */\n  swap1\n  pop\n    /* \"#utility.yul\":257:262   */\n  dup1\n    /* \"#utility.yul\":286:292   */\n  dup4\n    /* \"#utility.yul\":279:284   */\n  dup3\n    /* \"#utility.yul\":272:293   */\n  mstore\n    /* \"#utility.yul\":320:324   */\n  0x20\n    /* \"#utility.yul\":313:318   */\n  dup3\n    /* \"#utility.yul\":309:325   */\n  add\n    /* \"#utility.yul\":302:325   */\n  swap1\n  pop\n    /* \"#utility.yul\":346:352   */\n  dup3\n    /* \"#utility.yul\":396:399   */\n  dup6\n    /* \"#utility.yul\":388:392   */\n  0x20\n    /* \"#utility.yul\":380:386   */\n  dup7\n    /* \"#utility.yul\":376:393   */\n  mul\n    /* \"#utility.yul\":371:374   */\n  dup3\n    /* \"#utility.yul\":367:394   */\n  add\n    /* \"#utility.yul\":364:400   */\n  gt\n    /* \"#utility.yul\":361:504   */\n  iszero\n  tag_23\n  jumpi\n    /* \"#utility.yul\":415:494   */\n  tag_24\n  tag_25\n  jump\t// in\ntag_24:\n    /* \"#utility.yul\":361:504   */\ntag_23:\n    /* \"#utility.yul\":528:529   */\n  0x00\n    /* \"#utility.yul\":513:762   */\ntag_26:\n    /* \"#utility.yul\":538:544   */\n  dup6\n    /* \"#utility.yul\":535:536   */\n  dup2\n    /* \"#utility.yul\":532:545   */\n  lt\n    /* \"#utility.yul\":513:762   */\n  iszero\n  tag_28\n  jumpi\n    /* \"#utility.yul\":606:609   */\n  dup2\n    /* \"#utility.yul\":635:683   */\n  tag_29\n    /* \"#utility.yul\":679:682   */\n  dup9\n    /* \"#utility.yul\":667:677   */\n  dup3\n    /* \"#utility.yul\":635:683   */\n  tag_30\n  jump\t// in\ntag_29:\n    /* \"#utility.yul\":630:633   */\n  dup5\n    /* \"#utility.yul\":623:684   */\n  mstore\n    /* \"#utility.yul\":713:717   */\n  0x20\n    /* \"#utility.yul\":708:711   */\n  dup5\n    /* \"#utility.yul\":704:718   */\n  add\n    /* \"#utility.yul\":697:718   */\n  swap4\n  pop\n    /* \"#utility.yul\":747:751   */\n  0x20\n    /* \"#utility.yul\":742:745   */\n  dup4\n    /* \"#utility.yul\":738:752   */\n  add\n    /* \"#utility.yul\":731:752   */\n  swap3\n  pop\n    /* \"#utility.yul\":573:762   */\n  pop\n    /* \"#utility.yul\":560:561   */\n  0x01\n    /* \"#utility.yul\":557:558   */\n  dup2\n    /* \"#utility.yul\":553:562   */\n  add\n    /* \"#utility.yul\":548:562   */\n  swap1\n  pop\n    /* \"#utility.yul\":513:762   */\n  jump(tag_26)\ntag_28:\n    /* \"#utility.yul\":517:531   */\n  pop\n    /* \"#utility.yul\":137:768   */\n  pop\n  pop\n    /* \"#utility.yul\":24:768   */\n  swap4\n  swap3\n  pop\n  pop\n  pop\n  jump\t// out\n    /* \"#utility.yul\":791:1176   */\ntag_31:\n    /* \"#utility.yul\":873:878   */\n  0x00\n    /* \"#utility.yul\":922:925   */\n  dup3\n    /* \"#utility.yul\":915:919   */\n  0x1f\n    /* \"#utility.yul\":907:913   */\n  dup4\n    /* \"#utility.yul\":903:920   */\n  add\n    /* \"#utility.yul\":899:926   */\n  slt\n    /* \"#utility.yul\":889:1011   */\n  tag_33\n  jumpi\n    /* \"#utility.yul\":930:1009   */\n  tag_34\n  tag_35\n  jump\t// in\ntag_34:\n    /* \"#utility.yul\":889:1011   */\ntag_33:\n    /* \"#utility.yul\":1040:1046   */\n  dup2\n    /* \"#utility.yul\":1034:1047   */\n  mload\n    /* \"#utility.yul\":1065:1170   */\n  tag_36\n    /* \"#utility.yul\":1166:1169   */\n  dup5\n    /* \"#utility.yul\":1158:1164   */\n  dup3\n    /* \"#utility.yul\":1151:1155   */\n  0x20\n    /* \"#utility.yul\":1143:1149   */\n  dup7\n    /* \"#utility.yul\":1139:1156   */\n  add\n    /* \"#utility.yul\":1065:1170   */\n  tag_17\n  jump\t// in\ntag_36:\n    /* \"#utility.yul\":1056:1170   */\n  swap2\n  pop\n    /* \"#utility.yul\":879:1176   */\n  pop\n    /* \"#utility.yul\":791:1176   */\n  swap3\n  swap2\n  pop\n  pop\n  jump\t// out\n    /* \"#utility.yul\":1182:1325   */\ntag_30:\n    /* \"#utility.yul\":1239:1244   */\n  0x00\n    /* \"#utility.yul\":1270:1276   */\n  dup2\n    /* \"#utility.yul\":1264:1277   */\n  mload\n    /* \"#utility.yul\":1255:1277   */\n  swap1\n  pop\n    /* \"#utility.yul\":1286:1319   */\n  tag_38\n    /* \"#utility.yul\":1313:1318   */\n  dup2\n    /* \"#utility.yul\":1286:1319   */\n  tag_39\n  jump\t// in\ntag_38:\n    /* \"#utility.yul\":1182:1325   */\n  swap3\n  swap2\n  pop\n  pop\n  jump\t// out\n    /* \"#utility.yul\":1331:1885   */\ntag_3:\n    /* \"#utility.yul\":1426:1432   */\n  0x00\n    /* \"#utility.yul\":1475:1477   */\n  0x20\n    /* \"#utility.yul\":1463:1472   */\n  dup3\n    /* \"#utility.yul\":1454:1461   */\n  dup5\n    /* \"#utility.yul\":1450:1473   */\n  sub\n    /* \"#utility.yul\":1446:1478   */\n  slt\n    /* \"#utility.yul\":1443:1562   */\n  iszero\n  tag_41\n  jumpi\n    /* \"#utility.yul\":1481:1560   */\n  tag_42\n  tag_43\n  jump\t// in\ntag_42:\n    /* \"#utility.yul\":1443:1562   */\ntag_41:\n    /* \"#utility.yul\":1622:1623   */\n  0x00\n    /* \"#utility.yul\":1611:1620   */\n  dup3\n    /* \"#utility.yul\":1607:1624   */\n  add\n    /* \"#utility.yul\":1601:1625   */\n  mload\n    /* \"#utility.yul\":1652:1670   */\n  0xffffffffffffffff\n    /* \"#utility.yul\":1644:1650   */\n  dup2\n    /* \"#utility.yul\":1641:1671   */\n  gt\n    /* \"#utility.yul\":1638:1755   */\n  iszero\n  tag_44\n  jumpi\n    /* \"#utility.yul\":1674:1753   */\n  tag_45\n  tag_46\n  jump\t// in\ntag_45:\n    /* \"#utility.yul\":1638:1755   */\ntag_44:\n    /* \"#utility.yul\":1779:1868   */\n  tag_47\n    /* \"#utility.yul\":1860:1867   */\n  dup5\n    /* \"#utility.yul\":1851:1857   */\n  dup3\n    /* \"#utility.yul\":1840:1849   */\n  dup6\n    /* \"#utility.yul\":1836:1858   */\n  add\n    /* \"#utility.yul\":1779:1868   */\n  tag_31\n  jump\t// in\ntag_47:\n    /* \"#utility.yul\":1769:1868   */\n  swap2\n  pop\n    /* \"#utility.yul\":1572:1878   */\n  pop\n    /* \"#utility.yul\":1331:1885   */\n  swap3\n  swap2\n  pop\n  pop\n  jump\t// out\n    /* \"#utility.yul\":1891:2020   */\ntag_22:\n    /* \"#utility.yul\":1925:1931   */\n  0x00\n    /* \"#utility.yul\":1952:1972   */\n  tag_49\n  tag_50\n  jump\t// in\ntag_49:\n    /* \"#utility.yul\":1942:1972   */\n  swap1\n  pop\n    /* \"#utility.yul\":1981:2014   */\n  tag_51\n    /* \"#utility.yul\":2009:2013   */\n  dup3\n    /* \"#utility.yul\":2001:2007   */\n  dup3\n    /* \"#utility.yul\":1981:2014   */\n  tag_52\n  jump\t// in\ntag_51:\n    /* \"#utility.yul\":1891:2020   */\n  swap2\n  swap1\n  pop\n  jump\t// out\n    /* \"#utility.yul\":2026:2101   */\ntag_50:\n    /* \"#utility.yul\":2059:2065   */\n  0x00\n    /* \"#utility.yul\":2092:2094   */\n  0x40\n    /* \"#utility.yul\":2086:2095   */\n  mload\n    /* \"#utility.yul\":2076:2095   */\n  swap1\n  pop\n    /* \"#utility.yul\":2026:2101   */\n  swap1\n  jump\t// out\n    /* \"#utility.yul\":2107:2418   */\ntag_21:\n    /* \"#utility.yul\":2184:2188   */\n  0x00\n    /* \"#utility.yul\":2274:2292   */\n  0xffffffffffffffff\n    /* \"#utility.yul\":2266:2272   */\n  dup3\n    /* \"#utility.yul\":2263:2293   */\n  gt\n    /* \"#utility.yul\":2260:2316   */\n  iszero\n  tag_55\n  jumpi\n    /* \"#utility.yul\":2296:2314   */\n  tag_56\n  tag_57\n  jump\t// in\ntag_56:\n    /* \"#utility.yul\":2260:2316   */\ntag_55:\n    /* \"#utility.yul\":2346:2350   */\n  0x20\n    /* \"#utility.yul\":2338:2344   */\n  dup3\n    /* \"#utility.yul\":2334:2351   */\n  mul\n    /* \"#utility.yul\":2326:2351   */\n  swap1\n  pop\n    /* \"#utility.yul\":2406:2410   */\n  0x20\n    /* \"#utility.yul\":2400:2404   */\n  dup2\n    /* \"#utility.yul\":2396:2411   */\n  add\n    /* \"#utility.yul\":2388:2411   */\n  swap1\n  pop\n    /* \"#utility.yul\":2107:2418   */\n  swap2\n  swap1\n  pop\n  jump\t// out\n    /* \"#utility.yul\":2424:2501   */\ntag_58:\n    /* \"#utility.yul\":2461:2468   */\n  0x00\n    /* \"#utility.yul\":2490:2495   */\n  dup2\n    /* \"#utility.yul\":2479:2495   */\n  swap1\n  pop\n    /* \"#utility.yul\":2424:2501   */\n  swap2\n  swap1\n  pop\n  jump\t// out\n    /* \"#utility.yul\":2507:2584   */\ntag_60:\n    /* \"#utility.yul\":2544:2551   */\n  0x00\n    /* \"#utility.yul\":2573:2578   */\n  dup2\n    /* \"#utility.yul\":2562:2578   */\n  swap1\n  pop\n    /* \"#utility.yul\":2507:2584   */\n  swap2\n  swap1\n  pop\n  jump\t// out\n    /* \"#utility.yul\":2590:2871   */\ntag_52:\n    /* \"#utility.yul\":2673:2700   */\n  tag_63\n    /* \"#utility.yul\":2695:2699   */\n  dup3\n    /* \"#utility.yul\":2673:2700   */\n  tag_64\n  jump\t// in\ntag_63:\n    /* \"#utility.yul\":2665:2671   */\n  dup2\n    /* \"#utility.yul\":2661:2701   */\n  add\n    /* \"#utility.yul\":2803:2809   */\n  dup2\n    /* \"#utility.yul\":2791:2801   */\n  dup2\n    /* \"#utility.yul\":2788:2810   */\n  lt\n    /* \"#utility.yul\":2767:2785   */\n  0xffffffffffffffff\n    /* \"#utility.yul\":2755:2765   */\n  dup3\n    /* \"#utility.yul\":2752:2786   */\n  gt\n    /* \"#utility.yul\":2749:2811   */\n  or\n    /* \"#utility.yul\":2746:2834   */\n  iszero\n  tag_65\n  jumpi\n    /* \"#utility.yul\":2814:2832   */\n  tag_66\n  tag_57\n  jump\t// in\ntag_66:\n    /* \"#utility.yul\":2746:2834   */\ntag_65:\n    /* \"#utility.yul\":2854:2864   */\n  dup1\n    /* \"#utility.yul\":2850:2852   */\n  0x40\n    /* \"#utility.yul\":2843:2865   */\n  mstore\n    /* \"#utility.yul\":2633:2871   */\n  pop\n    /* \"#utility.yul\":2590:2871   */\n  pop\n  pop\n  jump\t// out\n    /* \"#utility.yul\":2877:3110   */\ntag_14:\n    /* \"#utility.yul\":2916:2919   */\n  0x00\n    /* \"#utility.yul\":2939:2963   */\n  tag_68\n    /* \"#utility.yul\":2957:2962   */\n  dup3\n    /* \"#utility.yul\":2939:2963   */\n  tag_60\n  jump\t// in\ntag_68:\n    /* \"#utility.yul\":2930:2963   */\n  swap2\n  pop\n    /* \"#utility.yul\":2985:3051   */\n  0xffffffffffffffffffffffffffffffffffffffffffffffffffffffffffffffff\n    /* \"#utility.yul\":2978:2983   */\n  dup3\n    /* \"#utility.yul\":2975:3052   */\n  eq\n    /* \"#utility.yul\":2972:3075   */\n  iszero\n  tag_69\n  jumpi\n    /* \"#utility.yul\":3055:3073   */\n  tag_70\n  tag_71\n  jump\t// in\ntag_70:\n    /* \"#utility.yul\":2972:3075   */\ntag_69:\n    /* \"#utility.yul\":3102:3103   */\n  0x01\n    /* \"#utility.yul\":3095:3100   */\n  dup3\n    /* \"#utility.yul\":3091:3104   */\n  add\n    /* \"#utility.yul\":3084:3104   */\n  swap1\n  pop\n    /* \"#utility.yul\":2877:3110   */\n  swap2\n  swap1\n  pop\n  jump\t// out\n    /* \"#utility.yul\":3116:3296   */\ntag_71:\n    /* \"#utility.yul\":3164:3241   */\n  0x4e487b7100000000000000000000000000000000000000000000000000000000\n    /* \"#utility.yul\":3161:3162   */\n  0x00\n    /* \"#utility.yul\":3154:3242   */\n  mstore\n    /* \"#utility.yul\":3261:3265   */\n  0x11\n    /* \"#utility.yul\":3258:3259   */\n  0x04\n    /* \"#utility.yul\":3251:3266   */\n  mstore\n    /* \"#utility.yul\":3285:3289   */\n  0x24\n    /* \"#utility.yul\":3282:3283   */\n  0x00\n    /* \"#utility.yul\":3275:3290   */\n  revert\n    /* \"#utility.yul\":3302:3482   */\ntag_11:\n    /* \"#utility.yul\":3350:3427   */\n  0x4e487b7100000000000000000000000000000000000000000000000000000000\n    /* \"#utility.yul\":3347:3348   */\n  0x00\n    /* \"#utility.yul\":3340:3428   */\n  mstore\n    /* \"#utility.yul\":3447:3451   */\n  0x32\n    /* \"#utility.yul\":3444:3445   */\n  0x04\n    /* \"#utility.yul\":3437:3452   */\n  mstore\n    /* \"#utility.yul\":3471:3475   */\n  0x24\n    /* \"#utility.yul\":3468:3469   */\n  0x00\n    /* \"#utility.yul\":3461:3476   */\n  revert\n    /* \"#utility.yul\":3488:3668   */\ntag_57:\n    /* \"#utility.yul\":3536:3613   */\n  0x4e487b7100000000000000000000000000000000000000000000000000000000\n    /* \"#utility.yul\":3533:3534   */\n  0x00\n    /* \"#utility.yul\":3526:3614   */\n  mstore\n    /* \"#utility.yul\":3633:3637   */\n  0x41\n    /* \"#utility.yul\":3630:3631   */\n  0x04\n    /* \"#utility.yul\":3623:3638   */\n  mstore\n    /* \"#utility.yul\":3657:3661   */\n  0x24\n    /* \"#utility.yul\":3654:3655   */\n  0x00\n    /* \"#utility.yul\":3647:3662   */\n  revert\n    /* \"#utility.yul\":3674:3791   */\ntag_35:\n    /* \"#utility.yul\":3783:3784   */\n  0x00\n    /* \"#utility.yul\":3780:3781   */\n  dup1\n    /* \"#utility.yul\":3773:3785   */\n  revert\n    /* \"#utility.yul\":3797:3914   */\ntag_25:\n    /* \"#utility.yul\":3906:3907   */\n  0x00\n    /* \"#utility.yul\":3903:3904   */\n  dup1\n    /* \"#utility.yul\":3896:3908   */\n  revert\n    /* \"#utility.yul\":3920:4037   */\ntag_46:\n    /* \"#utility.yul\":4029:4030   */\n  0x00\n    /* \"#utility.yul\":4026:4027   */\n  dup1\n    /* \"#utility.yul\":4019:4031   */\n  revert\n    /* \"#utility.yul\":4043:4160   */\ntag_43:\n    /* \"#utility.yul\":4152:4153   */\n  0x00\n    /* \"#utility.yul\":4149:4150   */\n  dup1\n    /* \"#utility.yul\":4142:4154   */\n  revert\n    /* \"#utility.yul\":4166:4268   */\ntag_64:\n    /* \"#utility.yul\":4207:4213   */\n  0x00\n    /* \"#utility.yul\":4258:4260   */\n  0x1f\n    /* \"#utility.yul\":4254:4261   */\n  not\n    /* \"#utility.yul\":4249:4251   */\n  0x1f\n    /* \"#utility.yul\":4242:4247   */\n  dup4\n    /* \"#utility.yul\":4238:4252   */\n  add\n    /* \"#utility.yul\":4234:4262   */\n  and\n    /* \"#utility.yul\":4224:4262   */\n  swap1\n  pop\n    /* \"#utility.yul\":4166:4268   */\n  swap2\n  swap1\n  pop\n  jump\t// out\n    /* \"#utility.yul\":4274:4396   */\ntag_39:\n    /* \"#utility.yul\":4347:4371   */\n  tag_81\n    /* \"#utility.yul\":4365:4370   */\n  dup2\n    /* \"#utility.yul\":4347:4371   */\n  tag_58\n  jump\t// in\ntag_81:\n    /* \"#utility.yul\":4340:4345   */\n  dup2\n    /* \"#utility.yul\":4337:4372   */\n  eq\n    /* \"#utility.yul\":4327:4390   */\n  tag_82\n  jumpi\n    /* \"#utility.yul\":4386:4387   */\n  0x00\n    /* \"#utility.yul\":4383:4384   */\n  dup1\n    /* \"#utility.yul\":4376:4388   */\n  revert\n    /* \"#utility.yul\":4327:4390   */\ntag_82:\n    /* \"#utility.yul\":4274:4396   */\n  pop\n  jump\t// out\n    /* \"ballot_voting/ballotvoting.sol\":154:4910  contract Ballot {\r... */\ntag_15:\n  dataSize(sub_0)\n  dup1\n  dataOffset(sub_0)\n  0x00\n  codecopy\n  0x00\n  return\nstop\n\nsub_0: assembly {\n        /* \"ballot_voting/ballotvoting.sol\":154:4910  contract Ballot {\r... */\n      mstore(0x40, 0x80)\n      callvalue\n      dup1\n      iszero\n      tag_1\n      jumpi\n      0x00\n      dup1\n      revert\n    tag_1:\n      pop\n      jumpi(tag_2, lt(calldatasize, 0x04))\n      shr(0xe0, calldataload(0x00))\n      dup1\n      0x5c19a95c\n      gt\n      tag_12\n      jumpi\n      dup1\n      0x5c19a95c\n      eq\n      tag_7\n      jumpi\n      dup1\n      0x609ff1bd\n      eq\n      tag_8\n      jumpi\n      dup1\n      0x9e7b8d61\n      eq\n      tag_9\n      jumpi\n      dup1\n      0xa3ec138d\n      eq\n      tag_10\n      jumpi\n      dup1\n      0xe2ba53f0\n      eq\n      tag_11\n      jumpi\n      jump(tag_2)\n    tag_12:\n      dup1\n      0x0121b93f\n      eq\n      tag_3\n      jumpi\n      dup1\n      0x013cf08b\n      eq\n      tag_4\n      jumpi\n      dup1\n      0x200d2ed2\n      eq\n      tag_5\n      jumpi\n      dup1\n      0x2e4176cf\n      eq\n      tag_6\n      jumpi\n    tag_2:\n      0x00\n      dup1\n      revert\n        /* \"ballot_voting/ballotvoting.sol\":3526:3995  function vote(uint proposal) public {\r... */\n    tag_3:\n      tag_13\n      0x04\n      dup1\n      calldatasize\n      sub\n      dup2\n      add\n      swap1\n      tag_14\n      swap2\n      swap1\n      tag_15\n      jump\t// in\n    tag_14:\n      tag_16\n      jump\t// in\n    tag_13:\n      stop\n        /* \"ballot_voting/ballotvoting.sol\":1080:1107  Proposal[] public proposals */\n    tag_4:\n      tag_17\n      0x04\n      dup1\n      calldatasize\n      sub\n      dup2\n      add\n      swap1\n      tag_18\n      swap2\n      swap1\n      tag_15\n      jump\t// in\n    tag_18:\n      tag_19\n      jump\t// in\n    tag_17:\n      mload(0x40)\n      tag_20\n      swap3\n      swap2\n      swap1\n      tag_21\n      jump\t// in\n    tag_20:\n      mload(0x40)\n      dup1\n      swap2\n      sub\n      swap1\n      return\n        /* \"ballot_voting/ballotvoting.sol\":881:909  workflowStatus public status */\n    tag_5:\n      tag_22\n      tag_23\n      jump\t// in\n    tag_22:\n      mload(0x40)\n      tag_24\n      swap2\n      swap1\n      tag_25\n      jump\t// in\n    tag_24:\n      mload(0x40)\n      dup1\n      swap2\n      sub\n      swap1\n      return\n        /* \"ballot_voting/ballotvoting.sol\":725:751  address public chairperson */\n    tag_6:\n      tag_26\n      tag_27\n      jump\t// in\n    tag_26:\n      mload(0x40)\n      tag_28\n      swap2\n      swap1\n      tag_29\n      jump\t// in\n    tag_28:\n      mload(0x40)\n      dup1\n      swap2\n      sub\n      swap1\n      return\n        /* \"ballot_voting/ballotvoting.sol\":2402:3332  function delegate(address to) public {\r... */\n    tag_7:\n      tag_30\n      0x04\n      dup1\n      calldatasize\n      sub\n      dup2\n      add\n      swap1\n      tag_31\n      swap2\n      swap1\n      tag_32\n      jump\t// in\n    tag_31:\n      tag_33\n      jump\t// in\n    tag_30:\n      stop\n        /* \"ballot_voting/ballotvoting.sol\":4187:4562  function winningProposal() public view\r... */\n    tag_8:\n      tag_34\n      tag_35\n      jump\t// in\n    tag_34:\n      mload(0x40)\n      tag_36\n      swap2\n      swap1\n      tag_37\n      jump\t// in\n    tag_36:\n      mload(0x40)\n      dup1\n      swap2\n      sub\n      swap1\n      return\n        /* \"ballot_voting/ballotvoting.sol\":1906:2272  function giveRightToVote(address voter) public {\r... */\n    tag_9:\n      tag_38\n      0x04\n      dup1\n      calldatasize\n      sub\n      dup2\n      add\n      swap1\n      tag_39\n      swap2\n      swap1\n      tag_32\n      jump\t// in\n    tag_39:\n      tag_40\n      jump\t// in\n    tag_38:\n      stop\n        /* \"ballot_voting/ballotvoting.sol\":760:799  mapping(address => Voter) public voters */\n    tag_10:\n      tag_41\n      0x04\n      dup1\n      calldatasize\n      sub\n      dup2\n      add\n      swap1\n      tag_42\n      swap2\n      swap1\n      tag_32\n      jump\t// in\n    tag_42:\n      tag_43\n      jump\t// in\n    tag_41:\n      mload(0x40)\n      tag_44\n      swap5\n      swap4\n      swap3\n      swap2\n      swap1\n      tag_45\n      jump\t// in\n    tag_44:\n      mload(0x40)\n      dup1\n      swap2\n      sub\n      swap1\n      return\n        /* \"ballot_voting/ballotvoting.sol\":4759:4907  function winnerName() public view\r... */\n    tag_11:\n      tag_46\n      tag_47\n      jump\t// in\n    tag_46:\n      mload(0x40)\n      tag_48\n      swap2\n      swap1\n      tag_49\n      jump\t// in\n    tag_48:\n      mload(0x40)\n      dup1\n      swap2\n      sub\n      swap1\n      return\n        /* \"ballot_voting/ballotvoting.sol\":3526:3995  function vote(uint proposal) public {\r... */\n    tag_16:\n        /* \"ballot_voting/ballotvoting.sol\":3573:3593  Voter storage sender */\n      0x00\n        /* \"ballot_voting/ballotvoting.sol\":3596:3602  voters */\n      0x01\n        /* \"ballot_voting/ballotvoting.sol\":3596:3614  voters[msg.sender] */\n      0x00\n        /* \"ballot_voting/ballotvoting.sol\":3603:3613  msg.sender */\n      caller\n        /* \"ballot_voting/ballotvoting.sol\":3596:3614  voters[msg.sender] */\n      0xffffffffffffffffffffffffffffffffffffffff\n      and\n      0xffffffffffffffffffffffffffffffffffffffff\n      and\n      dup2\n      mstore\n      0x20\n      add\n      swap1\n      dup2\n      mstore\n      0x20\n      add\n      0x00\n      keccak256\n        /* \"ballot_voting/ballotvoting.sol\":3573:3614  Voter storage sender = voters[msg.sender] */\n      swap1\n      pop\n        /* \"ballot_voting/ballotvoting.sol\":3650:3651  0 */\n      0x00\n        /* \"ballot_voting/ballotvoting.sol\":3633:3639  sender */\n      dup2\n        /* \"ballot_voting/ballotvoting.sol\":3633:3646  sender.weight */\n      0x00\n      add\n      sload\n        /* \"ballot_voting/ballotvoting.sol\":3633:3651  sender.weight != 0 */\n      eq\n      iszero\n        /* \"ballot_voting/ballotvoting.sol\":3625:3676  require(sender.weight != 0, \"Has no right to vote\") */\n      tag_51\n      jumpi\n      mload(0x40)\n      0x08c379a000000000000000000000000000000000000000000000000000000000\n      dup2\n      mstore\n      0x04\n      add\n      tag_52\n      swap1\n      tag_53\n      jump\t// in\n    tag_52:\n      mload(0x40)\n      dup1\n      swap2\n      sub\n      swap1\n      revert\n    tag_51:\n        /* \"ballot_voting/ballotvoting.sol\":3696:3702  sender */\n      dup1\n        /* \"ballot_voting/ballotvoting.sol\":3696:3708  sender.voted */\n      0x01\n      add\n      0x00\n      swap1\n      sload\n      swap1\n      0x0100\n      exp\n      swap1\n      div\n      0xff\n      and\n        /* \"ballot_voting/ballotvoting.sol\":3695:3708  !sender.voted */\n      iszero\n        /* \"ballot_voting/ballotvoting.sol\":3687:3727  require(!sender.voted, \"Already voted.\") */\n      tag_54\n      jumpi\n      mload(0x40)\n      0x08c379a000000000000000000000000000000000000000000000000000000000\n      dup2\n      mstore\n      0x04\n      add\n      tag_55\n      swap1\n      tag_56\n      jump\t// in\n    tag_55:\n      mload(0x40)\n      dup1\n      swap2\n      sub\n      swap1\n      revert\n    tag_54:\n        /* \"ballot_voting/ballotvoting.sol\":3753:3757  true */\n      0x01\n        /* \"ballot_voting/ballotvoting.sol\":3738:3744  sender */\n      dup2\n        /* \"ballot_voting/ballotvoting.sol\":3738:3750  sender.voted */\n      0x01\n      add\n      0x00\n        /* \"ballot_voting/ballotvoting.sol\":3738:3757  sender.voted = true */\n      0x0100\n      exp\n      dup2\n      sload\n      dup2\n      0xff\n      mul\n      not\n      and\n      swap1\n      dup4\n      iszero\n      iszero\n      mul\n      or\n      swap1\n      sstore\n      pop\n        /* \"ballot_voting/ballotvoting.sol\":3782:3790  proposal */\n      dup2\n        /* \"ballot_voting/ballotvoting.sol\":3768:3774  sender */\n      dup2\n        /* \"ballot_voting/ballotvoting.sol\":3768:3779  sender.vote */\n      0x02\n      add\n        /* \"ballot_voting/ballotvoting.sol\":3768:3790  sender.vote = proposal */\n      dup2\n      swap1\n      sstore\n      pop\n        /* \"ballot_voting/ballotvoting.sol\":3974:3980  sender */\n      dup1\n        /* \"ballot_voting/ballotvoting.sol\":3974:3987  sender.weight */\n      0x00\n      add\n      sload\n        /* \"ballot_voting/ballotvoting.sol\":3941:3950  proposals */\n      0x03\n        /* \"ballot_voting/ballotvoting.sol\":3951:3959  proposal */\n      dup4\n        /* \"ballot_voting/ballotvoting.sol\":3941:3960  proposals[proposal] */\n      dup2\n      sload\n      dup2\n      lt\n      tag_57\n      jumpi\n      tag_58\n      tag_59\n      jump\t// in\n    tag_58:\n    tag_57:\n      swap1\n      0x00\n      mstore\n      keccak256(0x00, 0x20)\n      swap1\n      0x02\n      mul\n      add\n        /* \"ballot_voting/ballotvoting.sol\":3941:3970  proposals[proposal].voteCount */\n      0x01\n      add\n      0x00\n        /* \"ballot_voting/ballotvoting.sol\":3941:3987  proposals[proposal].voteCount += sender.weight */\n      dup3\n      dup3\n      sload\n      tag_61\n      swap2\n      swap1\n      tag_62\n      jump\t// in\n    tag_61:\n      swap3\n      pop\n      pop\n      dup2\n      swap1\n      sstore\n      pop\n        /* \"ballot_voting/ballotvoting.sol\":3562:3995  {\r... */\n      pop\n        /* \"ballot_voting/ballotvoting.sol\":3526:3995  function vote(uint proposal) public {\r... */\n      pop\n      jump\t// out\n        /* \"ballot_voting/ballotvoting.sol\":1080:1107  Proposal[] public proposals */\n    tag_19:\n      0x03\n      dup2\n      dup2\n      sload\n      dup2\n      lt\n      tag_63\n      jumpi\n      0x00\n      dup1\n      revert\n    tag_63:\n      swap1\n      0x00\n      mstore\n      keccak256(0x00, 0x20)\n      swap1\n      0x02\n      mul\n      add\n      0x00\n      swap2\n      pop\n      swap1\n      pop\n      dup1\n      0x00\n      add\n      sload\n      swap1\n      dup1\n      0x01\n      add\n      sload\n      swap1\n      pop\n      dup3\n      jump\t// out\n        /* \"ballot_voting/ballotvoting.sol\":881:909  workflowStatus public status */\n    tag_23:\n      0x02\n      0x00\n      swap1\n      sload\n      swap1\n      0x0100\n      exp\n      swap1\n      div\n      0xff\n      and\n      dup2\n      jump\t// out\n        /* \"ballot_voting/ballotvoting.sol\":725:751  address public chairperson */\n    tag_27:\n      0x00\n      dup1\n      sload\n      swap1\n      0x0100\n      exp\n      swap1\n      div\n      0xffffffffffffffffffffffffffffffffffffffff\n      and\n      dup2\n      jump\t// out\n        /* \"ballot_voting/ballotvoting.sol\":2402:3332  function delegate(address to) public {\r... */\n    tag_33:\n        /* \"ballot_voting/ballotvoting.sol\":2450:2470  Voter storage sender */\n      0x00\n        /* \"ballot_voting/ballotvoting.sol\":2473:2479  voters */\n      0x01\n        /* \"ballot_voting/ballotvoting.sol\":2473:2491  voters[msg.sender] */\n      0x00\n        /* \"ballot_voting/ballotvoting.sol\":2480:2490  msg.sender */\n      caller\n        /* \"ballot_voting/ballotvoting.sol\":2473:2491  voters[msg.sender] */\n      0xffffffffffffffffffffffffffffffffffffffff\n      and\n      0xffffffffffffffffffffffffffffffffffffffff\n      and\n      dup2\n      mstore\n      0x20\n      add\n      swap1\n      dup2\n      mstore\n      0x20\n      add\n      0x00\n      keccak256\n        /* \"ballot_voting/ballotvoting.sol\":2450:2491  Voter storage sender = voters[msg.sender] */\n      swap1\n      pop\n        /* \"ballot_voting/ballotvoting.sol\":2511:2517  sender */\n      dup1\n        /* \"ballot_voting/ballotvoting.sol\":2511:2523  sender.voted */\n      0x01\n      add\n      0x00\n      swap1\n      sload\n      swap1\n      0x0100\n      exp\n      swap1\n      div\n      0xff\n      and\n        /* \"ballot_voting/ballotvoting.sol\":2510:2523  !sender.voted */\n      iszero\n        /* \"ballot_voting/ballotvoting.sol\":2502:2546  require(!sender.voted, \"You already voted.\") */\n      tag_66\n      jumpi\n      mload(0x40)\n      0x08c379a000000000000000000000000000000000000000000000000000000000\n      dup2\n      mstore\n      0x04\n      add\n      tag_67\n      swap1\n      tag_68\n      jump\t// in\n    tag_67:\n      mload(0x40)\n      dup1\n      swap2\n      sub\n      swap1\n      revert\n    tag_66:\n        /* \"ballot_voting/ballotvoting.sol\":2571:2581  msg.sender */\n      caller\n        /* \"ballot_voting/ballotvoting.sol\":2565:2581  to != msg.sender */\n      0xffffffffffffffffffffffffffffffffffffffff\n      and\n        /* \"ballot_voting/ballotvoting.sol\":2565:2567  to */\n      dup3\n        /* \"ballot_voting/ballotvoting.sol\":2565:2581  to != msg.sender */\n      0xffffffffffffffffffffffffffffffffffffffff\n      and\n      eq\n      iszero\n        /* \"ballot_voting/ballotvoting.sol\":2557:2616  require(to != msg.sender, \"Self-delegation is disallowed.\") */\n      tag_69\n      jumpi\n      mload(0x40)\n      0x08c379a000000000000000000000000000000000000000000000000000000000\n      dup2\n      mstore\n      0x04\n      add\n      tag_70\n      swap1\n      tag_71\n      jump\t// in\n    tag_70:\n      mload(0x40)\n      dup1\n      swap2\n      sub\n      swap1\n      revert\n    tag_69:\n        /* \"ballot_voting/ballotvoting.sol\":2629:2857  while (voters[to].delegate != address(0)) {\r... */\n    tag_72:\n        /* \"ballot_voting/ballotvoting.sol\":2667:2668  0 */\n      0x00\n        /* \"ballot_voting/ballotvoting.sol\":2636:2669  voters[to].delegate != address(0) */\n      0xffffffffffffffffffffffffffffffffffffffff\n      and\n        /* \"ballot_voting/ballotvoting.sol\":2636:2642  voters */\n      0x01\n        /* \"ballot_voting/ballotvoting.sol\":2636:2646  voters[to] */\n      0x00\n        /* \"ballot_voting/ballotvoting.sol\":2643:2645  to */\n      dup5\n        /* \"ballot_voting/ballotvoting.sol\":2636:2646  voters[to] */\n      0xffffffffffffffffffffffffffffffffffffffff\n      and\n      0xffffffffffffffffffffffffffffffffffffffff\n      and\n      dup2\n      mstore\n      0x20\n      add\n      swap1\n      dup2\n      mstore\n      0x20\n      add\n      0x00\n      keccak256\n        /* \"ballot_voting/ballotvoting.sol\":2636:2655  voters[to].delegate */\n      0x01\n      add\n      0x01\n      swap1\n      sload\n      swap1\n      0x0100\n      exp\n      swap1\n      div\n      0xffffffffffffffffffffffffffffffffffffffff\n      and\n        /* \"ballot_voting/ballotvoting.sol\":2636:2669  voters[to].delegate != address(0) */\n      0xffffffffffffffffffffffffffffffffffffffff\n      and\n      eq\n        /* \"ballot_voting/ballotvoting.sol\":2629:2857  while (voters[to].delegate != address(0)) {\r... */\n      tag_73\n      jumpi\n        /* \"ballot_voting/ballotvoting.sol\":2691:2697  voters */\n      0x01\n        /* \"ballot_voting/ballotvoting.sol\":2691:2701  voters[to] */\n      0x00\n        /* \"ballot_voting/ballotvoting.sol\":2698:2700  to */\n      dup4\n        /* \"ballot_voting/ballotvoting.sol\":2691:2701  voters[to] */\n      0xffffffffffffffffffffffffffffffffffffffff\n      and\n      0xffffffffffffffffffffffffffffffffffffffff\n      and\n      dup2\n      mstore\n      0x20\n      add\n      swap1\n      dup2\n      mstore\n      0x20\n      add\n      0x00\n      keccak256\n        /* \"ballot_voting/ballotvoting.sol\":2691:2710  voters[to].delegate */\n      0x01\n      add\n      0x01\n      swap1\n      sload\n      swap1\n      0x0100\n      exp\n      swap1\n      div\n      0xffffffffffffffffffffffffffffffffffffffff\n      and\n        /* \"ballot_voting/ballotvoting.sol\":2686:2710  to = voters[to].delegate */\n      swap2\n      pop\n        /* \"ballot_voting/ballotvoting.sol\":2805:2815  msg.sender */\n      caller\n        /* \"ballot_voting/ballotvoting.sol\":2799:2815  to != msg.sender */\n      0xffffffffffffffffffffffffffffffffffffffff\n      and\n        /* \"ballot_voting/ballotvoting.sol\":2799:2801  to */\n      dup3\n        /* \"ballot_voting/ballotvoting.sol\":2799:2815  to != msg.sender */\n      0xffffffffffffffffffffffffffffffffffffffff\n      and\n      eq\n      iszero\n        /* \"ballot_voting/ballotvoting.sol\":2791:2845  require(to != msg.sender, \"Found loop in delegation.\") */\n      tag_74\n      jumpi\n      mload(0x40)\n      0x08c379a000000000000000000000000000000000000000000000000000000000\n      dup2\n      mstore\n      0x04\n      add\n      tag_75\n      swap1\n      tag_76\n      jump\t// in\n    tag_75:\n      mload(0x40)\n      dup1\n      swap2\n      sub\n      swap1\n      revert\n    tag_74:\n        /* \"ballot_voting/ballotvoting.sol\":2629:2857  while (voters[to].delegate != address(0)) {\r... */\n      jump(tag_72)\n    tag_73:\n        /* \"ballot_voting/ballotvoting.sol\":2882:2886  true */\n      0x01\n        /* \"ballot_voting/ballotvoting.sol\":2867:2873  sender */\n      dup2\n        /* \"ballot_voting/ballotvoting.sol\":2867:2879  sender.voted */\n      0x01\n      add\n      0x00\n        /* \"ballot_voting/ballotvoting.sol\":2867:2886  sender.voted = true */\n      0x0100\n      exp\n      dup2\n      sload\n      dup2\n      0xff\n      mul\n      not\n      and\n      swap1\n      dup4\n      iszero\n      iszero\n      mul\n      or\n      swap1\n      sstore\n      pop\n        /* \"ballot_voting/ballotvoting.sol\":2915:2917  to */\n      dup2\n        /* \"ballot_voting/ballotvoting.sol\":2897:2903  sender */\n      dup2\n        /* \"ballot_voting/ballotvoting.sol\":2897:2912  sender.delegate */\n      0x01\n      add\n      0x01\n        /* \"ballot_voting/ballotvoting.sol\":2897:2917  sender.delegate = to */\n      0x0100\n      exp\n      dup2\n      sload\n      dup2\n      0xffffffffffffffffffffffffffffffffffffffff\n      mul\n      not\n      and\n      swap1\n      dup4\n      0xffffffffffffffffffffffffffffffffffffffff\n      and\n      mul\n      or\n      swap1\n      sstore\n      pop\n        /* \"ballot_voting/ballotvoting.sol\":2928:2951  Voter storage delegate_ */\n      0x00\n        /* \"ballot_voting/ballotvoting.sol\":2954:2960  voters */\n      0x01\n        /* \"ballot_voting/ballotvoting.sol\":2954:2964  voters[to] */\n      0x00\n        /* \"ballot_voting/ballotvoting.sol\":2961:2963  to */\n      dup5\n        /* \"ballot_voting/ballotvoting.sol\":2954:2964  voters[to] */\n      0xffffffffffffffffffffffffffffffffffffffff\n      and\n      0xffffffffffffffffffffffffffffffffffffffff\n      and\n      dup2\n      mstore\n      0x20\n      add\n      swap1\n      dup2\n      mstore\n      0x20\n      add\n      0x00\n      keccak256\n        /* \"ballot_voting/ballotvoting.sol\":2928:2964  Voter storage delegate_ = voters[to] */\n      swap1\n      pop\n        /* \"ballot_voting/ballotvoting.sol\":2979:2988  delegate_ */\n      dup1\n        /* \"ballot_voting/ballotvoting.sol\":2979:2994  delegate_.voted */\n      0x01\n      add\n      0x00\n      swap1\n      sload\n      swap1\n      0x0100\n      exp\n      swap1\n      div\n      0xff\n      and\n        /* \"ballot_voting/ballotvoting.sol\":2975:3325  if (delegate_.voted) {\r... */\n      iszero\n      tag_77\n      jumpi\n        /* \"ballot_voting/ballotvoting.sol\":3149:3155  sender */\n      dup2\n        /* \"ballot_voting/ballotvoting.sol\":3149:3162  sender.weight */\n      0x00\n      add\n      sload\n        /* \"ballot_voting/ballotvoting.sol\":3110:3119  proposals */\n      0x03\n        /* \"ballot_voting/ballotvoting.sol\":3120:3129  delegate_ */\n      dup3\n        /* \"ballot_voting/ballotvoting.sol\":3120:3134  delegate_.vote */\n      0x02\n      add\n      sload\n        /* \"ballot_voting/ballotvoting.sol\":3110:3135  proposals[delegate_.vote] */\n      dup2\n      sload\n      dup2\n      lt\n      tag_78\n      jumpi\n      tag_79\n      tag_59\n      jump\t// in\n    tag_79:\n    tag_78:\n      swap1\n      0x00\n      mstore\n      keccak256(0x00, 0x20)\n      swap1\n      0x02\n      mul\n      add\n        /* \"ballot_voting/ballotvoting.sol\":3110:3145  proposals[delegate_.vote].voteCount */\n      0x01\n      add\n      0x00\n        /* \"ballot_voting/ballotvoting.sol\":3110:3162  proposals[delegate_.vote].voteCount += sender.weight */\n      dup3\n      dup3\n      sload\n      tag_81\n      swap2\n      swap1\n      tag_62\n      jump\t// in\n    tag_81:\n      swap3\n      pop\n      pop\n      dup2\n      swap1\n      sstore\n      pop\n        /* \"ballot_voting/ballotvoting.sol\":2975:3325  if (delegate_.voted) {\r... */\n      jump(tag_82)\n    tag_77:\n        /* \"ballot_voting/ballotvoting.sol\":3300:3306  sender */\n      dup2\n        /* \"ballot_voting/ballotvoting.sol\":3300:3313  sender.weight */\n      0x00\n      add\n      sload\n        /* \"ballot_voting/ballotvoting.sol\":3280:3289  delegate_ */\n      dup2\n        /* \"ballot_voting/ballotvoting.sol\":3280:3296  delegate_.weight */\n      0x00\n      add\n      0x00\n        /* \"ballot_voting/ballotvoting.sol\":3280:3313  delegate_.weight += sender.weight */\n      dup3\n      dup3\n      sload\n      tag_83\n      swap2\n      swap1\n      tag_62\n      jump\t// in\n    tag_83:\n      swap3\n      pop\n      pop\n      dup2\n      swap1\n      sstore\n      pop\n        /* \"ballot_voting/ballotvoting.sol\":2975:3325  if (delegate_.voted) {\r... */\n    tag_82:\n        /* \"ballot_voting/ballotvoting.sol\":2439:3332  {\r... */\n      pop\n      pop\n        /* \"ballot_voting/ballotvoting.sol\":2402:3332  function delegate(address to) public {\r... */\n      pop\n      jump\t// out\n        /* \"ballot_voting/ballotvoting.sol\":4187:4562  function winningProposal() public view\r... */\n    tag_35:\n        /* \"ballot_voting/ballotvoting.sol\":4248:4269  uint winningProposal_ */\n      0x00\n        /* \"ballot_voting/ballotvoting.sol\":4287:4308  uint winningVoteCount */\n      dup1\n        /* \"ballot_voting/ballotvoting.sol\":4311:4312  0 */\n      0x00\n        /* \"ballot_voting/ballotvoting.sol\":4287:4312  uint winningVoteCount = 0 */\n      swap1\n      pop\n        /* \"ballot_voting/ballotvoting.sol\":4328:4334  uint p */\n      0x00\n        /* \"ballot_voting/ballotvoting.sol\":4323:4555  for (uint p = 0; p < proposals.length; p++) {\r... */\n    tag_85:\n        /* \"ballot_voting/ballotvoting.sol\":4344:4353  proposals */\n      0x03\n        /* \"ballot_voting/ballotvoting.sol\":4344:4360  proposals.length */\n      dup1\n      sload\n      swap1\n      pop\n        /* \"ballot_voting/ballotvoting.sol\":4340:4341  p */\n      dup2\n        /* \"ballot_voting/ballotvoting.sol\":4340:4360  p < proposals.length */\n      lt\n        /* \"ballot_voting/ballotvoting.sol\":4323:4555  for (uint p = 0; p < proposals.length; p++) {\r... */\n      iszero\n      tag_86\n      jumpi\n        /* \"ballot_voting/ballotvoting.sol\":4411:4427  winningVoteCount */\n      dup2\n        /* \"ballot_voting/ballotvoting.sol\":4386:4395  proposals */\n      0x03\n        /* \"ballot_voting/ballotvoting.sol\":4396:4397  p */\n      dup3\n        /* \"ballot_voting/ballotvoting.sol\":4386:4398  proposals[p] */\n      dup2\n      sload\n      dup2\n      lt\n      tag_88\n      jumpi\n      tag_89\n      tag_59\n      jump\t// in\n    tag_89:\n    tag_88:\n      swap1\n      0x00\n      mstore\n      keccak256(0x00, 0x20)\n      swap1\n      0x02\n      mul\n      add\n        /* \"ballot_voting/ballotvoting.sol\":4386:4408  proposals[p].voteCount */\n      0x01\n      add\n      sload\n        /* \"ballot_voting/ballotvoting.sol\":4386:4427  proposals[p].voteCount > winningVoteCount */\n      gt\n        /* \"ballot_voting/ballotvoting.sol\":4382:4544  if (proposals[p].voteCount > winningVoteCount) {\r... */\n      iszero\n      tag_91\n      jumpi\n        /* \"ballot_voting/ballotvoting.sol\":4467:4476  proposals */\n      0x03\n        /* \"ballot_voting/ballotvoting.sol\":4477:4478  p */\n      dup2\n        /* \"ballot_voting/ballotvoting.sol\":4467:4479  proposals[p] */\n      dup2\n      sload\n      dup2\n      lt\n      tag_92\n      jumpi\n      tag_93\n      tag_59\n      jump\t// in\n    tag_93:\n    tag_92:\n      swap1\n      0x00\n      mstore\n      keccak256(0x00, 0x20)\n      swap1\n      0x02\n      mul\n      add\n        /* \"ballot_voting/ballotvoting.sol\":4467:4489  proposals[p].voteCount */\n      0x01\n      add\n      sload\n        /* \"ballot_voting/ballotvoting.sol\":4448:4489  winningVoteCount = proposals[p].voteCount */\n      swap2\n      pop\n        /* \"ballot_voting/ballotvoting.sol\":4527:4528  p */\n      dup1\n        /* \"ballot_voting/ballotvoting.sol\":4508:4528  winningProposal_ = p */\n      swap3\n      pop\n        /* \"ballot_voting/ballotvoting.sol\":4382:4544  if (proposals[p].voteCount > winningVoteCount) {\r... */\n    tag_91:\n        /* \"ballot_voting/ballotvoting.sol\":4362:4365  p++ */\n      dup1\n      dup1\n      tag_95\n      swap1\n      tag_96\n      jump\t// in\n    tag_95:\n      swap2\n      pop\n      pop\n        /* \"ballot_voting/ballotvoting.sol\":4323:4555  for (uint p = 0; p < proposals.length; p++) {\r... */\n      jump(tag_85)\n    tag_86:\n      pop\n        /* \"ballot_voting/ballotvoting.sol\":4276:4562  {\r... */\n      pop\n        /* \"ballot_voting/ballotvoting.sol\":4187:4562  function winningProposal() public view\r... */\n      swap1\n      jump\t// out\n        /* \"ballot_voting/ballotvoting.sol\":1906:2272  function giveRightToVote(address voter) public {\r... */\n    tag_40:\n        /* \"ballot_voting/ballotvoting.sol\":2000:2011  chairperson */\n      0x00\n      dup1\n      sload\n      swap1\n      0x0100\n      exp\n      swap1\n      div\n      0xffffffffffffffffffffffffffffffffffffffff\n      and\n        /* \"ballot_voting/ballotvoting.sol\":1986:2011  msg.sender == chairperson */\n      0xffffffffffffffffffffffffffffffffffffffff\n      and\n        /* \"ballot_voting/ballotvoting.sol\":1986:1996  msg.sender */\n      caller\n        /* \"ballot_voting/ballotvoting.sol\":1986:2011  msg.sender == chairperson */\n      0xffffffffffffffffffffffffffffffffffffffff\n      and\n      eq\n        /* \"ballot_voting/ballotvoting.sol\":1964:2079  require(\r... */\n      tag_98\n      jumpi\n      mload(0x40)\n      0x08c379a000000000000000000000000000000000000000000000000000000000\n      dup2\n      mstore\n      0x04\n      add\n      tag_99\n      swap1\n      tag_100\n      jump\t// in\n    tag_99:\n      mload(0x40)\n      dup1\n      swap2\n      sub\n      swap1\n      revert\n    tag_98:\n        /* \"ballot_voting/ballotvoting.sol\":2113:2119  voters */\n      0x01\n        /* \"ballot_voting/ballotvoting.sol\":2113:2126  voters[voter] */\n      0x00\n        /* \"ballot_voting/ballotvoting.sol\":2120:2125  voter */\n      dup3\n        /* \"ballot_voting/ballotvoting.sol\":2113:2126  voters[voter] */\n      0xffffffffffffffffffffffffffffffffffffffff\n      and\n      0xffffffffffffffffffffffffffffffffffffffff\n      and\n      dup2\n      mstore\n      0x20\n      add\n      swap1\n      dup2\n      mstore\n      0x20\n      add\n      0x00\n      keccak256\n        /* \"ballot_voting/ballotvoting.sol\":2113:2132  voters[voter].voted */\n      0x01\n      add\n      0x00\n      swap1\n      sload\n      swap1\n      0x0100\n      exp\n      swap1\n      div\n      0xff\n      and\n        /* \"ballot_voting/ballotvoting.sol\":2112:2132  !voters[voter].voted */\n      iszero\n        /* \"ballot_voting/ballotvoting.sol\":2090:2184  require(\r... */\n      tag_101\n      jumpi\n      mload(0x40)\n      0x08c379a000000000000000000000000000000000000000000000000000000000\n      dup2\n      mstore\n      0x04\n      add\n      tag_102\n      swap1\n      tag_103\n      jump\t// in\n    tag_102:\n      mload(0x40)\n      dup1\n      swap2\n      sub\n      swap1\n      revert\n    tag_101:\n        /* \"ballot_voting/ballotvoting.sol\":2227:2228  0 */\n      0x00\n        /* \"ballot_voting/ballotvoting.sol\":2203:2209  voters */\n      0x01\n        /* \"ballot_voting/ballotvoting.sol\":2203:2216  voters[voter] */\n      0x00\n        /* \"ballot_voting/ballotvoting.sol\":2210:2215  voter */\n      dup4\n        /* \"ballot_voting/ballotvoting.sol\":2203:2216  voters[voter] */\n      0xffffffffffffffffffffffffffffffffffffffff\n      and\n      0xffffffffffffffffffffffffffffffffffffffff\n      and\n      dup2\n      mstore\n      0x20\n      add\n      swap1\n      dup2\n      mstore\n      0x20\n      add\n      0x00\n      keccak256\n        /* \"ballot_voting/ballotvoting.sol\":2203:2223  voters[voter].weight */\n      0x00\n      add\n      sload\n        /* \"ballot_voting/ballotvoting.sol\":2203:2228  voters[voter].weight == 0 */\n      eq\n        /* \"ballot_voting/ballotvoting.sol\":2195:2229  require(voters[voter].weight == 0) */\n      tag_104\n      jumpi\n      0x00\n      dup1\n      revert\n    tag_104:\n        /* \"ballot_voting/ballotvoting.sol\":2263:2264  1 */\n      0x01\n        /* \"ballot_voting/ballotvoting.sol\":2240:2246  voters */\n      dup1\n        /* \"ballot_voting/ballotvoting.sol\":2240:2253  voters[voter] */\n      0x00\n        /* \"ballot_voting/ballotvoting.sol\":2247:2252  voter */\n      dup4\n        /* \"ballot_voting/ballotvoting.sol\":2240:2253  voters[voter] */\n      0xffffffffffffffffffffffffffffffffffffffff\n      and\n      0xffffffffffffffffffffffffffffffffffffffff\n      and\n      dup2\n      mstore\n      0x20\n      add\n      swap1\n      dup2\n      mstore\n      0x20\n      add\n      0x00\n      keccak256\n        /* \"ballot_voting/ballotvoting.sol\":2240:2260  voters[voter].weight */\n      0x00\n      add\n        /* \"ballot_voting/ballotvoting.sol\":2240:2264  voters[voter].weight = 1 */\n      dup2\n      swap1\n      sstore\n      pop\n        /* \"ballot_voting/ballotvoting.sol\":1906:2272  function giveRightToVote(address voter) public {\r... */\n      pop\n      jump\t// out\n        /* \"ballot_voting/ballotvoting.sol\":760:799  mapping(address => Voter) public voters */\n    tag_43:\n      mstore(0x20, 0x01)\n      dup1\n      0x00\n      mstore\n      keccak256(0x00, 0x40)\n      0x00\n      swap2\n      pop\n      swap1\n      pop\n      dup1\n      0x00\n      add\n      sload\n      swap1\n      dup1\n      0x01\n      add\n      0x00\n      swap1\n      sload\n      swap1\n      0x0100\n      exp\n      swap1\n      div\n      0xff\n      and\n      swap1\n      dup1\n      0x01\n      add\n      0x01\n      swap1\n      sload\n      swap1\n      0x0100\n      exp\n      swap1\n      div\n      0xffffffffffffffffffffffffffffffffffffffff\n      and\n      swap1\n      dup1\n      0x02\n      add\n      sload\n      swap1\n      pop\n      dup5\n      jump\t// out\n        /* \"ballot_voting/ballotvoting.sol\":4759:4907  function winnerName() public view\r... */\n    tag_47:\n        /* \"ballot_voting/ballotvoting.sol\":4815:4834  bytes32 winnerName_ */\n      0x00\n        /* \"ballot_voting/ballotvoting.sol\":4866:4875  proposals */\n      0x03\n        /* \"ballot_voting/ballotvoting.sol\":4876:4893  winningProposal() */\n      tag_106\n        /* \"ballot_voting/ballotvoting.sol\":4876:4891  winningProposal */\n      tag_35\n        /* \"ballot_voting/ballotvoting.sol\":4876:4893  winningProposal() */\n      jump\t// in\n    tag_106:\n        /* \"ballot_voting/ballotvoting.sol\":4866:4894  proposals[winningProposal()] */\n      dup2\n      sload\n      dup2\n      lt\n      tag_107\n      jumpi\n      tag_108\n      tag_59\n      jump\t// in\n    tag_108:\n    tag_107:\n      swap1\n      0x00\n      mstore\n      keccak256(0x00, 0x20)\n      swap1\n      0x02\n      mul\n      add\n        /* \"ballot_voting/ballotvoting.sol\":4866:4899  proposals[winningProposal()].name */\n      0x00\n      add\n      sload\n        /* \"ballot_voting/ballotvoting.sol\":4852:4899  winnerName_ = proposals[winningProposal()].name */\n      swap1\n      pop\n        /* \"ballot_voting/ballotvoting.sol\":4759:4907  function winnerName() public view\r... */\n      swap1\n      jump\t// out\n        /* \"#utility.yul\":7:146   */\n    tag_111:\n        /* \"#utility.yul\":53:58   */\n      0x00\n        /* \"#utility.yul\":91:97   */\n      dup2\n        /* \"#utility.yul\":78:98   */\n      calldataload\n        /* \"#utility.yul\":69:98   */\n      swap1\n      pop\n        /* \"#utility.yul\":107:140   */\n      tag_113\n        /* \"#utility.yul\":134:139   */\n      dup2\n        /* \"#utility.yul\":107:140   */\n      tag_114\n      jump\t// in\n    tag_113:\n        /* \"#utility.yul\":7:146   */\n      swap3\n      swap2\n      pop\n      pop\n      jump\t// out\n        /* \"#utility.yul\":152:291   */\n    tag_115:\n        /* \"#utility.yul\":198:203   */\n      0x00\n        /* \"#utility.yul\":236:242   */\n      dup2\n        /* \"#utility.yul\":223:243   */\n      calldataload\n        /* \"#utility.yul\":214:243   */\n      swap1\n      pop\n        /* \"#utility.yul\":252:285   */\n      tag_117\n        /* \"#utility.yul\":279:284   */\n      dup2\n        /* \"#utility.yul\":252:285   */\n      tag_118\n      jump\t// in\n    tag_117:\n        /* \"#utility.yul\":152:291   */\n      swap3\n      swap2\n      pop\n      pop\n      jump\t// out\n        /* \"#utility.yul\":297:626   */\n    tag_32:\n        /* \"#utility.yul\":356:362   */\n      0x00\n        /* \"#utility.yul\":405:407   */\n      0x20\n        /* \"#utility.yul\":393:402   */\n      dup3\n        /* \"#utility.yul\":384:391   */\n      dup5\n        /* \"#utility.yul\":380:403   */\n      sub\n        /* \"#utility.yul\":376:408   */\n      slt\n        /* \"#utility.yul\":373:492   */\n      iszero\n      tag_120\n      jumpi\n        /* \"#utility.yul\":411:490   */\n      tag_121\n      tag_122\n      jump\t// in\n    tag_121:\n        /* \"#utility.yul\":373:492   */\n    tag_120:\n        /* \"#utility.yul\":531:532   */\n      0x00\n        /* \"#utility.yul\":556:609   */\n      tag_123\n        /* \"#utility.yul\":601:608   */\n      dup5\n        /* \"#utility.yul\":592:598   */\n      dup3\n        /* \"#utility.yul\":581:590   */\n      dup6\n        /* \"#utility.yul\":577:599   */\n      add\n        /* \"#utility.yul\":556:609   */\n      tag_111\n      jump\t// in\n    tag_123:\n        /* \"#utility.yul\":546:609   */\n      swap2\n      pop\n        /* \"#utility.yul\":502:619   */\n      pop\n        /* \"#utility.yul\":297:626   */\n      swap3\n      swap2\n      pop\n      pop\n      jump\t// out\n        /* \"#utility.yul\":632:961   */\n    tag_15:\n        /* \"#utility.yul\":691:697   */\n      0x00\n        /* \"#utility.yul\":740:742   */\n      0x20\n        /* \"#utility.yul\":728:737   */\n      dup3\n        /* \"#utility.yul\":719:726   */\n      dup5\n        /* \"#utility.yul\":715:738   */\n      sub\n        /* \"#utility.yul\":711:743   */\n      slt\n        /* \"#utility.yul\":708:827   */\n      iszero\n      tag_125\n      jumpi\n        /* \"#utility.yul\":746:825   */\n      tag_126\n      tag_122\n      jump\t// in\n    tag_126:\n        /* \"#utility.yul\":708:827   */\n    tag_125:\n        /* \"#utility.yul\":866:867   */\n      0x00\n        /* \"#utility.yul\":891:944   */\n      tag_127\n        /* \"#utility.yul\":936:943   */\n      dup5\n        /* \"#utility.yul\":927:933   */\n      dup3\n        /* \"#utility.yul\":916:925   */\n      dup6\n        /* \"#utility.yul\":912:934   */\n      add\n        /* \"#utility.yul\":891:944   */\n      tag_115\n      jump\t// in\n    tag_127:\n        /* \"#utility.yul\":881:944   */\n      swap2\n      pop\n        /* \"#utility.yul\":837:954   */\n      pop\n        /* \"#utility.yul\":632:961   */\n      swap3\n      swap2\n      pop\n      pop\n      jump\t// out\n        /* \"#utility.yul\":967:1085   */\n    tag_128:\n        /* \"#utility.yul\":1054:1078   */\n      tag_130\n        /* \"#utility.yul\":1072:1077   */\n      dup2\n        /* \"#utility.yul\":1054:1078   */\n      tag_131\n      jump\t// in\n    tag_130:\n        /* \"#utility.yul\":1049:1052   */\n      dup3\n        /* \"#utility.yul\":1042:1079   */\n      mstore\n        /* \"#utility.yul\":967:1085   */\n      pop\n      pop\n      jump\t// out\n        /* \"#utility.yul\":1091:1200   */\n    tag_132:\n        /* \"#utility.yul\":1172:1193   */\n      tag_134\n        /* \"#utility.yul\":1187:1192   */\n      dup2\n        /* \"#utility.yul\":1172:1193   */\n      tag_135\n      jump\t// in\n    tag_134:\n        /* \"#utility.yul\":1167:1170   */\n      dup3\n        /* \"#utility.yul\":1160:1194   */\n      mstore\n        /* \"#utility.yul\":1091:1200   */\n      pop\n      pop\n      jump\t// out\n        /* \"#utility.yul\":1206:1324   */\n    tag_136:\n        /* \"#utility.yul\":1293:1317   */\n      tag_138\n        /* \"#utility.yul\":1311:1316   */\n      dup2\n        /* \"#utility.yul\":1293:1317   */\n      tag_139\n      jump\t// in\n    tag_138:\n        /* \"#utility.yul\":1288:1291   */\n      dup3\n        /* \"#utility.yul\":1281:1318   */\n      mstore\n        /* \"#utility.yul\":1206:1324   */\n      pop\n      pop\n      jump\t// out\n        /* \"#utility.yul\":1330:1491   */\n    tag_140:\n        /* \"#utility.yul\":1432:1484   */\n      tag_142\n        /* \"#utility.yul\":1478:1483   */\n      dup2\n        /* \"#utility.yul\":1432:1484   */\n      tag_143\n      jump\t// in\n    tag_142:\n        /* \"#utility.yul\":1427:1430   */\n      dup3\n        /* \"#utility.yul\":1420:1485   */\n      mstore\n        /* \"#utility.yul\":1330:1491   */\n      pop\n      pop\n      jump\t// out\n        /* \"#utility.yul\":1497:1863   */\n    tag_144:\n        /* \"#utility.yul\":1639:1642   */\n      0x00\n        /* \"#utility.yul\":1660:1727   */\n      tag_146\n        /* \"#utility.yul\":1724:1726   */\n      0x14\n        /* \"#utility.yul\":1719:1722   */\n      dup4\n        /* \"#utility.yul\":1660:1727   */\n      tag_147\n      jump\t// in\n    tag_146:\n        /* \"#utility.yul\":1653:1727   */\n      swap2\n      pop\n        /* \"#utility.yul\":1736:1829   */\n      tag_148\n        /* \"#utility.yul\":1825:1828   */\n      dup3\n        /* \"#utility.yul\":1736:1829   */\n      tag_149\n      jump\t// in\n    tag_148:\n        /* \"#utility.yul\":1854:1856   */\n      0x20\n        /* \"#utility.yul\":1849:1852   */\n      dup3\n        /* \"#utility.yul\":1845:1857   */\n      add\n        /* \"#utility.yul\":1838:1857   */\n      swap1\n      pop\n        /* \"#utility.yul\":1497:1863   */\n      swap2\n      swap1\n      pop\n      jump\t// out\n        /* \"#utility.yul\":1869:2235   */\n    tag_150:\n        /* \"#utility.yul\":2011:2014   */\n      0x00\n        /* \"#utility.yul\":2032:2099   */\n      tag_152\n        /* \"#utility.yul\":2096:2098   */\n      0x0e\n        /* \"#utility.yul\":2091:2094   */\n      dup4\n        /* \"#utility.yul\":2032:2099   */\n      tag_147\n      jump\t// in\n    tag_152:\n        /* \"#utility.yul\":2025:2099   */\n      swap2\n      pop\n        /* \"#utility.yul\":2108:2201   */\n      tag_153\n        /* \"#utility.yul\":2197:2200   */\n      dup3\n        /* \"#utility.yul\":2108:2201   */\n      tag_154\n      jump\t// in\n    tag_153:\n        /* \"#utility.yul\":2226:2228   */\n      0x20\n        /* \"#utility.yul\":2221:2224   */\n      dup3\n        /* \"#utility.yul\":2217:2229   */\n      add\n        /* \"#utility.yul\":2210:2229   */\n      swap1\n      pop\n        /* \"#utility.yul\":1869:2235   */\n      swap2\n      swap1\n      pop\n      jump\t// out\n        /* \"#utility.yul\":2241:2607   */\n    tag_155:\n        /* \"#utility.yul\":2383:2386   */\n      0x00\n        /* \"#utility.yul\":2404:2471   */\n      tag_157\n        /* \"#utility.yul\":2468:2470   */\n      0x12\n        /* \"#utility.yul\":2463:2466   */\n      dup4\n        /* \"#utility.yul\":2404:2471   */\n      tag_147\n      jump\t// in\n    tag_157:\n        /* \"#utility.yul\":2397:2471   */\n      swap2\n      pop\n        /* \"#utility.yul\":2480:2573   */\n      tag_158\n        /* \"#utility.yul\":2569:2572   */\n      dup3\n        /* \"#utility.yul\":2480:2573   */\n      tag_159\n      jump\t// in\n    tag_158:\n        /* \"#utility.yul\":2598:2600   */\n      0x20\n        /* \"#utility.yul\":2593:2596   */\n      dup3\n        /* \"#utility.yul\":2589:2601   */\n      add\n        /* \"#utility.yul\":2582:2601   */\n      swap1\n      pop\n        /* \"#utility.yul\":2241:2607   */\n      swap2\n      swap1\n      pop\n      jump\t// out\n        /* \"#utility.yul\":2613:2979   */\n    tag_160:\n        /* \"#utility.yul\":2755:2758   */\n      0x00\n        /* \"#utility.yul\":2776:2843   */\n      tag_162\n        /* \"#utility.yul\":2840:2842   */\n      0x28\n        /* \"#utility.yul\":2835:2838   */\n      dup4\n        /* \"#utility.yul\":2776:2843   */\n      tag_147\n      jump\t// in\n    tag_162:\n        /* \"#utility.yul\":2769:2843   */\n      swap2\n      pop\n        /* \"#utility.yul\":2852:2945   */\n      tag_163\n        /* \"#utility.yul\":2941:2944   */\n      dup3\n        /* \"#utility.yul\":2852:2945   */\n      tag_164\n      jump\t// in\n    tag_163:\n        /* \"#utility.yul\":2970:2972   */\n      0x40\n        /* \"#utility.yul\":2965:2968   */\n      dup3\n        /* \"#utility.yul\":2961:2973   */\n      add\n        /* \"#utility.yul\":2954:2973   */\n      swap1\n      pop\n        /* \"#utility.yul\":2613:2979   */\n      swap2\n      swap1\n      pop\n      jump\t// out\n        /* \"#utility.yul\":2985:3351   */\n    tag_165:\n        /* \"#utility.yul\":3127:3130   */\n      0x00\n        /* \"#utility.yul\":3148:3215   */\n      tag_167\n        /* \"#utility.yul\":3212:3214   */\n      0x19\n        /* \"#utility.yul\":3207:3210   */\n      dup4\n        /* \"#utility.yul\":3148:3215   */\n      tag_147\n      jump\t// in\n    tag_167:\n        /* \"#utility.yul\":3141:3215   */\n      swap2\n      pop\n        /* \"#utility.yul\":3224:3317   */\n      tag_168\n        /* \"#utility.yul\":3313:3316   */\n      dup3\n        /* \"#utility.yul\":3224:3317   */\n      tag_169\n      jump\t// in\n    tag_168:\n        /* \"#utility.yul\":3342:3344   */\n      0x20\n        /* \"#utility.yul\":3337:3340   */\n      dup3\n        /* \"#utility.yul\":3333:3345   */\n      add\n        /* \"#utility.yul\":3326:3345   */\n      swap1\n      pop\n        /* \"#utility.yul\":2985:3351   */\n      swap2\n      swap1\n      pop\n      jump\t// out\n        /* \"#utility.yul\":3357:3723   */\n    tag_170:\n        /* \"#utility.yul\":3499:3502   */\n      0x00\n        /* \"#utility.yul\":3520:3587   */\n      tag_172\n        /* \"#utility.yul\":3584:3586   */\n      0x18\n        /* \"#utility.yul\":3579:3582   */\n      dup4\n        /* \"#utility.yul\":3520:3587   */\n      tag_147\n      jump\t// in\n    tag_172:\n        /* \"#utility.yul\":3513:3587   */\n      swap2\n      pop\n        /* \"#utility.yul\":3596:3689   */\n      tag_173\n        /* \"#utility.yul\":3685:3688   */\n      dup3\n        /* \"#utility.yul\":3596:3689   */\n      tag_174\n      jump\t// in\n    tag_173:\n        /* \"#utility.yul\":3714:3716   */\n      0x20\n        /* \"#utility.yul\":3709:3712   */\n      dup3\n        /* \"#utility.yul\":3705:3717   */\n      add\n        /* \"#utility.yul\":3698:3717   */\n      swap1\n      pop\n        /* \"#utility.yul\":3357:3723   */\n      swap2\n      swap1\n      pop\n      jump\t// out\n        /* \"#utility.yul\":3729:4095   */\n    tag_175:\n        /* \"#utility.yul\":3871:3874   */\n      0x00\n        /* \"#utility.yul\":3892:3959   */\n      tag_177\n        /* \"#utility.yul\":3956:3958   */\n      0x1e\n        /* \"#utility.yul\":3951:3954   */\n      dup4\n        /* \"#utility.yul\":3892:3959   */\n      tag_147\n      jump\t// in\n    tag_177:\n        /* \"#utility.yul\":3885:3959   */\n      swap2\n      pop\n        /* \"#utility.yul\":3968:4061   */\n      tag_178\n        /* \"#utility.yul\":4057:4060   */\n      dup3\n        /* \"#utility.yul\":3968:4061   */\n      tag_179\n      jump\t// in\n    tag_178:\n        /* \"#utility.yul\":4086:4088   */\n      0x20\n        /* \"#utility.yul\":4081:4084   */\n      dup3\n        /* \"#utility.yul\":4077:4089   */\n      add\n        /* \"#utility.yul\":4070:4089   */\n      swap1\n      pop\n        /* \"#utility.yul\":3729:4095   */\n      swap2\n      swap1\n      pop\n      jump\t// out\n        /* \"#utility.yul\":4101:4219   */\n    tag_180:\n        /* \"#utility.yul\":4188:4212   */\n      tag_182\n        /* \"#utility.yul\":4206:4211   */\n      dup2\n        /* \"#utility.yul\":4188:4212   */\n      tag_183\n      jump\t// in\n    tag_182:\n        /* \"#utility.yul\":4183:4186   */\n      dup3\n        /* \"#utility.yul\":4176:4213   */\n      mstore\n        /* \"#utility.yul\":4101:4219   */\n      pop\n      pop\n      jump\t// out\n        /* \"#utility.yul\":4225:4447   */\n    tag_29:\n        /* \"#utility.yul\":4318:4322   */\n      0x00\n        /* \"#utility.yul\":4356:4358   */\n      0x20\n        /* \"#utility.yul\":4345:4354   */\n      dup3\n        /* \"#utility.yul\":4341:4359   */\n      add\n        /* \"#utility.yul\":4333:4359   */\n      swap1\n      pop\n        /* \"#utility.yul\":4369:4440   */\n      tag_185\n        /* \"#utility.yul\":4437:4438   */\n      0x00\n        /* \"#utility.yul\":4426:4435   */\n      dup4\n        /* \"#utility.yul\":4422:4439   */\n      add\n        /* \"#utility.yul\":4413:4419   */\n      dup5\n        /* \"#utility.yul\":4369:4440   */\n      tag_128\n      jump\t// in\n    tag_185:\n        /* \"#utility.yul\":4225:4447   */\n      swap3\n      swap2\n      pop\n      pop\n      jump\t// out\n        /* \"#utility.yul\":4453:4675   */\n    tag_49:\n        /* \"#utility.yul\":4546:4550   */\n      0x00\n        /* \"#utility.yul\":4584:4586   */\n      0x20\n        /* \"#utility.yul\":4573:4582   */\n      dup3\n        /* \"#utility.yul\":4569:4587   */\n      add\n        /* \"#utility.yul\":4561:4587   */\n      swap1\n      pop\n        /* \"#utility.yul\":4597:4668   */\n      tag_187\n        /* \"#utility.yul\":4665:4666   */\n      0x00\n        /* \"#utility.yul\":4654:4663   */\n      dup4\n        /* \"#utility.yul\":4650:4667   */\n      add\n        /* \"#utility.yul\":4641:4647   */\n      dup5\n        /* \"#utility.yul\":4597:4668   */\n      tag_136\n      jump\t// in\n    tag_187:\n        /* \"#utility.yul\":4453:4675   */\n      swap3\n      swap2\n      pop\n      pop\n      jump\t// out\n        /* \"#utility.yul\":4681:5013   */\n    tag_21:\n        /* \"#utility.yul\":4802:4806   */\n      0x00\n        /* \"#utility.yul\":4840:4842   */\n      0x40\n        /* \"#utility.yul\":4829:4838   */\n      dup3\n        /* \"#utility.yul\":4825:4843   */\n      add\n        /* \"#utility.yul\":4817:4843   */\n      swap1\n      pop\n        /* \"#utility.yul\":4853:4924   */\n      tag_189\n        /* \"#utility.yul\":4921:4922   */\n      0x00\n        /* \"#utility.yul\":4910:4919   */\n      dup4\n        /* \"#utility.yul\":4906:4923   */\n      add\n        /* \"#utility.yul\":4897:4903   */\n      dup6\n        /* \"#utility.yul\":4853:4924   */\n      tag_136\n      jump\t// in\n    tag_189:\n        /* \"#utility.yul\":4934:5006   */\n      tag_190\n        /* \"#utility.yul\":5002:5004   */\n      0x20\n        /* \"#utility.yul\":4991:5000   */\n      dup4\n        /* \"#utility.yul\":4987:5005   */\n      add\n        /* \"#utility.yul\":4978:4984   */\n      dup5\n        /* \"#utility.yul\":4934:5006   */\n      tag_180\n      jump\t// in\n    tag_190:\n        /* \"#utility.yul\":4681:5013   */\n      swap4\n      swap3\n      pop\n      pop\n      pop\n      jump\t// out\n        /* \"#utility.yul\":5019:5271   */\n    tag_25:\n        /* \"#utility.yul\":5127:5131   */\n      0x00\n        /* \"#utility.yul\":5165:5167   */\n      0x20\n        /* \"#utility.yul\":5154:5163   */\n      dup3\n        /* \"#utility.yul\":5150:5168   */\n      add\n        /* \"#utility.yul\":5142:5168   */\n      swap1\n      pop\n        /* \"#utility.yul\":5178:5264   */\n      tag_192\n        /* \"#utility.yul\":5261:5262   */\n      0x00\n        /* \"#utility.yul\":5250:5259   */\n      dup4\n        /* \"#utility.yul\":5246:5263   */\n      add\n        /* \"#utility.yul\":5237:5243   */\n      dup5\n        /* \"#utility.yul\":5178:5264   */\n      tag_140\n      jump\t// in\n    tag_192:\n        /* \"#utility.yul\":5019:5271   */\n      swap3\n      swap2\n      pop\n      pop\n      jump\t// out\n        /* \"#utility.yul\":5277:5696   */\n    tag_53:\n        /* \"#utility.yul\":5443:5447   */\n      0x00\n        /* \"#utility.yul\":5481:5483   */\n      0x20\n        /* \"#utility.yul\":5470:5479   */\n      dup3\n        /* \"#utility.yul\":5466:5484   */\n      add\n        /* \"#utility.yul\":5458:5484   */\n      swap1\n      pop\n        /* \"#utility.yul\":5530:5539   */\n      dup2\n        /* \"#utility.yul\":5524:5528   */\n      dup2\n        /* \"#utility.yul\":5520:5540   */\n      sub\n        /* \"#utility.yul\":5516:5517   */\n      0x00\n        /* \"#utility.yul\":5505:5514   */\n      dup4\n        /* \"#utility.yul\":5501:5518   */\n      add\n        /* \"#utility.yul\":5494:5541   */\n      mstore\n        /* \"#utility.yul\":5558:5689   */\n      tag_194\n        /* \"#utility.yul\":5684:5688   */\n      dup2\n        /* \"#utility.yul\":5558:5689   */\n      tag_144\n      jump\t// in\n    tag_194:\n        /* \"#utility.yul\":5550:5689   */\n      swap1\n      pop\n        /* \"#utility.yul\":5277:5696   */\n      swap2\n      swap1\n      pop\n      jump\t// out\n        /* \"#utility.yul\":5702:6121   */\n    tag_56:\n        /* \"#utility.yul\":5868:5872   */\n      0x00\n        /* \"#utility.yul\":5906:5908   */\n      0x20\n        /* \"#utility.yul\":5895:5904   */\n      dup3\n        /* \"#utility.yul\":5891:5909   */\n      add\n        /* \"#utility.yul\":5883:5909   */\n      swap1\n      pop\n        /* \"#utility.yul\":5955:5964   */\n      dup2\n        /* \"#utility.yul\":5949:5953   */\n      dup2\n        /* \"#utility.yul\":5945:5965   */\n      sub\n        /* \"#utility.yul\":5941:5942   */\n      0x00\n        /* \"#utility.yul\":5930:5939   */\n      dup4\n        /* \"#utility.yul\":5926:5943   */\n      add\n        /* \"#utility.yul\":5919:5966   */\n      mstore\n        /* \"#utility.yul\":5983:6114   */\n      tag_196\n        /* \"#utility.yul\":6109:6113   */\n      dup2\n        /* \"#utility.yul\":5983:6114   */\n      tag_150\n      jump\t// in\n    tag_196:\n        /* \"#utility.yul\":5975:6114   */\n      swap1\n      pop\n        /* \"#utility.yul\":5702:6121   */\n      swap2\n      swap1\n      pop\n      jump\t// out\n        /* \"#utility.yul\":6127:6546   */\n    tag_68:\n        /* \"#utility.yul\":6293:6297   */\n      0x00\n        /* \"#utility.yul\":6331:6333   */\n      0x20\n        /* \"#utility.yul\":6320:6329   */\n      dup3\n        /* \"#utility.yul\":6316:6334   */\n      add\n        /* \"#utility.yul\":6308:6334   */\n      swap1\n      pop\n        /* \"#utility.yul\":6380:6389   */\n      dup2\n        /* \"#utility.yul\":6374:6378   */\n      dup2\n        /* \"#utility.yul\":6370:6390   */\n      sub\n        /* \"#utility.yul\":6366:6367   */\n      0x00\n        /* \"#utility.yul\":6355:6364   */\n      dup4\n        /* \"#utility.yul\":6351:6368   */\n      add\n        /* \"#utility.yul\":6344:6391   */\n      mstore\n        /* \"#utility.yul\":6408:6539   */\n      tag_198\n        /* \"#utility.yul\":6534:6538   */\n      dup2\n        /* \"#utility.yul\":6408:6539   */\n      tag_155\n      jump\t// in\n    tag_198:\n        /* \"#utility.yul\":6400:6539   */\n      swap1\n      pop\n        /* \"#utility.yul\":6127:6546   */\n      swap2\n      swap1\n      pop\n      jump\t// out\n        /* \"#utility.yul\":6552:6971   */\n    tag_100:\n        /* \"#utility.yul\":6718:6722   */\n      0x00\n        /* \"#utility.yul\":6756:6758   */\n      0x20\n        /* \"#utility.yul\":6745:6754   */\n      dup3\n        /* \"#utility.yul\":6741:6759   */\n      add\n        /* \"#utility.yul\":6733:6759   */\n      swap1\n      pop\n        /* \"#utility.yul\":6805:6814   */\n      dup2\n        /* \"#utility.yul\":6799:6803   */\n      dup2\n        /* \"#utility.yul\":6795:6815   */\n      sub\n        /* \"#utility.yul\":6791:6792   */\n      0x00\n        /* \"#utility.yul\":6780:6789   */\n      dup4\n        /* \"#utility.yul\":6776:6793   */\n      add\n        /* \"#utility.yul\":6769:6816   */\n      mstore\n        /* \"#utility.yul\":6833:6964   */\n      tag_200\n        /* \"#utility.yul\":6959:6963   */\n      dup2\n        /* \"#utility.yul\":6833:6964   */\n      tag_160\n      jump\t// in\n    tag_200:\n        /* \"#utility.yul\":6825:6964   */\n      swap1\n      pop\n        /* \"#utility.yul\":6552:6971   */\n      swap2\n      swap1\n      pop\n      jump\t// out\n        /* \"#utility.yul\":6977:7396   */\n    tag_76:\n        /* \"#utility.yul\":7143:7147   */\n      0x00\n        /* \"#utility.yul\":7181:7183   */\n      0x20\n        /* \"#utility.yul\":7170:7179   */\n      dup3\n        /* \"#utility.yul\":7166:7184   */\n      add\n        /* \"#utility.yul\":7158:7184   */\n      swap1\n      pop\n        /* \"#utility.yul\":7230:7239   */\n      dup2\n        /* \"#utility.yul\":7224:7228   */\n      dup2\n        /* \"#utility.yul\":7220:7240   */\n      sub\n        /* \"#utility.yul\":7216:7217   */\n      0x00\n        /* \"#utility.yul\":7205:7214   */\n      dup4\n        /* \"#utility.yul\":7201:7218   */\n      add\n        /* \"#utility.yul\":7194:7241   */\n      mstore\n        /* \"#utility.yul\":7258:7389   */\n      tag_202\n        /* \"#utility.yul\":7384:7388   */\n      dup2\n        /* \"#utility.yul\":7258:7389   */\n      tag_165\n      jump\t// in\n    tag_202:\n        /* \"#utility.yul\":7250:7389   */\n      swap1\n      pop\n        /* \"#utility.yul\":6977:7396   */\n      swap2\n      swap1\n      pop\n      jump\t// out\n        /* \"#utility.yul\":7402:7821   */\n    tag_103:\n        /* \"#utility.yul\":7568:7572   */\n      0x00\n        /* \"#utility.yul\":7606:7608   */\n      0x20\n        /* \"#utility.yul\":7595:7604   */\n      dup3\n        /* \"#utility.yul\":7591:7609   */\n      add\n        /* \"#utility.yul\":7583:7609   */\n      swap1\n      pop\n        /* \"#utility.yul\":7655:7664   */\n      dup2\n        /* \"#utility.yul\":7649:7653   */\n      dup2\n        /* \"#utility.yul\":7645:7665   */\n      sub\n        /* \"#utility.yul\":7641:7642   */\n      0x00\n        /* \"#utility.yul\":7630:7639   */\n      dup4\n        /* \"#utility.yul\":7626:7643   */\n      add\n        /* \"#utility.yul\":7619:7666   */\n      mstore\n        /* \"#utility.yul\":7683:7814   */\n      tag_204\n        /* \"#utility.yul\":7809:7813   */\n      dup2\n        /* \"#utility.yul\":7683:7814   */\n      tag_170\n      jump\t// in\n    tag_204:\n        /* \"#utility.yul\":7675:7814   */\n      swap1\n      pop\n        /* \"#utility.yul\":7402:7821   */\n      swap2\n      swap1\n      pop\n      jump\t// out\n        /* \"#utility.yul\":7827:8246   */\n    tag_71:\n        /* \"#utility.yul\":7993:7997   */\n      0x00\n        /* \"#utility.yul\":8031:8033   */\n      0x20\n        /* \"#utility.yul\":8020:8029   */\n      dup3\n        /* \"#utility.yul\":8016:8034   */\n      add\n        /* \"#utility.yul\":8008:8034   */\n      swap1\n      pop\n        /* \"#utility.yul\":8080:8089   */\n      dup2\n        /* \"#utility.yul\":8074:8078   */\n      dup2\n        /* \"#utility.yul\":8070:8090   */\n      sub\n        /* \"#utility.yul\":8066:8067   */\n      0x00\n        /* \"#utility.yul\":8055:8064   */\n      dup4\n        /* \"#utility.yul\":8051:8068   */\n      add\n        /* \"#utility.yul\":8044:8091   */\n      mstore\n        /* \"#utility.yul\":8108:8239   */\n      tag_206\n        /* \"#utility.yul\":8234:8238   */\n      dup2\n        /* \"#utility.yul\":8108:8239   */\n      tag_175\n      jump\t// in\n    tag_206:\n        /* \"#utility.yul\":8100:8239   */\n      swap1\n      pop\n        /* \"#utility.yul\":7827:8246   */\n      swap2\n      swap1\n      pop\n      jump\t// out\n        /* \"#utility.yul\":8252:8474   */\n    tag_37:\n        /* \"#utility.yul\":8345:8349   */\n      0x00\n        /* \"#utility.yul\":8383:8385   */\n      0x20\n        /* \"#utility.yul\":8372:8381   */\n      dup3\n        /* \"#utility.yul\":8368:8386   */\n      add\n        /* \"#utility.yul\":8360:8386   */\n      swap1\n      pop\n        /* \"#utility.yul\":8396:8467   */\n      tag_208\n        /* \"#utility.yul\":8464:8465   */\n      0x00\n        /* \"#utility.yul\":8453:8462   */\n      dup4\n        /* \"#utility.yul\":8449:8466   */\n      add\n        /* \"#utility.yul\":8440:8446   */\n      dup5\n        /* \"#utility.yul\":8396:8467   */\n      tag_180\n      jump\t// in\n    tag_208:\n        /* \"#utility.yul\":8252:8474   */\n      swap3\n      swap2\n      pop\n      pop\n      jump\t// out\n        /* \"#utility.yul\":8480:9021   */\n    tag_45:\n        /* \"#utility.yul\":8651:8655   */\n      0x00\n        /* \"#utility.yul\":8689:8692   */\n      0x80\n        /* \"#utility.yul\":8678:8687   */\n      dup3\n        /* \"#utility.yul\":8674:8693   */\n      add\n        /* \"#utility.yul\":8666:8693   */\n      swap1\n      pop\n        /* \"#utility.yul\":8703:8774   */\n      tag_210\n        /* \"#utility.yul\":8771:8772   */\n      0x00\n        /* \"#utility.yul\":8760:8769   */\n      dup4\n        /* \"#utility.yul\":8756:8773   */\n      add\n        /* \"#utility.yul\":8747:8753   */\n      dup8\n        /* \"#utility.yul\":8703:8774   */\n      tag_180\n      jump\t// in\n    tag_210:\n        /* \"#utility.yul\":8784:8850   */\n      tag_211\n        /* \"#utility.yul\":8846:8848   */\n      0x20\n        /* \"#utility.yul\":8835:8844   */\n      dup4\n        /* \"#utility.yul\":8831:8849   */\n      add\n        /* \"#utility.yul\":8822:8828   */\n      dup7\n        /* \"#utility.yul\":8784:8850   */\n      tag_132\n      jump\t// in\n    tag_211:\n        /* \"#utility.yul\":8860:8932   */\n      tag_212\n        /* \"#utility.yul\":8928:8930   */\n      0x40\n        /* \"#utility.yul\":8917:8926   */\n      dup4\n        /* \"#utility.yul\":8913:8931   */\n      add\n        /* \"#utility.yul\":8904:8910   */\n      dup6\n        /* \"#utility.yul\":8860:8932   */\n      tag_128\n      jump\t// in\n    tag_212:\n        /* \"#utility.yul\":8942:9014   */\n      tag_213\n        /* \"#utility.yul\":9010:9012   */\n      0x60\n        /* \"#utility.yul\":8999:9008   */\n      dup4\n        /* \"#utility.yul\":8995:9013   */\n      add\n        /* \"#utility.yul\":8986:8992   */\n      dup5\n        /* \"#utility.yul\":8942:9014   */\n      tag_180\n      jump\t// in\n    tag_213:\n        /* \"#utility.yul\":8480:9021   */\n      swap6\n      swap5\n      pop\n      pop\n      pop\n      pop\n      pop\n      jump\t// out\n        /* \"#utility.yul\":9108:9277   */\n    tag_147:\n        /* \"#utility.yul\":9192:9203   */\n      0x00\n        /* \"#utility.yul\":9226:9232   */\n      dup3\n        /* \"#utility.yul\":9221:9224   */\n      dup3\n        /* \"#utility.yul\":9214:9233   */\n      mstore\n        /* \"#utility.yul\":9266:9270   */\n      0x20\n        /* \"#utility.yul\":9261:9264   */\n      dup3\n        /* \"#utility.yul\":9257:9271   */\n      add\n        /* \"#utility.yul\":9242:9271   */\n      swap1\n      pop\n        /* \"#utility.yul\":9108:9277   */\n      swap3\n      swap2\n      pop\n      pop\n      jump\t// out\n        /* \"#utility.yul\":9283:9588   */\n    tag_62:\n        /* \"#utility.yul\":9323:9326   */\n      0x00\n        /* \"#utility.yul\":9342:9362   */\n      tag_218\n        /* \"#utility.yul\":9360:9361   */\n      dup3\n        /* \"#utility.yul\":9342:9362   */\n      tag_183\n      jump\t// in\n    tag_218:\n        /* \"#utility.yul\":9337:9362   */\n      swap2\n      pop\n        /* \"#utility.yul\":9376:9396   */\n      tag_219\n        /* \"#utility.yul\":9394:9395   */\n      dup4\n        /* \"#utility.yul\":9376:9396   */\n      tag_183\n      jump\t// in\n    tag_219:\n        /* \"#utility.yul\":9371:9396   */\n      swap3\n      pop\n        /* \"#utility.yul\":9530:9531   */\n      dup3\n        /* \"#utility.yul\":9462:9528   */\n      0xffffffffffffffffffffffffffffffffffffffffffffffffffffffffffffffff\n        /* \"#utility.yul\":9458:9532   */\n      sub\n        /* \"#utility.yul\":9455:9456   */\n      dup3\n        /* \"#utility.yul\":9452:9533   */\n      gt\n        /* \"#utility.yul\":9449:9556   */\n      iszero\n      tag_220\n      jumpi\n        /* \"#utility.yul\":9536:9554   */\n      tag_221\n      tag_222\n      jump\t// in\n    tag_221:\n        /* \"#utility.yul\":9449:9556   */\n    tag_220:\n        /* \"#utility.yul\":9580:9581   */\n      dup3\n        /* \"#utility.yul\":9577:9578   */\n      dup3\n        /* \"#utility.yul\":9573:9582   */\n      add\n        /* \"#utility.yul\":9566:9582   */\n      swap1\n      pop\n        /* \"#utility.yul\":9283:9588   */\n      swap3\n      swap2\n      pop\n      pop\n      jump\t// out\n        /* \"#utility.yul\":9594:9690   */\n    tag_131:\n        /* \"#utility.yul\":9631:9638   */\n      0x00\n        /* \"#utility.yul\":9660:9684   */\n      tag_224\n        /* \"#utility.yul\":9678:9683   */\n      dup3\n        /* \"#utility.yul\":9660:9684   */\n      tag_225\n      jump\t// in\n    tag_224:\n        /* \"#utility.yul\":9649:9684   */\n      swap1\n      pop\n        /* \"#utility.yul\":9594:9690   */\n      swap2\n      swap1\n      pop\n      jump\t// out\n        /* \"#utility.yul\":9696:9786   */\n    tag_135:\n        /* \"#utility.yul\":9730:9737   */\n      0x00\n        /* \"#utility.yul\":9773:9778   */\n      dup2\n        /* \"#utility.yul\":9766:9779   */\n      iszero\n        /* \"#utility.yul\":9759:9780   */\n      iszero\n        /* \"#utility.yul\":9748:9780   */\n      swap1\n      pop\n        /* \"#utility.yul\":9696:9786   */\n      swap2\n      swap1\n      pop\n      jump\t// out\n        /* \"#utility.yul\":9792:9869   */\n    tag_139:\n        /* \"#utility.yul\":9829:9836   */\n      0x00\n        /* \"#utility.yul\":9858:9863   */\n      dup2\n        /* \"#utility.yul\":9847:9863   */\n      swap1\n      pop\n        /* \"#utility.yul\":9792:9869   */\n      swap2\n      swap1\n      pop\n      jump\t// out\n        /* \"#utility.yul\":9875:10020   */\n    tag_228:\n        /* \"#utility.yul\":9929:9936   */\n      0x00\n        /* \"#utility.yul\":9958:9963   */\n      dup2\n        /* \"#utility.yul\":9947:9963   */\n      swap1\n      pop\n        /* \"#utility.yul\":9964:10014   */\n      tag_230\n        /* \"#utility.yul\":10008:10013   */\n      dup3\n        /* \"#utility.yul\":9964:10014   */\n      tag_231\n      jump\t// in\n    tag_230:\n        /* \"#utility.yul\":9875:10020   */\n      swap2\n      swap1\n      pop\n      jump\t// out\n        /* \"#utility.yul\":10026:10152   */\n    tag_225:\n        /* \"#utility.yul\":10063:10070   */\n      0x00\n        /* \"#utility.yul\":10103:10145   */\n      0xffffffffffffffffffffffffffffffffffffffff\n        /* \"#utility.yul\":10096:10101   */\n      dup3\n        /* \"#utility.yul\":10092:10146   */\n      and\n        /* \"#utility.yul\":10081:10146   */\n      swap1\n      pop\n        /* \"#utility.yul\":10026:10152   */\n      swap2\n      swap1\n      pop\n      jump\t// out\n        /* \"#utility.yul\":10158:10235   */\n    tag_183:\n        /* \"#utility.yul\":10195:10202   */\n      0x00\n        /* \"#utility.yul\":10224:10229   */\n      dup2\n        /* \"#utility.yul\":10213:10229   */\n      swap1\n      pop\n        /* \"#utility.yul\":10158:10235   */\n      swap2\n      swap1\n      pop\n      jump\t// out\n        /* \"#utility.yul\":10241:10386   */\n    tag_143:\n        /* \"#utility.yul\":10306:10315   */\n      0x00\n        /* \"#utility.yul\":10339:10380   */\n      tag_235\n        /* \"#utility.yul\":10374:10379   */\n      dup3\n        /* \"#utility.yul\":10339:10380   */\n      tag_228\n      jump\t// in\n    tag_235:\n        /* \"#utility.yul\":10326:10380   */\n      swap1\n      pop\n        /* \"#utility.yul\":10241:10386   */\n      swap2\n      swap1\n      pop\n      jump\t// out\n        /* \"#utility.yul\":10392:10625   */\n    tag_96:\n        /* \"#utility.yul\":10431:10434   */\n      0x00\n        /* \"#utility.yul\":10454:10478   */\n      tag_237\n        /* \"#utility.yul\":10472:10477   */\n      dup3\n        /* \"#utility.yul\":10454:10478   */\n      tag_183\n      jump\t// in\n    tag_237:\n        /* \"#utility.yul\":10445:10478   */\n      swap2\n      pop\n        /* \"#utility.yul\":10500:10566   */\n      0xffffffffffffffffffffffffffffffffffffffffffffffffffffffffffffffff\n        /* \"#utility.yul\":10493:10498   */\n      dup3\n        /* \"#utility.yul\":10490:10567   */\n      eq\n        /* \"#utility.yul\":10487:10590   */\n      iszero\n      tag_238\n      jumpi\n        /* \"#utility.yul\":10570:10588   */\n      tag_239\n      tag_222\n      jump\t// in\n    tag_239:\n        /* \"#utility.yul\":10487:10590   */\n    tag_238:\n        /* \"#utility.yul\":10617:10618   */\n      0x01\n        /* \"#utility.yul\":10610:10615   */\n      dup3\n        /* \"#utility.yul\":10606:10619   */\n      add\n        /* \"#utility.yul\":10599:10619   */\n      swap1\n      pop\n        /* \"#utility.yul\":10392:10625   */\n      swap2\n      swap1\n      pop\n      jump\t// out\n        /* \"#utility.yul\":10631:10811   */\n    tag_222:\n        /* \"#utility.yul\":10679:10756   */\n      0x4e487b7100000000000000000000000000000000000000000000000000000000\n        /* \"#utility.yul\":10676:10677   */\n      0x00\n        /* \"#utility.yul\":10669:10757   */\n      mstore\n        /* \"#utility.yul\":10776:10780   */\n      0x11\n        /* \"#utility.yul\":10773:10774   */\n      0x04\n        /* \"#utility.yul\":10766:10781   */\n      mstore\n        /* \"#utility.yul\":10800:10804   */\n      0x24\n        /* \"#utility.yul\":10797:10798   */\n      0x00\n        /* \"#utility.yul\":10790:10805   */\n      revert\n        /* \"#utility.yul\":10817:10997   */\n    tag_241:\n        /* \"#utility.yul\":10865:10942   */\n      0x4e487b7100000000000000000000000000000000000000000000000000000000\n        /* \"#utility.yul\":10862:10863   */\n      0x00\n        /* \"#utility.yul\":10855:10943   */\n      mstore\n        /* \"#utility.yul\":10962:10966   */\n      0x21\n        /* \"#utility.yul\":10959:10960   */\n      0x04\n        /* \"#utility.yul\":10952:10967   */\n      mstore\n        /* \"#utility.yul\":10986:10990   */\n      0x24\n        /* \"#utility.yul\":10983:10984   */\n      0x00\n        /* \"#utility.yul\":10976:10991   */\n      revert\n        /* \"#utility.yul\":11003:11183   */\n    tag_59:\n        /* \"#utility.yul\":11051:11128   */\n      0x4e487b7100000000000000000000000000000000000000000000000000000000\n        /* \"#utility.yul\":11048:11049   */\n      0x00\n        /* \"#utility.yul\":11041:11129   */\n      mstore\n        /* \"#utility.yul\":11148:11152   */\n      0x32\n        /* \"#utility.yul\":11145:11146   */\n      0x04\n        /* \"#utility.yul\":11138:11153   */\n      mstore\n        /* \"#utility.yul\":11172:11176   */\n      0x24\n        /* \"#utility.yul\":11169:11170   */\n      0x00\n        /* \"#utility.yul\":11162:11177   */\n      revert\n        /* \"#utility.yul\":11312:11429   */\n    tag_122:\n        /* \"#utility.yul\":11421:11422   */\n      0x00\n        /* \"#utility.yul\":11418:11419   */\n      dup1\n        /* \"#utility.yul\":11411:11423   */\n      revert\n        /* \"#utility.yul\":11435:11605   */\n    tag_149:\n        /* \"#utility.yul\":11575:11597   */\n      0x486173206e6f20726967687420746f20766f7465000000000000000000000000\n        /* \"#utility.yul\":11571:11572   */\n      0x00\n        /* \"#utility.yul\":11563:11569   */\n      dup3\n        /* \"#utility.yul\":11559:11573   */\n      add\n        /* \"#utility.yul\":11552:11598   */\n      mstore\n        /* \"#utility.yul\":11435:11605   */\n      pop\n      jump\t// out\n        /* \"#utility.yul\":11611:11775   */\n    tag_154:\n        /* \"#utility.yul\":11751:11767   */\n      0x416c726561647920766f7465642e000000000000000000000000000000000000\n        /* \"#utility.yul\":11747:11748   */\n      0x00\n        /* \"#utility.yul\":11739:11745   */\n      dup3\n        /* \"#utility.yul\":11735:11749   */\n      add\n        /* \"#utility.yul\":11728:11768   */\n      mstore\n        /* \"#utility.yul\":11611:11775   */\n      pop\n      jump\t// out\n        /* \"#utility.yul\":11781:11949   */\n    tag_159:\n        /* \"#utility.yul\":11921:11941   */\n      0x596f7520616c726561647920766f7465642e0000000000000000000000000000\n        /* \"#utility.yul\":11917:11918   */\n      0x00\n        /* \"#utility.yul\":11909:11915   */\n      dup3\n        /* \"#utility.yul\":11905:11919   */\n      add\n        /* \"#utility.yul\":11898:11942   */\n      mstore\n        /* \"#utility.yul\":11781:11949   */\n      pop\n      jump\t// out\n        /* \"#utility.yul\":11955:12182   */\n    tag_164:\n        /* \"#utility.yul\":12095:12129   */\n      0x4f6e6c79206368616972706572736f6e2063616e206769766520726967687420\n        /* \"#utility.yul\":12091:12092   */\n      0x00\n        /* \"#utility.yul\":12083:12089   */\n      dup3\n        /* \"#utility.yul\":12079:12093   */\n      add\n        /* \"#utility.yul\":12072:12130   */\n      mstore\n        /* \"#utility.yul\":12164:12174   */\n      0x746f20766f74652e000000000000000000000000000000000000000000000000\n        /* \"#utility.yul\":12159:12161   */\n      0x20\n        /* \"#utility.yul\":12151:12157   */\n      dup3\n        /* \"#utility.yul\":12147:12162   */\n      add\n        /* \"#utility.yul\":12140:12175   */\n      mstore\n        /* \"#utility.yul\":11955:12182   */\n      pop\n      jump\t// out\n        /* \"#utility.yul\":12188:12363   */\n    tag_169:\n        /* \"#utility.yul\":12328:12355   */\n      0x466f756e64206c6f6f7020696e2064656c65676174696f6e2e00000000000000\n        /* \"#utility.yul\":12324:12325   */\n      0x00\n        /* \"#utility.yul\":12316:12322   */\n      dup3\n        /* \"#utility.yul\":12312:12326   */\n      add\n        /* \"#utility.yul\":12305:12356   */\n      mstore\n        /* \"#utility.yul\":12188:12363   */\n      pop\n      jump\t// out\n        /* \"#utility.yul\":12369:12543   */\n    tag_174:\n        /* \"#utility.yul\":12509:12535   */\n      0x54686520766f74657220616c726561647920766f7465642e0000000000000000\n        /* \"#utility.yul\":12505:12506   */\n      0x00\n        /* \"#utility.yul\":12497:12503   */\n      dup3\n        /* \"#utility.yul\":12493:12507   */\n      add\n        /* \"#utility.yul\":12486:12536   */\n      mstore\n        /* \"#utility.yul\":12369:12543   */\n      pop\n      jump\t// out\n        /* \"#utility.yul\":12549:12729   */\n    tag_179:\n        /* \"#utility.yul\":12689:12721   */\n      0x53656c662d64656c65676174696f6e20697320646973616c6c6f7765642e0000\n        /* \"#utility.yul\":12685:12686   */\n      0x00\n        /* \"#utility.yul\":12677:12683   */\n      dup3\n        /* \"#utility.yul\":12673:12687   */\n      add\n        /* \"#utility.yul\":12666:12722   */\n      mstore\n        /* \"#utility.yul\":12549:12729   */\n      pop\n      jump\t// out\n        /* \"#utility.yul\":12735:12857   */\n    tag_231:\n        /* \"#utility.yul\":12825:12826   */\n      0x02\n        /* \"#utility.yul\":12818:12823   */\n      dup2\n        /* \"#utility.yul\":12815:12827   */\n      lt\n        /* \"#utility.yul\":12805:12851   */\n      tag_255\n      jumpi\n        /* \"#utility.yul\":12831:12849   */\n      tag_256\n      tag_241\n      jump\t// in\n    tag_256:\n        /* \"#utility.yul\":12805:12851   */\n    tag_255:\n        /* \"#utility.yul\":12735:12857   */\n      pop\n      jump\t// out\n        /* \"#utility.yul\":12863:12985   */\n    tag_114:\n        /* \"#utility.yul\":12936:12960   */\n      tag_258\n        /* \"#utility.yul\":12954:12959   */\n      dup2\n        /* \"#utility.yul\":12936:12960   */\n      tag_131\n      jump\t// in\n    tag_258:\n        /* \"#utility.yul\":12929:12934   */\n      dup2\n        /* \"#utility.yul\":12926:12961   */\n      eq\n        /* \"#utility.yul\":12916:12979   */\n      tag_259\n      jumpi\n        /* \"#utility.yul\":12975:12976   */\n      0x00\n        /* \"#utility.yul\":12972:12973   */\n      dup1\n        /* \"#utility.yul\":12965:12977   */\n      revert\n        /* \"#utility.yul\":12916:12979   */\n    tag_259:\n        /* \"#utility.yul\":12863:12985   */\n      pop\n      jump\t// out\n        /* \"#utility.yul\":12991:13113   */\n    tag_118:\n        /* \"#utility.yul\":13064:13088   */\n      tag_261\n        /* \"#utility.yul\":13082:13087   */\n      dup2\n        /* \"#utility.yul\":13064:13088   */\n      tag_183\n      jump\t// in\n    tag_261:\n        /* \"#utility.yul\":13057:13062   */\n      dup2\n        /* \"#utility.yul\":13054:13089   */\n      eq\n        /* \"#utility.yul\":13044:13107   */\n      tag_262\n      jumpi\n        /* \"#utility.yul\":13103:13104   */\n      0x00\n        /* \"#utility.yul\":13100:13101   */\n      dup1\n        /* \"#utility.yul\":13093:13105   */\n      revert\n        /* \"#utility.yul\":13044:13107   */\n    tag_262:\n        /* \"#utility.yul\":12991:13113   */\n      pop\n      jump\t// out\n\n    auxdata: 0xa2646970667358221220d2b236941f0c7bc57f94996bca7cb99c5453f5b5080367a289290e003fd6af1b64736f6c63430008070033\n}\n",
				"bytecode": {
					"linkReferences": {},
					"object": "60806040523480156200001157600080fd5b506040516200153a3803806200153a833981810160405281019062000037919062000243565b336000806101000a81548173ffffffffffffffffffffffffffffffffffffffff021916908373ffffffffffffffffffffffffffffffffffffffff16021790555060018060008060009054906101000a900473ffffffffffffffffffffffffffffffffffffffff1673ffffffffffffffffffffffffffffffffffffffff1673ffffffffffffffffffffffffffffffffffffffff1681526020019081526020016000206000018190555060005b81518110156200017657600360405180604001604052808484815181106200010f576200010e620003b3565b5b60200260200101518152602001600081525090806001815401808255809150506001900390600052602060002090600202016000909190919091506000820151816000015560208201518160010155505080806200016d9062000336565b915050620000e2565b505062000450565b6000620001956200018f84620002bd565b62000294565b90508083825260208201905082856020860282011115620001bb57620001ba62000416565b5b60005b85811015620001ef5781620001d488826200022c565b845260208401935060208301925050600181019050620001be565b5050509392505050565b600082601f83011262000211576200021062000411565b5b8151620002238482602086016200017e565b91505092915050565b6000815190506200023d8162000436565b92915050565b6000602082840312156200025c576200025b62000420565b5b600082015167ffffffffffffffff8111156200027d576200027c6200041b565b5b6200028b84828501620001f9565b91505092915050565b6000620002a0620002b3565b9050620002ae828262000300565b919050565b6000604051905090565b600067ffffffffffffffff821115620002db57620002da620003e2565b5b602082029050602081019050919050565b6000819050919050565b6000819050919050565b6200030b8262000425565b810181811067ffffffffffffffff821117156200032d576200032c620003e2565b5b80604052505050565b60006200034382620002f6565b91507fffffffffffffffffffffffffffffffffffffffffffffffffffffffffffffffff82141562000379576200037862000384565b5b600182019050919050565b7f4e487b7100000000000000000000000000000000000000000000000000000000600052601160045260246000fd5b7f4e487b7100000000000000000000000000000000000000000000000000000000600052603260045260246000fd5b7f4e487b7100000000000000000000000000000000000000000000000000000000600052604160045260246000fd5b600080fd5b600080fd5b600080fd5b600080fd5b6000601f19601f8301169050919050565b6200044181620002ec565b81146200044d57600080fd5b50565b6110da80620004606000396000f3fe608060405234801561001057600080fd5b50600436106100935760003560e01c80635c19a95c116100665780635c19a95c14610121578063609ff1bd1461013d5780639e7b8d611461015b578063a3ec138d14610177578063e2ba53f0146101aa57610093565b80630121b93f14610098578063013cf08b146100b4578063200d2ed2146100e55780632e4176cf14610103575b600080fd5b6100b260048036038101906100ad9190610a3d565b6101c8565b005b6100ce60048036038101906100c99190610a3d565b61030f565b6040516100dc929190610be0565b60405180910390f35b6100ed610343565b6040516100fa9190610c09565b60405180910390f35b61010b610356565b6040516101189190610baa565b60405180910390f35b61013b60048036038101906101369190610a10565b61037a565b005b610145610716565b6040516101529190610d04565b60405180910390f35b61017560048036038101906101709190610a10565b61079e565b005b610191600480360381019061018c9190610a10565b610955565b6040516101a19493929190610d1f565b60405180910390f35b6101b26109b2565b6040516101bf9190610bc5565b60405180910390f35b6000600160003373ffffffffffffffffffffffffffffffffffffffff1673ffffffffffffffffffffffffffffffffffffffff1681526020019081526020016000209050600081600001541415610253576040517f08c379a000000000000000000000000000000000000000000000000000000000815260040161024a90610c24565b60405180910390fd5b8060010160009054906101000a900460ff16156102a5576040517f08c379a000000000000000000000000000000000000000000000000000000000815260040161029c90610c44565b60405180910390fd5b60018160010160006101000a81548160ff0219169083151502179055508181600201819055508060000154600383815481106102e4576102e3610ee9565b5b906000526020600020906002020160010160008282546103049190610d75565b925050819055505050565b6003818154811061031f57600080fd5b90600052602060002090600202016000915090508060000154908060010154905082565b600260009054906101000a900460ff1681565b60008054906101000a900473ffffffffffffffffffffffffffffffffffffffff1681565b6000600160003373ffffffffffffffffffffffffffffffffffffffff1673ffffffffffffffffffffffffffffffffffffffff16815260200190815260200160002090508060010160009054906101000a900460ff161561040f576040517f08c379a000000000000000000000000000000000000000000000000000000000815260040161040690610c64565b60405180910390fd5b3373ffffffffffffffffffffffffffffffffffffffff168273ffffffffffffffffffffffffffffffffffffffff16141561047e576040517f08c379a000000000000000000000000000000000000000000000000000000000815260040161047590610ce4565b60405180910390fd5b5b600073ffffffffffffffffffffffffffffffffffffffff16600160008473ffffffffffffffffffffffffffffffffffffffff1673ffffffffffffffffffffffffffffffffffffffff16815260200190815260200160002060010160019054906101000a900473ffffffffffffffffffffffffffffffffffffffff1673ffffffffffffffffffffffffffffffffffffffff16146105ee57600160008373ffffffffffffffffffffffffffffffffffffffff1673ffffffffffffffffffffffffffffffffffffffff16815260200190815260200160002060010160019054906101000a900473ffffffffffffffffffffffffffffffffffffffff1691503373ffffffffffffffffffffffffffffffffffffffff168273ffffffffffffffffffffffffffffffffffffffff1614156105e9576040517f08c379a00000000000000000000000000000000000000000000000000000000081526004016105e090610ca4565b60405180910390fd5b61047f565b60018160010160006101000a81548160ff021916908315150217905550818160010160016101000a81548173ffffffffffffffffffffffffffffffffffffffff021916908373ffffffffffffffffffffffffffffffffffffffff1602179055506000600160008473ffffffffffffffffffffffffffffffffffffffff1673ffffffffffffffffffffffffffffffffffffffff16815260200190815260200160002090508060010160009054906101000a900460ff16156106f157816000015460038260020154815481106106c5576106c4610ee9565b5b906000526020600020906002020160010160008282546106e59190610d75565b92505081905550610711565b81600001548160000160008282546107099190610d75565b925050819055505b505050565b6000806000905060005b60038054905081101561079957816003828154811061074257610741610ee9565b5b9060005260206000209060020201600101541115610786576003818154811061076e5761076d610ee9565b5b90600052602060002090600202016001015491508092505b808061079190610e42565b915050610720565b505090565b60008054906101000a900473ffffffffffffffffffffffffffffffffffffffff1673ffffffffffffffffffffffffffffffffffffffff163373ffffffffffffffffffffffffffffffffffffffff161461082c576040517f08c379a000000000000000000000000000000000000000000000000000000000815260040161082390610c84565b60405180910390fd5b600160008273ffffffffffffffffffffffffffffffffffffffff1673ffffffffffffffffffffffffffffffffffffffff16815260200190815260200160002060010160009054906101000a900460ff16156108bc576040517f08c379a00000000000000000000000000000000000000000000000000000000081526004016108b390610cc4565b60405180910390fd5b6000600160008373ffffffffffffffffffffffffffffffffffffffff1673ffffffffffffffffffffffffffffffffffffffff168152602001908152602001600020600001541461090b57600080fd5b60018060008373ffffffffffffffffffffffffffffffffffffffff1673ffffffffffffffffffffffffffffffffffffffff1681526020019081526020016000206000018190555050565b60016020528060005260406000206000915090508060000154908060010160009054906101000a900460ff16908060010160019054906101000a900473ffffffffffffffffffffffffffffffffffffffff16908060020154905084565b600060036109be610716565b815481106109cf576109ce610ee9565b5b906000526020600020906002020160000154905090565b6000813590506109f581611076565b92915050565b600081359050610a0a8161108d565b92915050565b600060208284031215610a2657610a25610f18565b5b6000610a34848285016109e6565b91505092915050565b600060208284031215610a5357610a52610f18565b5b6000610a61848285016109fb565b91505092915050565b610a7381610dcb565b82525050565b610a8281610ddd565b82525050565b610a9181610de9565b82525050565b610aa081610e30565b82525050565b6000610ab3601483610d64565b9150610abe82610f1d565b602082019050919050565b6000610ad6600e83610d64565b9150610ae182610f46565b602082019050919050565b6000610af9601283610d64565b9150610b0482610f6f565b602082019050919050565b6000610b1c602883610d64565b9150610b2782610f98565b604082019050919050565b6000610b3f601983610d64565b9150610b4a82610fe7565b602082019050919050565b6000610b62601883610d64565b9150610b6d82611010565b602082019050919050565b6000610b85601e83610d64565b9150610b9082611039565b602082019050919050565b610ba481610e26565b82525050565b6000602082019050610bbf6000830184610a6a565b92915050565b6000602082019050610bda6000830184610a88565b92915050565b6000604082019050610bf56000830185610a88565b610c026020830184610b9b565b9392505050565b6000602082019050610c1e6000830184610a97565b92915050565b60006020820190508181036000830152610c3d81610aa6565b9050919050565b60006020820190508181036000830152610c5d81610ac9565b9050919050565b60006020820190508181036000830152610c7d81610aec565b9050919050565b60006020820190508181036000830152610c9d81610b0f565b9050919050565b60006020820190508181036000830152610cbd81610b32565b9050919050565b60006020820190508181036000830152610cdd81610b55565b9050919050565b60006020820190508181036000830152610cfd81610b78565b9050919050565b6000602082019050610d196000830184610b9b565b92915050565b6000608082019050610d346000830187610b9b565b610d416020830186610a79565b610d4e6040830185610a6a565b610d5b6060830184610b9b565b95945050505050565b600082825260208201905092915050565b6000610d8082610e26565b9150610d8b83610e26565b9250827fffffffffffffffffffffffffffffffffffffffffffffffffffffffffffffffff03821115610dc057610dbf610e8b565b5b828201905092915050565b6000610dd682610e06565b9050919050565b60008115159050919050565b6000819050919050565b6000819050610e0182611062565b919050565b600073ffffffffffffffffffffffffffffffffffffffff82169050919050565b6000819050919050565b6000610e3b82610df3565b9050919050565b6000610e4d82610e26565b91507fffffffffffffffffffffffffffffffffffffffffffffffffffffffffffffffff821415610e8057610e7f610e8b565b5b600182019050919050565b7f4e487b7100000000000000000000000000000000000000000000000000000000600052601160045260246000fd5b7f4e487b7100000000000000000000000000000000000000000000000000000000600052602160045260246000fd5b7f4e487b7100000000000000000000000000000000000000000000000000000000600052603260045260246000fd5b600080fd5b7f486173206e6f20726967687420746f20766f7465000000000000000000000000600082015250565b7f416c726561647920766f7465642e000000000000000000000000000000000000600082015250565b7f596f7520616c726561647920766f7465642e0000000000000000000000000000600082015250565b7f4f6e6c79206368616972706572736f6e2063616e20676976652072696768742060008201527f746f20766f74652e000000000000000000000000000000000000000000000000602082015250565b7f466f756e64206c6f6f7020696e2064656c65676174696f6e2e00000000000000600082015250565b7f54686520766f74657220616c726561647920766f7465642e0000000000000000600082015250565b7f53656c662d64656c65676174696f6e20697320646973616c6c6f7765642e0000600082015250565b6002811061107357611072610eba565b5b50565b61107f81610dcb565b811461108a57600080fd5b50565b61109681610e26565b81146110a157600080fd5b5056fea2646970667358221220d2b236941f0c7bc57f94996bca7cb99c5453f5b5080367a289290e003fd6af1b64736f6c63430008070033",
					"opcodes": "PUSH1 0x80 PUSH1 0x40 MSTORE CALLVALUE DUP1 ISZERO PUSH3 0x11 JUMPI PUSH1 0x0 DUP1 REVERT JUMPDEST POP PUSH1 0x40 MLOAD PUSH3 0x153A CODESIZE SUB DUP1 PUSH3 0x153A DUP4 CODECOPY DUP2 DUP2 ADD PUSH1 0x40 MSTORE DUP2 ADD SWAP1 PUSH3 0x37 SWAP2 SWAP1 PUSH3 0x243 JUMP JUMPDEST CALLER PUSH1 0x0 DUP1 PUSH2 0x100 EXP DUP2 SLOAD DUP2 PUSH20 0xFFFFFFFFFFFFFFFFFFFFFFFFFFFFFFFFFFFFFFFF MUL NOT AND SWAP1 DUP4 PUSH20 0xFFFFFFFFFFFFFFFFFFFFFFFFFFFFFFFFFFFFFFFF AND MUL OR SWAP1 SSTORE POP PUSH1 0x1 DUP1 PUSH1 0x0 DUP1 PUSH1 0x0 SWAP1 SLOAD SWAP1 PUSH2 0x100 EXP SWAP1 DIV PUSH20 0xFFFFFFFFFFFFFFFFFFFFFFFFFFFFFFFFFFFFFFFF AND PUSH20 0xFFFFFFFFFFFFFFFFFFFFFFFFFFFFFFFFFFFFFFFF AND PUSH20 0xFFFFFFFFFFFFFFFFFFFFFFFFFFFFFFFFFFFFFFFF AND DUP2 MSTORE PUSH1 0x20 ADD SWAP1 DUP2 MSTORE PUSH1 0x20 ADD PUSH1 0x0 KECCAK256 PUSH1 0x0 ADD DUP2 SWAP1 SSTORE POP PUSH1 0x0 JUMPDEST DUP2 MLOAD DUP2 LT ISZERO PUSH3 0x176 JUMPI PUSH1 0x3 PUSH1 0x40 MLOAD DUP1 PUSH1 0x40 ADD PUSH1 0x40 MSTORE DUP1 DUP5 DUP5 DUP2 MLOAD DUP2 LT PUSH3 0x10F JUMPI PUSH3 0x10E PUSH3 0x3B3 JUMP JUMPDEST JUMPDEST PUSH1 0x20 MUL PUSH1 0x20 ADD ADD MLOAD DUP2 MSTORE PUSH1 0x20 ADD PUSH1 0x0 DUP2 MSTORE POP SWAP1 DUP1 PUSH1 0x1 DUP2 SLOAD ADD DUP1 DUP3 SSTORE DUP1 SWAP2 POP POP PUSH1 0x1 SWAP1 SUB SWAP1 PUSH1 0x0 MSTORE PUSH1 0x20 PUSH1 0x0 KECCAK256 SWAP1 PUSH1 0x2 MUL ADD PUSH1 0x0 SWAP1 SWAP2 SWAP1 SWAP2 SWAP1 SWAP2 POP PUSH1 0x0 DUP3 ADD MLOAD DUP2 PUSH1 0x0 ADD SSTORE PUSH1 0x20 DUP3 ADD MLOAD DUP2 PUSH1 0x1 ADD SSTORE POP POP DUP1 DUP1 PUSH3 0x16D SWAP1 PUSH3 0x336 JUMP JUMPDEST SWAP2 POP POP PUSH3 0xE2 JUMP JUMPDEST POP POP PUSH3 0x450 JUMP JUMPDEST PUSH1 0x0 PUSH3 0x195 PUSH3 0x18F DUP5 PUSH3 0x2BD JUMP JUMPDEST PUSH3 0x294 JUMP JUMPDEST SWAP1 POP DUP1 DUP4 DUP3 MSTORE PUSH1 0x20 DUP3 ADD SWAP1 POP DUP3 DUP6 PUSH1 0x20 DUP7 MUL DUP3 ADD GT ISZERO PUSH3 0x1BB JUMPI PUSH3 0x1BA PUSH3 0x416 JUMP JUMPDEST JUMPDEST PUSH1 0x0 JUMPDEST DUP6 DUP2 LT ISZERO PUSH3 0x1EF JUMPI DUP2 PUSH3 0x1D4 DUP9 DUP3 PUSH3 0x22C JUMP JUMPDEST DUP5 MSTORE PUSH1 0x20 DUP5 ADD SWAP4 POP PUSH1 0x20 DUP4 ADD SWAP3 POP POP PUSH1 0x1 DUP2 ADD SWAP1 POP PUSH3 0x1BE JUMP JUMPDEST POP POP POP SWAP4 SWAP3 POP POP POP JUMP JUMPDEST PUSH1 0x0 DUP3 PUSH1 0x1F DUP4 ADD SLT PUSH3 0x211 JUMPI PUSH3 0x210 PUSH3 0x411 JUMP JUMPDEST JUMPDEST DUP2 MLOAD PUSH3 0x223 DUP5 DUP3 PUSH1 0x20 DUP7 ADD PUSH3 0x17E JUMP JUMPDEST SWAP2 POP POP SWAP3 SWAP2 POP POP JUMP JUMPDEST PUSH1 0x0 DUP2 MLOAD SWAP1 POP PUSH3 0x23D DUP2 PUSH3 0x436 JUMP JUMPDEST SWAP3 SWAP2 POP POP JUMP JUMPDEST PUSH1 0x0 PUSH1 0x20 DUP3 DUP5 SUB SLT ISZERO PUSH3 0x25C JUMPI PUSH3 0x25B PUSH3 0x420 JUMP JUMPDEST JUMPDEST PUSH1 0x0 DUP3 ADD MLOAD PUSH8 0xFFFFFFFFFFFFFFFF DUP2 GT ISZERO PUSH3 0x27D JUMPI PUSH3 0x27C PUSH3 0x41B JUMP JUMPDEST JUMPDEST PUSH3 0x28B DUP5 DUP3 DUP6 ADD PUSH3 0x1F9 JUMP JUMPDEST SWAP2 POP POP SWAP3 SWAP2 POP POP JUMP JUMPDEST PUSH1 0x0 PUSH3 0x2A0 PUSH3 0x2B3 JUMP JUMPDEST SWAP1 POP PUSH3 0x2AE DUP3 DUP3 PUSH3 0x300 JUMP JUMPDEST SWAP2 SWAP1 POP JUMP JUMPDEST PUSH1 0x0 PUSH1 0x40 MLOAD SWAP1 POP SWAP1 JUMP JUMPDEST PUSH1 0x0 PUSH8 0xFFFFFFFFFFFFFFFF DUP3 GT ISZERO PUSH3 0x2DB JUMPI PUSH3 0x2DA PUSH3 0x3E2 JUMP JUMPDEST JUMPDEST PUSH1 0x20 DUP3 MUL SWAP1 POP PUSH1 0x20 DUP2 ADD SWAP1 POP SWAP2 SWAP1 POP JUMP JUMPDEST PUSH1 0x0 DUP2 SWAP1 POP SWAP2 SWAP1 POP JUMP JUMPDEST PUSH1 0x0 DUP2 SWAP1 POP SWAP2 SWAP1 POP JUMP JUMPDEST PUSH3 0x30B DUP3 PUSH3 0x425 JUMP JUMPDEST DUP2 ADD DUP2 DUP2 LT PUSH8 0xFFFFFFFFFFFFFFFF DUP3 GT OR ISZERO PUSH3 0x32D JUMPI PUSH3 0x32C PUSH3 0x3E2 JUMP JUMPDEST JUMPDEST DUP1 PUSH1 0x40 MSTORE POP POP POP JUMP JUMPDEST PUSH1 0x0 PUSH3 0x343 DUP3 PUSH3 0x2F6 JUMP JUMPDEST SWAP2 POP PUSH32 0xFFFFFFFFFFFFFFFFFFFFFFFFFFFFFFFFFFFFFFFFFFFFFFFFFFFFFFFFFFFFFFFF DUP3 EQ ISZERO PUSH3 0x379 JUMPI PUSH3 0x378 PUSH3 0x384 JUMP JUMPDEST JUMPDEST PUSH1 0x1 DUP3 ADD SWAP1 POP SWAP2 SWAP1 POP JUMP JUMPDEST PUSH32 0x4E487B7100000000000000000000000000000000000000000000000000000000 PUSH1 0x0 MSTORE PUSH1 0x11 PUSH1 0x4 MSTORE PUSH1 0x24 PUSH1 0x0 REVERT JUMPDEST PUSH32 0x4E487B7100000000000000000000000000000000000000000000000000000000 PUSH1 0x0 MSTORE PUSH1 0x32 PUSH1 0x4 MSTORE PUSH1 0x24 PUSH1 0x0 REVERT JUMPDEST PUSH32 0x4E487B7100000000000000000000000000000000000000000000000000000000 PUSH1 0x0 MSTORE PUSH1 0x41 PUSH1 0x4 MSTORE PUSH1 0x24 PUSH1 0x0 REVERT JUMPDEST PUSH1 0x0 DUP1 REVERT JUMPDEST PUSH1 0x0 DUP1 REVERT JUMPDEST PUSH1 0x0 DUP1 REVERT JUMPDEST PUSH1 0x0 DUP1 REVERT JUMPDEST PUSH1 0x0 PUSH1 0x1F NOT PUSH1 0x1F DUP4 ADD AND SWAP1 POP SWAP2 SWAP1 POP JUMP JUMPDEST PUSH3 0x441 DUP2 PUSH3 0x2EC JUMP JUMPDEST DUP2 EQ PUSH3 0x44D JUMPI PUSH1 0x0 DUP1 REVERT JUMPDEST POP JUMP JUMPDEST PUSH2 0x10DA DUP1 PUSH3 0x460 PUSH1 0x0 CODECOPY PUSH1 0x0 RETURN INVALID PUSH1 0x80 PUSH1 0x40 MSTORE CALLVALUE DUP1 ISZERO PUSH2 0x10 JUMPI PUSH1 0x0 DUP1 REVERT JUMPDEST POP PUSH1 0x4 CALLDATASIZE LT PUSH2 0x93 JUMPI PUSH1 0x0 CALLDATALOAD PUSH1 0xE0 SHR DUP1 PUSH4 0x5C19A95C GT PUSH2 0x66 JUMPI DUP1 PUSH4 0x5C19A95C EQ PUSH2 0x121 JUMPI DUP1 PUSH4 0x609FF1BD EQ PUSH2 0x13D JUMPI DUP1 PUSH4 0x9E7B8D61 EQ PUSH2 0x15B JUMPI DUP1 PUSH4 0xA3EC138D EQ PUSH2 0x177 JUMPI DUP1 PUSH4 0xE2BA53F0 EQ PUSH2 0x1AA JUMPI PUSH2 0x93 JUMP JUMPDEST DUP1 PUSH4 0x121B93F EQ PUSH2 0x98 JUMPI DUP1 PUSH4 0x13CF08B EQ PUSH2 0xB4 JUMPI DUP1 PUSH4 0x200D2ED2 EQ PUSH2 0xE5 JUMPI DUP1 PUSH4 0x2E4176CF EQ PUSH2 0x103 JUMPI JUMPDEST PUSH1 0x0 DUP1 REVERT JUMPDEST PUSH2 0xB2 PUSH1 0x4 DUP1 CALLDATASIZE SUB DUP2 ADD SWAP1 PUSH2 0xAD SWAP2 SWAP1 PUSH2 0xA3D JUMP JUMPDEST PUSH2 0x1C8 JUMP JUMPDEST STOP JUMPDEST PUSH2 0xCE PUSH1 0x4 DUP1 CALLDATASIZE SUB DUP2 ADD SWAP1 PUSH2 0xC9 SWAP2 SWAP1 PUSH2 0xA3D JUMP JUMPDEST PUSH2 0x30F JUMP JUMPDEST PUSH1 0x40 MLOAD PUSH2 0xDC SWAP3 SWAP2 SWAP1 PUSH2 0xBE0 JUMP JUMPDEST PUSH1 0x40 MLOAD DUP1 SWAP2 SUB SWAP1 RETURN JUMPDEST PUSH2 0xED PUSH2 0x343 JUMP JUMPDEST PUSH1 0x40 MLOAD PUSH2 0xFA SWAP2 SWAP1 PUSH2 0xC09 JUMP JUMPDEST PUSH1 0x40 MLOAD DUP1 SWAP2 SUB SWAP1 RETURN JUMPDEST PUSH2 0x10B PUSH2 0x356 JUMP JUMPDEST PUSH1 0x40 MLOAD PUSH2 0x118 SWAP2 SWAP1 PUSH2 0xBAA JUMP JUMPDEST PUSH1 0x40 MLOAD DUP1 SWAP2 SUB SWAP1 RETURN JUMPDEST PUSH2 0x13B PUSH1 0x4 DUP1 CALLDATASIZE SUB DUP2 ADD SWAP1 PUSH2 0x136 SWAP2 SWAP1 PUSH2 0xA10 JUMP JUMPDEST PUSH2 0x37A JUMP JUMPDEST STOP JUMPDEST PUSH2 0x145 PUSH2 0x716 JUMP JUMPDEST PUSH1 0x40 MLOAD PUSH2 0x152 SWAP2 SWAP1 PUSH2 0xD04 JUMP JUMPDEST PUSH1 0x40 MLOAD DUP1 SWAP2 SUB SWAP1 RETURN JUMPDEST PUSH2 0x175 PUSH1 0x4 DUP1 CALLDATASIZE SUB DUP2 ADD SWAP1 PUSH2 0x170 SWAP2 SWAP1 PUSH2 0xA10 JUMP JUMPDEST PUSH2 0x79E JUMP JUMPDEST STOP JUMPDEST PUSH2 0x191 PUSH1 0x4 DUP1 CALLDATASIZE SUB DUP2 ADD SWAP1 PUSH2 0x18C SWAP2 SWAP1 PUSH2 0xA10 JUMP JUMPDEST PUSH2 0x955 JUMP JUMPDEST PUSH1 0x40 MLOAD PUSH2 0x1A1 SWAP5 SWAP4 SWAP3 SWAP2 SWAP1 PUSH2 0xD1F JUMP JUMPDEST PUSH1 0x40 MLOAD DUP1 SWAP2 SUB SWAP1 RETURN JUMPDEST PUSH2 0x1B2 PUSH2 0x9B2 JUMP JUMPDEST PUSH1 0x40 MLOAD PUSH2 0x1BF SWAP2 SWAP1 PUSH2 0xBC5 JUMP JUMPDEST PUSH1 0x40 MLOAD DUP1 SWAP2 SUB SWAP1 RETURN JUMPDEST PUSH1 0x0 PUSH1 0x1 PUSH1 0x0 CALLER PUSH20 0xFFFFFFFFFFFFFFFFFFFFFFFFFFFFFFFFFFFFFFFF AND PUSH20 0xFFFFFFFFFFFFFFFFFFFFFFFFFFFFFFFFFFFFFFFF AND DUP2 MSTORE PUSH1 0x20 ADD SWAP1 DUP2 MSTORE PUSH1 0x20 ADD PUSH1 0x0 KECCAK256 SWAP1 POP PUSH1 0x0 DUP2 PUSH1 0x0 ADD SLOAD EQ ISZERO PUSH2 0x253 JUMPI PUSH1 0x40 MLOAD PUSH32 0x8C379A000000000000000000000000000000000000000000000000000000000 DUP2 MSTORE PUSH1 0x4 ADD PUSH2 0x24A SWAP1 PUSH2 0xC24 JUMP JUMPDEST PUSH1 0x40 MLOAD DUP1 SWAP2 SUB SWAP1 REVERT JUMPDEST DUP1 PUSH1 0x1 ADD PUSH1 0x0 SWAP1 SLOAD SWAP1 PUSH2 0x100 EXP SWAP1 DIV PUSH1 0xFF AND ISZERO PUSH2 0x2A5 JUMPI PUSH1 0x40 MLOAD PUSH32 0x8C379A000000000000000000000000000000000000000000000000000000000 DUP2 MSTORE PUSH1 0x4 ADD PUSH2 0x29C SWAP1 PUSH2 0xC44 JUMP JUMPDEST PUSH1 0x40 MLOAD DUP1 SWAP2 SUB SWAP1 REVERT JUMPDEST PUSH1 0x1 DUP2 PUSH1 0x1 ADD PUSH1 0x0 PUSH2 0x100 EXP DUP2 SLOAD DUP2 PUSH1 0xFF MUL NOT AND SWAP1 DUP4 ISZERO ISZERO MUL OR SWAP1 SSTORE POP DUP2 DUP2 PUSH1 0x2 ADD DUP2 SWAP1 SSTORE POP DUP1 PUSH1 0x0 ADD SLOAD PUSH1 0x3 DUP4 DUP2 SLOAD DUP2 LT PUSH2 0x2E4 JUMPI PUSH2 0x2E3 PUSH2 0xEE9 JUMP JUMPDEST JUMPDEST SWAP1 PUSH1 0x0 MSTORE PUSH1 0x20 PUSH1 0x0 KECCAK256 SWAP1 PUSH1 0x2 MUL ADD PUSH1 0x1 ADD PUSH1 0x0 DUP3 DUP3 SLOAD PUSH2 0x304 SWAP2 SWAP1 PUSH2 0xD75 JUMP JUMPDEST SWAP3 POP POP DUP2 SWAP1 SSTORE POP POP POP JUMP JUMPDEST PUSH1 0x3 DUP2 DUP2 SLOAD DUP2 LT PUSH2 0x31F JUMPI PUSH1 0x0 DUP1 REVERT JUMPDEST SWAP1 PUSH1 0x0 MSTORE PUSH1 0x20 PUSH1 0x0 KECCAK256 SWAP1 PUSH1 0x2 MUL ADD PUSH1 0x0 SWAP2 POP SWAP1 POP DUP1 PUSH1 0x0 ADD SLOAD SWAP1 DUP1 PUSH1 0x1 ADD SLOAD SWAP1 POP DUP3 JUMP JUMPDEST PUSH1 0x2 PUSH1 0x0 SWAP1 SLOAD SWAP1 PUSH2 0x100 EXP SWAP1 DIV PUSH1 0xFF AND DUP2 JUMP JUMPDEST PUSH1 0x0 DUP1 SLOAD SWAP1 PUSH2 0x100 EXP SWAP1 DIV PUSH20 0xFFFFFFFFFFFFFFFFFFFFFFFFFFFFFFFFFFFFFFFF AND DUP2 JUMP JUMPDEST PUSH1 0x0 PUSH1 0x1 PUSH1 0x0 CALLER PUSH20 0xFFFFFFFFFFFFFFFFFFFFFFFFFFFFFFFFFFFFFFFF AND PUSH20 0xFFFFFFFFFFFFFFFFFFFFFFFFFFFFFFFFFFFFFFFF AND DUP2 MSTORE PUSH1 0x20 ADD SWAP1 DUP2 MSTORE PUSH1 0x20 ADD PUSH1 0x0 KECCAK256 SWAP1 POP DUP1 PUSH1 0x1 ADD PUSH1 0x0 SWAP1 SLOAD SWAP1 PUSH2 0x100 EXP SWAP1 DIV PUSH1 0xFF AND ISZERO PUSH2 0x40F JUMPI PUSH1 0x40 MLOAD PUSH32 0x8C379A000000000000000000000000000000000000000000000000000000000 DUP2 MSTORE PUSH1 0x4 ADD PUSH2 0x406 SWAP1 PUSH2 0xC64 JUMP JUMPDEST PUSH1 0x40 MLOAD DUP1 SWAP2 SUB SWAP1 REVERT JUMPDEST CALLER PUSH20 0xFFFFFFFFFFFFFFFFFFFFFFFFFFFFFFFFFFFFFFFF AND DUP3 PUSH20 0xFFFFFFFFFFFFFFFFFFFFFFFFFFFFFFFFFFFFFFFF AND EQ ISZERO PUSH2 0x47E JUMPI PUSH1 0x40 MLOAD PUSH32 0x8C379A000000000000000000000000000000000000000000000000000000000 DUP2 MSTORE PUSH1 0x4 ADD PUSH2 0x475 SWAP1 PUSH2 0xCE4 JUMP JUMPDEST PUSH1 0x40 MLOAD DUP1 SWAP2 SUB SWAP1 REVERT JUMPDEST JUMPDEST PUSH1 0x0 PUSH20 0xFFFFFFFFFFFFFFFFFFFFFFFFFFFFFFFFFFFFFFFF AND PUSH1 0x1 PUSH1 0x0 DUP5 PUSH20 0xFFFFFFFFFFFFFFFFFFFFFFFFFFFFFFFFFFFFFFFF AND PUSH20 0xFFFFFFFFFFFFFFFFFFFFFFFFFFFFFFFFFFFFFFFF AND DUP2 MSTORE PUSH1 0x20 ADD SWAP1 DUP2 MSTORE PUSH1 0x20 ADD PUSH1 0x0 KECCAK256 PUSH1 0x1 ADD PUSH1 0x1 SWAP1 SLOAD SWAP1 PUSH2 0x100 EXP SWAP1 DIV PUSH20 0xFFFFFFFFFFFFFFFFFFFFFFFFFFFFFFFFFFFFFFFF AND PUSH20 0xFFFFFFFFFFFFFFFFFFFFFFFFFFFFFFFFFFFFFFFF AND EQ PUSH2 0x5EE JUMPI PUSH1 0x1 PUSH1 0x0 DUP4 PUSH20 0xFFFFFFFFFFFFFFFFFFFFFFFFFFFFFFFFFFFFFFFF AND PUSH20 0xFFFFFFFFFFFFFFFFFFFFFFFFFFFFFFFFFFFFFFFF AND DUP2 MSTORE PUSH1 0x20 ADD SWAP1 DUP2 MSTORE PUSH1 0x20 ADD PUSH1 0x0 KECCAK256 PUSH1 0x1 ADD PUSH1 0x1 SWAP1 SLOAD SWAP1 PUSH2 0x100 EXP SWAP1 DIV PUSH20 0xFFFFFFFFFFFFFFFFFFFFFFFFFFFFFFFFFFFFFFFF AND SWAP2 POP CALLER PUSH20 0xFFFFFFFFFFFFFFFFFFFFFFFFFFFFFFFFFFFFFFFF AND DUP3 PUSH20 0xFFFFFFFFFFFFFFFFFFFFFFFFFFFFFFFFFFFFFFFF AND EQ ISZERO PUSH2 0x5E9 JUMPI PUSH1 0x40 MLOAD PUSH32 0x8C379A000000000000000000000000000000000000000000000000000000000 DUP2 MSTORE PUSH1 0x4 ADD PUSH2 0x5E0 SWAP1 PUSH2 0xCA4 JUMP JUMPDEST PUSH1 0x40 MLOAD DUP1 SWAP2 SUB SWAP1 REVERT JUMPDEST PUSH2 0x47F JUMP JUMPDEST PUSH1 0x1 DUP2 PUSH1 0x1 ADD PUSH1 0x0 PUSH2 0x100 EXP DUP2 SLOAD DUP2 PUSH1 0xFF MUL NOT AND SWAP1 DUP4 ISZERO ISZERO MUL OR SWAP1 SSTORE POP DUP2 DUP2 PUSH1 0x1 ADD PUSH1 0x1 PUSH2 0x100 EXP DUP2 SLOAD DUP2 PUSH20 0xFFFFFFFFFFFFFFFFFFFFFFFFFFFFFFFFFFFFFFFF MUL NOT AND SWAP1 DUP4 PUSH20 0xFFFFFFFFFFFFFFFFFFFFFFFFFFFFFFFFFFFFFFFF AND MUL OR SWAP1 SSTORE POP PUSH1 0x0 PUSH1 0x1 PUSH1 0x0 DUP5 PUSH20 0xFFFFFFFFFFFFFFFFFFFFFFFFFFFFFFFFFFFFFFFF AND PUSH20 0xFFFFFFFFFFFFFFFFFFFFFFFFFFFFFFFFFFFFFFFF AND DUP2 MSTORE PUSH1 0x20 ADD SWAP1 DUP2 MSTORE PUSH1 0x20 ADD PUSH1 0x0 KECCAK256 SWAP1 POP DUP1 PUSH1 0x1 ADD PUSH1 0x0 SWAP1 SLOAD SWAP1 PUSH2 0x100 EXP SWAP1 DIV PUSH1 0xFF AND ISZERO PUSH2 0x6F1 JUMPI DUP2 PUSH1 0x0 ADD SLOAD PUSH1 0x3 DUP3 PUSH1 0x2 ADD SLOAD DUP2 SLOAD DUP2 LT PUSH2 0x6C5 JUMPI PUSH2 0x6C4 PUSH2 0xEE9 JUMP JUMPDEST JUMPDEST SWAP1 PUSH1 0x0 MSTORE PUSH1 0x20 PUSH1 0x0 KECCAK256 SWAP1 PUSH1 0x2 MUL ADD PUSH1 0x1 ADD PUSH1 0x0 DUP3 DUP3 SLOAD PUSH2 0x6E5 SWAP2 SWAP1 PUSH2 0xD75 JUMP JUMPDEST SWAP3 POP POP DUP2 SWAP1 SSTORE POP PUSH2 0x711 JUMP JUMPDEST DUP2 PUSH1 0x0 ADD SLOAD DUP2 PUSH1 0x0 ADD PUSH1 0x0 DUP3 DUP3 SLOAD PUSH2 0x709 SWAP2 SWAP1 PUSH2 0xD75 JUMP JUMPDEST SWAP3 POP POP DUP2 SWAP1 SSTORE POP JUMPDEST POP POP POP JUMP JUMPDEST PUSH1 0x0 DUP1 PUSH1 0x0 SWAP1 POP PUSH1 0x0 JUMPDEST PUSH1 0x3 DUP1 SLOAD SWAP1 POP DUP2 LT ISZERO PUSH2 0x799 JUMPI DUP2 PUSH1 0x3 DUP3 DUP2 SLOAD DUP2 LT PUSH2 0x742 JUMPI PUSH2 0x741 PUSH2 0xEE9 JUMP JUMPDEST JUMPDEST SWAP1 PUSH1 0x0 MSTORE PUSH1 0x20 PUSH1 0x0 KECCAK256 SWAP1 PUSH1 0x2 MUL ADD PUSH1 0x1 ADD SLOAD GT ISZERO PUSH2 0x786 JUMPI PUSH1 0x3 DUP2 DUP2 SLOAD DUP2 LT PUSH2 0x76E JUMPI PUSH2 0x76D PUSH2 0xEE9 JUMP JUMPDEST JUMPDEST SWAP1 PUSH1 0x0 MSTORE PUSH1 0x20 PUSH1 0x0 KECCAK256 SWAP1 PUSH1 0x2 MUL ADD PUSH1 0x1 ADD SLOAD SWAP2 POP DUP1 SWAP3 POP JUMPDEST DUP1 DUP1 PUSH2 0x791 SWAP1 PUSH2 0xE42 JUMP JUMPDEST SWAP2 POP POP PUSH2 0x720 JUMP JUMPDEST POP POP SWAP1 JUMP JUMPDEST PUSH1 0x0 DUP1 SLOAD SWAP1 PUSH2 0x100 EXP SWAP1 DIV PUSH20 0xFFFFFFFFFFFFFFFFFFFFFFFFFFFFFFFFFFFFFFFF AND PUSH20 0xFFFFFFFFFFFFFFFFFFFFFFFFFFFFFFFFFFFFFFFF AND CALLER PUSH20 0xFFFFFFFFFFFFFFFFFFFFFFFFFFFFFFFFFFFFFFFF AND EQ PUSH2 0x82C JUMPI PUSH1 0x40 MLOAD PUSH32 0x8C379A000000000000000000000000000000000000000000000000000000000 DUP2 MSTORE PUSH1 0x4 ADD PUSH2 0x823 SWAP1 PUSH2 0xC84 JUMP JUMPDEST PUSH1 0x40 MLOAD DUP1 SWAP2 SUB SWAP1 REVERT JUMPDEST PUSH1 0x1 PUSH1 0x0 DUP3 PUSH20 0xFFFFFFFFFFFFFFFFFFFFFFFFFFFFFFFFFFFFFFFF AND PUSH20 0xFFFFFFFFFFFFFFFFFFFFFFFFFFFFFFFFFFFFFFFF AND DUP2 MSTORE PUSH1 0x20 ADD SWAP1 DUP2 MSTORE PUSH1 0x20 ADD PUSH1 0x0 KECCAK256 PUSH1 0x1 ADD PUSH1 0x0 SWAP1 SLOAD SWAP1 PUSH2 0x100 EXP SWAP1 DIV PUSH1 0xFF AND ISZERO PUSH2 0x8BC JUMPI PUSH1 0x40 MLOAD PUSH32 0x8C379A000000000000000000000000000000000000000000000000000000000 DUP2 MSTORE PUSH1 0x4 ADD PUSH2 0x8B3 SWAP1 PUSH2 0xCC4 JUMP JUMPDEST PUSH1 0x40 MLOAD DUP1 SWAP2 SUB SWAP1 REVERT JUMPDEST PUSH1 0x0 PUSH1 0x1 PUSH1 0x0 DUP4 PUSH20 0xFFFFFFFFFFFFFFFFFFFFFFFFFFFFFFFFFFFFFFFF AND PUSH20 0xFFFFFFFFFFFFFFFFFFFFFFFFFFFFFFFFFFFFFFFF AND DUP2 MSTORE PUSH1 0x20 ADD SWAP1 DUP2 MSTORE PUSH1 0x20 ADD PUSH1 0x0 KECCAK256 PUSH1 0x0 ADD SLOAD EQ PUSH2 0x90B JUMPI PUSH1 0x0 DUP1 REVERT JUMPDEST PUSH1 0x1 DUP1 PUSH1 0x0 DUP4 PUSH20 0xFFFFFFFFFFFFFFFFFFFFFFFFFFFFFFFFFFFFFFFF AND PUSH20 0xFFFFFFFFFFFFFFFFFFFFFFFFFFFFFFFFFFFFFFFF AND DUP2 MSTORE PUSH1 0x20 ADD SWAP1 DUP2 MSTORE PUSH1 0x20 ADD PUSH1 0x0 KECCAK256 PUSH1 0x0 ADD DUP2 SWAP1 SSTORE POP POP JUMP JUMPDEST PUSH1 0x1 PUSH1 0x20 MSTORE DUP1 PUSH1 0x0 MSTORE PUSH1 0x40 PUSH1 0x0 KECCAK256 PUSH1 0x0 SWAP2 POP SWAP1 POP DUP1 PUSH1 0x0 ADD SLOAD SWAP1 DUP1 PUSH1 0x1 ADD PUSH1 0x0 SWAP1 SLOAD SWAP1 PUSH2 0x100 EXP SWAP1 DIV PUSH1 0xFF AND SWAP1 DUP1 PUSH1 0x1 ADD PUSH1 0x1 SWAP1 SLOAD SWAP1 PUSH2 0x100 EXP SWAP1 DIV PUSH20 0xFFFFFFFFFFFFFFFFFFFFFFFFFFFFFFFFFFFFFFFF AND SWAP1 DUP1 PUSH1 0x2 ADD SLOAD SWAP1 POP DUP5 JUMP JUMPDEST PUSH1 0x0 PUSH1 0x3 PUSH2 0x9BE PUSH2 0x716 JUMP JUMPDEST DUP2 SLOAD DUP2 LT PUSH2 0x9CF JUMPI PUSH2 0x9CE PUSH2 0xEE9 JUMP JUMPDEST JUMPDEST SWAP1 PUSH1 0x0 MSTORE PUSH1 0x20 PUSH1 0x0 KECCAK256 SWAP1 PUSH1 0x2 MUL ADD PUSH1 0x0 ADD SLOAD SWAP1 POP SWAP1 JUMP JUMPDEST PUSH1 0x0 DUP2 CALLDATALOAD SWAP1 POP PUSH2 0x9F5 DUP2 PUSH2 0x1076 JUMP JUMPDEST SWAP3 SWAP2 POP POP JUMP JUMPDEST PUSH1 0x0 DUP2 CALLDATALOAD SWAP1 POP PUSH2 0xA0A DUP2 PUSH2 0x108D JUMP JUMPDEST SWAP3 SWAP2 POP POP JUMP JUMPDEST PUSH1 0x0 PUSH1 0x20 DUP3 DUP5 SUB SLT ISZERO PUSH2 0xA26 JUMPI PUSH2 0xA25 PUSH2 0xF18 JUMP JUMPDEST JUMPDEST PUSH1 0x0 PUSH2 0xA34 DUP5 DUP3 DUP6 ADD PUSH2 0x9E6 JUMP JUMPDEST SWAP2 POP POP SWAP3 SWAP2 POP POP JUMP JUMPDEST PUSH1 0x0 PUSH1 0x20 DUP3 DUP5 SUB SLT ISZERO PUSH2 0xA53 JUMPI PUSH2 0xA52 PUSH2 0xF18 JUMP JUMPDEST JUMPDEST PUSH1 0x0 PUSH2 0xA61 DUP5 DUP3 DUP6 ADD PUSH2 0x9FB JUMP JUMPDEST SWAP2 POP POP SWAP3 SWAP2 POP POP JUMP JUMPDEST PUSH2 0xA73 DUP2 PUSH2 0xDCB JUMP JUMPDEST DUP3 MSTORE POP POP JUMP JUMPDEST PUSH2 0xA82 DUP2 PUSH2 0xDDD JUMP JUMPDEST DUP3 MSTORE POP POP JUMP JUMPDEST PUSH2 0xA91 DUP2 PUSH2 0xDE9 JUMP JUMPDEST DUP3 MSTORE POP POP JUMP JUMPDEST PUSH2 0xAA0 DUP2 PUSH2 0xE30 JUMP JUMPDEST DUP3 MSTORE POP POP JUMP JUMPDEST PUSH1 0x0 PUSH2 0xAB3 PUSH1 0x14 DUP4 PUSH2 0xD64 JUMP JUMPDEST SWAP2 POP PUSH2 0xABE DUP3 PUSH2 0xF1D JUMP JUMPDEST PUSH1 0x20 DUP3 ADD SWAP1 POP SWAP2 SWAP1 POP JUMP JUMPDEST PUSH1 0x0 PUSH2 0xAD6 PUSH1 0xE DUP4 PUSH2 0xD64 JUMP JUMPDEST SWAP2 POP PUSH2 0xAE1 DUP3 PUSH2 0xF46 JUMP JUMPDEST PUSH1 0x20 DUP3 ADD SWAP1 POP SWAP2 SWAP1 POP JUMP JUMPDEST PUSH1 0x0 PUSH2 0xAF9 PUSH1 0x12 DUP4 PUSH2 0xD64 JUMP JUMPDEST SWAP2 POP PUSH2 0xB04 DUP3 PUSH2 0xF6F JUMP JUMPDEST PUSH1 0x20 DUP3 ADD SWAP1 POP SWAP2 SWAP1 POP JUMP JUMPDEST PUSH1 0x0 PUSH2 0xB1C PUSH1 0x28 DUP4 PUSH2 0xD64 JUMP JUMPDEST SWAP2 POP PUSH2 0xB27 DUP3 PUSH2 0xF98 JUMP JUMPDEST PUSH1 0x40 DUP3 ADD SWAP1 POP SWAP2 SWAP1 POP JUMP JUMPDEST PUSH1 0x0 PUSH2 0xB3F PUSH1 0x19 DUP4 PUSH2 0xD64 JUMP JUMPDEST SWAP2 POP PUSH2 0xB4A DUP3 PUSH2 0xFE7 JUMP JUMPDEST PUSH1 0x20 DUP3 ADD SWAP1 POP SWAP2 SWAP1 POP JUMP JUMPDEST PUSH1 0x0 PUSH2 0xB62 PUSH1 0x18 DUP4 PUSH2 0xD64 JUMP JUMPDEST SWAP2 POP PUSH2 0xB6D DUP3 PUSH2 0x1010 JUMP JUMPDEST PUSH1 0x20 DUP3 ADD SWAP1 POP SWAP2 SWAP1 POP JUMP JUMPDEST PUSH1 0x0 PUSH2 0xB85 PUSH1 0x1E DUP4 PUSH2 0xD64 JUMP JUMPDEST SWAP2 POP PUSH2 0xB90 DUP3 PUSH2 0x1039 JUMP JUMPDEST PUSH1 0x20 DUP3 ADD SWAP1 POP SWAP2 SWAP1 POP JUMP JUMPDEST PUSH2 0xBA4 DUP2 PUSH2 0xE26 JUMP JUMPDEST DUP3 MSTORE POP POP JUMP JUMPDEST PUSH1 0x0 PUSH1 0x20 DUP3 ADD SWAP1 POP PUSH2 0xBBF PUSH1 0x0 DUP4 ADD DUP5 PUSH2 0xA6A JUMP JUMPDEST SWAP3 SWAP2 POP POP JUMP JUMPDEST PUSH1 0x0 PUSH1 0x20 DUP3 ADD SWAP1 POP PUSH2 0xBDA PUSH1 0x0 DUP4 ADD DUP5 PUSH2 0xA88 JUMP JUMPDEST SWAP3 SWAP2 POP POP JUMP JUMPDEST PUSH1 0x0 PUSH1 0x40 DUP3 ADD SWAP1 POP PUSH2 0xBF5 PUSH1 0x0 DUP4 ADD DUP6 PUSH2 0xA88 JUMP JUMPDEST PUSH2 0xC02 PUSH1 0x20 DUP4 ADD DUP5 PUSH2 0xB9B JUMP JUMPDEST SWAP4 SWAP3 POP POP POP JUMP JUMPDEST PUSH1 0x0 PUSH1 0x20 DUP3 ADD SWAP1 POP PUSH2 0xC1E PUSH1 0x0 DUP4 ADD DUP5 PUSH2 0xA97 JUMP JUMPDEST SWAP3 SWAP2 POP POP JUMP JUMPDEST PUSH1 0x0 PUSH1 0x20 DUP3 ADD SWAP1 POP DUP2 DUP2 SUB PUSH1 0x0 DUP4 ADD MSTORE PUSH2 0xC3D DUP2 PUSH2 0xAA6 JUMP JUMPDEST SWAP1 POP SWAP2 SWAP1 POP JUMP JUMPDEST PUSH1 0x0 PUSH1 0x20 DUP3 ADD SWAP1 POP DUP2 DUP2 SUB PUSH1 0x0 DUP4 ADD MSTORE PUSH2 0xC5D DUP2 PUSH2 0xAC9 JUMP JUMPDEST SWAP1 POP SWAP2 SWAP1 POP JUMP JUMPDEST PUSH1 0x0 PUSH1 0x20 DUP3 ADD SWAP1 POP DUP2 DUP2 SUB PUSH1 0x0 DUP4 ADD MSTORE PUSH2 0xC7D DUP2 PUSH2 0xAEC JUMP JUMPDEST SWAP1 POP SWAP2 SWAP1 POP JUMP JUMPDEST PUSH1 0x0 PUSH1 0x20 DUP3 ADD SWAP1 POP DUP2 DUP2 SUB PUSH1 0x0 DUP4 ADD MSTORE PUSH2 0xC9D DUP2 PUSH2 0xB0F JUMP JUMPDEST SWAP1 POP SWAP2 SWAP1 POP JUMP JUMPDEST PUSH1 0x0 PUSH1 0x20 DUP3 ADD SWAP1 POP DUP2 DUP2 SUB PUSH1 0x0 DUP4 ADD MSTORE PUSH2 0xCBD DUP2 PUSH2 0xB32 JUMP JUMPDEST SWAP1 POP SWAP2 SWAP1 POP JUMP JUMPDEST PUSH1 0x0 PUSH1 0x20 DUP3 ADD SWAP1 POP DUP2 DUP2 SUB PUSH1 0x0 DUP4 ADD MSTORE PUSH2 0xCDD DUP2 PUSH2 0xB55 JUMP JUMPDEST SWAP1 POP SWAP2 SWAP1 POP JUMP JUMPDEST PUSH1 0x0 PUSH1 0x20 DUP3 ADD SWAP1 POP DUP2 DUP2 SUB PUSH1 0x0 DUP4 ADD MSTORE PUSH2 0xCFD DUP2 PUSH2 0xB78 JUMP JUMPDEST SWAP1 POP SWAP2 SWAP1 POP JUMP JUMPDEST PUSH1 0x0 PUSH1 0x20 DUP3 ADD SWAP1 POP PUSH2 0xD19 PUSH1 0x0 DUP4 ADD DUP5 PUSH2 0xB9B JUMP JUMPDEST SWAP3 SWAP2 POP POP JUMP JUMPDEST PUSH1 0x0 PUSH1 0x80 DUP3 ADD SWAP1 POP PUSH2 0xD34 PUSH1 0x0 DUP4 ADD DUP8 PUSH2 0xB9B JUMP JUMPDEST PUSH2 0xD41 PUSH1 0x20 DUP4 ADD DUP7 PUSH2 0xA79 JUMP JUMPDEST PUSH2 0xD4E PUSH1 0x40 DUP4 ADD DUP6 PUSH2 0xA6A JUMP JUMPDEST PUSH2 0xD5B PUSH1 0x60 DUP4 ADD DUP5 PUSH2 0xB9B JUMP JUMPDEST SWAP6 SWAP5 POP POP POP POP POP JUMP JUMPDEST PUSH1 0x0 DUP3 DUP3 MSTORE PUSH1 0x20 DUP3 ADD SWAP1 POP SWAP3 SWAP2 POP POP JUMP JUMPDEST PUSH1 0x0 PUSH2 0xD80 DUP3 PUSH2 0xE26 JUMP JUMPDEST SWAP2 POP PUSH2 0xD8B DUP4 PUSH2 0xE26 JUMP JUMPDEST SWAP3 POP DUP3 PUSH32 0xFFFFFFFFFFFFFFFFFFFFFFFFFFFFFFFFFFFFFFFFFFFFFFFFFFFFFFFFFFFFFFFF SUB DUP3 GT ISZERO PUSH2 0xDC0 JUMPI PUSH2 0xDBF PUSH2 0xE8B JUMP JUMPDEST JUMPDEST DUP3 DUP3 ADD SWAP1 POP SWAP3 SWAP2 POP POP JUMP JUMPDEST PUSH1 0x0 PUSH2 0xDD6 DUP3 PUSH2 0xE06 JUMP JUMPDEST SWAP1 POP SWAP2 SWAP1 POP JUMP JUMPDEST PUSH1 0x0 DUP2 ISZERO ISZERO SWAP1 POP SWAP2 SWAP1 POP JUMP JUMPDEST PUSH1 0x0 DUP2 SWAP1 POP SWAP2 SWAP1 POP JUMP JUMPDEST PUSH1 0x0 DUP2 SWAP1 POP PUSH2 0xE01 DUP3 PUSH2 0x1062 JUMP JUMPDEST SWAP2 SWAP1 POP JUMP JUMPDEST PUSH1 0x0 PUSH20 0xFFFFFFFFFFFFFFFFFFFFFFFFFFFFFFFFFFFFFFFF DUP3 AND SWAP1 POP SWAP2 SWAP1 POP JUMP JUMPDEST PUSH1 0x0 DUP2 SWAP1 POP SWAP2 SWAP1 POP JUMP JUMPDEST PUSH1 0x0 PUSH2 0xE3B DUP3 PUSH2 0xDF3 JUMP JUMPDEST SWAP1 POP SWAP2 SWAP1 POP JUMP JUMPDEST PUSH1 0x0 PUSH2 0xE4D DUP3 PUSH2 0xE26 JUMP JUMPDEST SWAP2 POP PUSH32 0xFFFFFFFFFFFFFFFFFFFFFFFFFFFFFFFFFFFFFFFFFFFFFFFFFFFFFFFFFFFFFFFF DUP3 EQ ISZERO PUSH2 0xE80 JUMPI PUSH2 0xE7F PUSH2 0xE8B JUMP JUMPDEST JUMPDEST PUSH1 0x1 DUP3 ADD SWAP1 POP SWAP2 SWAP1 POP JUMP JUMPDEST PUSH32 0x4E487B7100000000000000000000000000000000000000000000000000000000 PUSH1 0x0 MSTORE PUSH1 0x11 PUSH1 0x4 MSTORE PUSH1 0x24 PUSH1 0x0 REVERT JUMPDEST PUSH32 0x4E487B7100000000000000000000000000000000000000000000000000000000 PUSH1 0x0 MSTORE PUSH1 0x21 PUSH1 0x4 MSTORE PUSH1 0x24 PUSH1 0x0 REVERT JUMPDEST PUSH32 0x4E487B7100000000000000000000000000000000000000000000000000000000 PUSH1 0x0 MSTORE PUSH1 0x32 PUSH1 0x4 MSTORE PUSH1 0x24 PUSH1 0x0 REVERT JUMPDEST PUSH1 0x0 DUP1 REVERT JUMPDEST PUSH32 0x486173206E6F20726967687420746F20766F7465000000000000000000000000 PUSH1 0x0 DUP3 ADD MSTORE POP JUMP JUMPDEST PUSH32 0x416C726561647920766F7465642E000000000000000000000000000000000000 PUSH1 0x0 DUP3 ADD MSTORE POP JUMP JUMPDEST PUSH32 0x596F7520616C726561647920766F7465642E0000000000000000000000000000 PUSH1 0x0 DUP3 ADD MSTORE POP JUMP JUMPDEST PUSH32 0x4F6E6C79206368616972706572736F6E2063616E206769766520726967687420 PUSH1 0x0 DUP3 ADD MSTORE PUSH32 0x746F20766F74652E000000000000000000000000000000000000000000000000 PUSH1 0x20 DUP3 ADD MSTORE POP JUMP JUMPDEST PUSH32 0x466F756E64206C6F6F7020696E2064656C65676174696F6E2E00000000000000 PUSH1 0x0 DUP3 ADD MSTORE POP JUMP JUMPDEST PUSH32 0x54686520766F74657220616C726561647920766F7465642E0000000000000000 PUSH1 0x0 DUP3 ADD MSTORE POP JUMP JUMPDEST PUSH32 0x53656C662D64656C65676174696F6E20697320646973616C6C6F7765642E0000 PUSH1 0x0 DUP3 ADD MSTORE POP JUMP JUMPDEST PUSH1 0x2 DUP2 LT PUSH2 0x1073 JUMPI PUSH2 0x1072 PUSH2 0xEBA JUMP JUMPDEST JUMPDEST POP JUMP JUMPDEST PUSH2 0x107F DUP2 PUSH2 0xDCB JUMP JUMPDEST DUP2 EQ PUSH2 0x108A JUMPI PUSH1 0x0 DUP1 REVERT JUMPDEST POP JUMP JUMPDEST PUSH2 0x1096 DUP2 PUSH2 0xE26 JUMP JUMPDEST DUP2 EQ PUSH2 0x10A1 JUMPI PUSH1 0x0 DUP1 REVERT JUMPDEST POP JUMP INVALID LOG2 PUSH5 0x6970667358 0x22 SLT KECCAK256 0xD2 0xB2 CALLDATASIZE SWAP5 0x1F 0xC PUSH28 0xC57F94996BCA7CB99C5453F5B5080367A289290E003FD6AF1B64736F PUSH13 0x63430008070033000000000000 "
				},
				"gasEstimates": {
					"creation": {
						"codeDepositCost": "862800",
						"executionCost": "infinite",
						"totalCost": "infinite"
					},
					"external": {
						"chairperson()": "2578",
						"delegate(address)": "infinite",
						"giveRightToVote(address)": "29347",
						"proposals(uint256)": "infinite",
						"status()": "2605",
						"vote(uint256)": "infinite",
						"voters(address)": "infinite",
						"winnerName()": "infinite",
						"winningProposal()": "infinite"
					}
				},
				"methodIdentifiers": {
					"chairperson()": "2e4176cf",
					"delegate(address)": "5c19a95c",
					"giveRightToVote(address)": "9e7b8d61",
					"proposals(uint256)": "013cf08b",
					"status()": "200d2ed2",
					"vote(uint256)": "0121b93f",
					"voters(address)": "a3ec138d",
					"winnerName()": "e2ba53f0",
					"winningProposal()": "609ff1bd"
				}
			},
			"storageLayout": {
				"storage": [
					{
						"astId": 18,
						"contract": "ballot_voting/ballotvoting.sol:Ballot",
						"label": "chairperson",
						"offset": 0,
						"slot": "0",
						"type": "t_address"
					},
					{
						"astId": 23,
						"contract": "ballot_voting/ballotvoting.sol:Ballot",
						"label": "voters",
						"offset": 0,
						"slot": "1",
						"type": "t_mapping(t_address,t_struct(Voter)11_storage)"
					},
					{
						"astId": 29,
						"contract": "ballot_voting/ballotvoting.sol:Ballot",
						"label": "status",
						"offset": 0,
						"slot": "2",
						"type": "t_enum(workflowStatus)26"
					},
					{
						"astId": 45,
						"contract": "ballot_voting/ballotvoting.sol:Ballot",
						"label": "proposals",
						"offset": 0,
						"slot": "3",
						"type": "t_array(t_struct(Proposal)16_storage)dyn_storage"
					}
				],
				"types": {
					"t_address": {
						"encoding": "inplace",
						"label": "address",
						"numberOfBytes": "20"
					},
					"t_array(t_struct(Proposal)16_storage)dyn_storage": {
						"base": "t_struct(Proposal)16_storage",
						"encoding": "dynamic_array",
						"label": "struct Ballot.Proposal[]",
						"numberOfBytes": "32"
					},
					"t_bool": {
						"encoding": "inplace",
						"label": "bool",
						"numberOfBytes": "1"
					},
					"t_bytes32": {
						"encoding": "inplace",
						"label": "bytes32",
						"numberOfBytes": "32"
					},
					"t_enum(workflowStatus)26": {
						"encoding": "inplace",
						"label": "enum Ballot.workflowStatus",
						"numberOfBytes": "1"
					},
					"t_mapping(t_address,t_struct(Voter)11_storage)": {
						"encoding": "mapping",
						"key": "t_address",
						"label": "mapping(address => struct Ballot.Voter)",
						"numberOfBytes": "32",
						"value": "t_struct(Voter)11_storage"
					},
					"t_struct(Proposal)16_storage": {
						"encoding": "inplace",
						"label": "struct Ballot.Proposal",
						"members": [
							{
								"astId": 13,
								"contract": "ballot_voting/ballotvoting.sol:Ballot",
								"label": "name",
								"offset": 0,
								"slot": "0",
								"type": "t_bytes32"
							},
							{
								"astId": 15,
								"contract": "ballot_voting/ballotvoting.sol:Ballot",
								"label": "voteCount",
								"offset": 0,
								"slot": "1",
								"type": "t_uint256"
							}
						],
						"numberOfBytes": "64"
					},
					"t_struct(Voter)11_storage": {
						"encoding": "inplace",
						"label": "struct Ballot.Voter",
						"members": [
							{
								"astId": 4,
								"contract": "ballot_voting/ballotvoting.sol:Ballot",
								"label": "weight",
								"offset": 0,
								"slot": "0",
								"type": "t_uint256"
							},
							{
								"astId": 6,
								"contract": "ballot_voting/ballotvoting.sol:Ballot",
								"label": "voted",
								"offset": 0,
								"slot": "1",
								"type": "t_bool"
							},
							{
								"astId": 8,
								"contract": "ballot_voting/ballotvoting.sol:Ballot",
								"label": "delegate",
								"offset": 1,
								"slot": "1",
								"type": "t_address"
							},
							{
								"astId": 10,
								"contract": "ballot_voting/ballotvoting.sol:Ballot",
								"label": "vote",
								"offset": 0,
								"slot": "2",
								"type": "t_uint256"
							}
						],
						"numberOfBytes": "96"
					},
					"t_uint256": {
						"encoding": "inplace",
						"label": "uint256",
						"numberOfBytes": "32"
					}
				}
			},
			"userdoc": {
				"kind": "user",
				"methods": {},
				"version": 1
			}
		}
	}
}